{
  "contractName": "BFactory",
  "abi": [
    {
      "inputs": [],
      "payable": false,
      "stateMutability": "nonpayable",
      "type": "constructor"
    },
    {
      "anonymous": false,
      "inputs": [
        {
          "indexed": true,
          "internalType": "address",
          "name": "caller",
          "type": "address"
        },
        {
          "indexed": true,
          "internalType": "address",
          "name": "pool",
          "type": "address"
        }
      ],
      "name": "LOG_NEW_POOL",
      "type": "event"
    },
    {
      "constant": true,
      "inputs": [],
      "name": "getColor",
      "outputs": [
        {
          "internalType": "bytes32",
          "name": "",
          "type": "bytes32"
        }
      ],
      "payable": false,
      "stateMutability": "view",
      "type": "function"
    },
    {
      "constant": true,
      "inputs": [
        {
          "internalType": "address",
          "name": "b",
          "type": "address"
        }
      ],
      "name": "isBPool",
      "outputs": [
        {
          "internalType": "bool",
          "name": "",
          "type": "bool"
        }
      ],
      "payable": false,
      "stateMutability": "view",
      "type": "function"
    },
    {
      "constant": false,
      "inputs": [],
      "name": "newBPool",
      "outputs": [
        {
          "internalType": "contract BPool",
          "name": "",
          "type": "address"
        }
      ],
      "payable": false,
      "stateMutability": "nonpayable",
      "type": "function"
    },
    {
      "constant": true,
      "inputs": [],
      "name": "getBLabs",
      "outputs": [
        {
          "internalType": "address",
          "name": "",
          "type": "address"
        }
      ],
      "payable": false,
      "stateMutability": "view",
      "type": "function"
    },
    {
      "constant": false,
      "inputs": [
        {
          "internalType": "address",
          "name": "b",
          "type": "address"
        }
      ],
      "name": "setBLabs",
      "outputs": [],
      "payable": false,
      "stateMutability": "nonpayable",
      "type": "function"
    },
    {
      "constant": false,
      "inputs": [
        {
          "internalType": "contract BPool",
          "name": "pool",
          "type": "address"
        }
      ],
      "name": "collect",
      "outputs": [],
      "payable": false,
      "stateMutability": "nonpayable",
      "type": "function"
    }
  ],
  "bytecode": "0x608060405234801561001057600080fd5b5060018054600160a060020a03191633179055616d29806100326000396000f3fe608060405234801561001057600080fd5b506004361061007e577c0100000000000000000000000000000000000000000000000000000000600035046306ec16f8811461008357806336ffb167146100ab5780639a86139b146100cf578063c2bb6dc2146100e9578063c6ce34fb14610123578063d556c5dc14610149575b600080fd5b6100a96004803603602081101561009957600080fd5b5035600160a060020a0316610151565b005b6100b361036c565b60408051600160a060020a039092168252519081900360200190f35b6100d761037b565b60408051918252519081900360200190f35b61010f600480360360208110156100ff57600080fd5b5035600160a060020a031661039f565b604080519115158252519081900360200190f35b6100a96004803603602081101561013957600080fd5b5035600160a060020a03166103bd565b6100b3610465565b600154600160a060020a031633146101ca57604080517f08c379a000000000000000000000000000000000000000000000000000000000815260206004820152600d60248201527f4552525f4e4f545f424c41425300000000000000000000000000000000000000604482015290519081900360640190fd5b604080517f70a082310000000000000000000000000000000000000000000000000000000081523060048201529051600091600160a060020a038416916370a0823191602480820192602092909190829003018186803b15801561022d57600080fd5b505afa158015610241573d6000803e3d6000fd5b505050506040513d602081101561025757600080fd5b5051600154604080517fa9059cbb000000000000000000000000000000000000000000000000000000008152600160a060020a0392831660048201526024810184905290519293506000929185169163a9059cbb9160448082019260209290919082900301818787803b1580156102cd57600080fd5b505af11580156102e1573d6000803e3d6000fd5b505050506040513d60208110156102f757600080fd5b505190508061036757604080517f08c379a000000000000000000000000000000000000000000000000000000000815260206004820152601060248201527f4552525f45524332305f4641494c454400000000000000000000000000000000604482015290519081900360640190fd5b505050565b600154600160a060020a031690565b7f42524f4e5a45000000000000000000000000000000000000000000000000000090565b600160a060020a031660009081526020819052604090205460ff1690565b600154600160a060020a0316331461043657604080517f08c379a000000000000000000000000000000000000000000000000000000000815260206004820152600d60248201527f4552525f4e4f545f424c41425300000000000000000000000000000000000000604482015290519081900360640190fd5b6001805473ffffffffffffffffffffffffffffffffffffffff1916600160a060020a0392909216919091179055565b6000806040516104749061055e565b604051809103906000f080158015610490573d6000803e3d6000fd5b50600160a060020a038116600081815260208190526040808220805460ff1916600117905551929350909133917f8ccec77b0cb63ac2cafd0f5de8cdfadab91ce656d262240ba8a6343bccc5f94591a3604080517f92eefe9b0000000000000000000000000000000000000000000000000000000081523360048201529051600160a060020a038316916392eefe9b91602480830192600092919082900301818387803b15801561054057600080fd5b505af1158015610554573d6000803e3d6000fd5b5092935050505090565b6167898061056c8339019056fe608060405234801561001057600080fd5b50600480546003805461010060a860020a03191633610100810291909117909155600160a060020a03199091161760a060020a60ff02191690556006805460ff1916905561672580620000646000396000f3fe608060405234801561001057600080fd5b5060043610610265576000357c0100000000000000000000000000000000000000000000000000000000900480638d4e408311610158578063cd2ed8fb116100d5578063dd62ed3e11610099578063dd62ed3e146107ba578063e4e1e538146107e8578063f1b8a9b71461081a578063f8b2cb4f14610840578063fde924f71461086657610265565b8063cd2ed8fb14610718578063ce1d477d14610720578063cf5e7bd314610760578063d4cadf6814610786578063d73dd6231461078e57610265565b8063a9059cbb1161011c578063a9059cbb14610643578063be1d24ad1461066f578063be3bbd2e1461068c578063c83d529e146106e4578063cc77828d1461071057610265565b80638d4e4083146105df57806392eefe9b146105e7578063936c34771461060d578063948d8ce6146106155780639a86139b1461063b57610265565b806334e7a19f116101e65780635718db49116101aa5780635718db49146104ce57806362fd794214610527578063661884631461056757806370a08231146105935780638c28cbe8146105b957610265565b806334e7a19f146104085780633fdddaa214610425578063483605e81461045757806349b59552146104835780634b0f9faa146104a257610265565b80631ecc61bc1161022d5780631ecc61bc1461033f57806323b872dd1461036b5780632f37b624146103a15780633018205f146103c757806334e19907146103eb57610265565b806305261aea1461026a578063095ea7b3146102895780631446a7ff146102c957806315e84af91461030957806318160ddd14610337575b600080fd5b6102876004803603602081101561028057600080fd5b503561086e565b005b6102b56004803603604081101561029f57600080fd5b50600160a060020a038135169060200135610b7e565b604080519115158252519081900360200190f35b6102f7600480360360408110156102df57600080fd5b50600160a060020a0381358116916020013516610bd1565b60408051918252519081900360200190f35b6102f76004803603604081101561031f57600080fd5b50600160a060020a0381358116916020013516610d93565b6102f7610f4c565b6102f76004803603604081101561035557600080fd5b5080359060200135600160a060020a0316610f52565b6102b56004803603606081101561038157600080fd5b50600160a060020a038135811691602081013590911690604001356111f2565b6102b5600480360360208110156103b757600080fd5b5035600160a060020a031661134f565b6103cf61136d565b60408051600160a060020a039092168252519081900360200190f35b6102876004803603602081101561040157600080fd5b50356113f8565b6102876004803603602081101561041e57600080fd5b5035611676565b6102876004803603606081101561043b57600080fd5b50600160a060020a038135169060208101359060400135611916565b6102f76004803603604081101561046d57600080fd5b50600160a060020a038135169060200135611f67565b6102876004803603602081101561049957600080fd5b503515156121f6565b6102f7600480360360408110156104b857600080fd5b50600160a060020a038135169060200135612420565b61050e600480360360a08110156104e457600080fd5b50600160a060020a0381358116916020810135916040820135169060608101359060800135612700565b6040805192835260208301919091528051918290030190f35b61050e600480360360a081101561053d57600080fd5b50600160a060020a0381358116916020810135916040820135169060608101359060800135612dee565b6102b56004803603604081101561057d57600080fd5b50600160a060020a0381351690602001356134b4565b6102f7600480360360208110156105a957600080fd5b5035600160a060020a0316613584565b610287600480360360208110156105cf57600080fd5b5035600160a060020a031661359f565b6102b56137ba565b610287600480360360208110156105fd57600080fd5b5035600160a060020a03166137c3565b6102f7613965565b6102f76004803603602081101561062b57600080fd5b5035600160a060020a03166139e7565b6102f7613afe565b6102b56004803603604081101561065957600080fd5b50600160a060020a038135169060200135613b22565b6102876004803603602081101561068557600080fd5b5035613b38565b610694613e1c565b60408051602080825283518183015283519192839290830191858101910280838360005b838110156106d05781810151838201526020016106b8565b505050509050019250505060405180910390f35b6102f7600480360360408110156106fa57600080fd5b5080359060200135600160a060020a0316613f81565b61069461424a565b6102f76142c4565b61050e600480360360a081101561073657600080fd5b50600160a060020a03813581169160208101359160408201351690606081013590608001356142ca565b6102876004803603602081101561077657600080fd5b5035600160a060020a0316614976565b6102f7614db2565b6102b5600480360360408110156107a457600080fd5b50600160a060020a038135169060200135614e34565b6102f7600480360360408110156107d057600080fd5b50600160a060020a0381358116916020013516614eb1565b610287600480360360608110156107fe57600080fd5b50600160a060020a038135169060208101359060400135614eda565b6102f76004803603602081101561083057600080fd5b5035600160a060020a0316615211565b6102f76004803603602081101561085657600080fd5b5035600160a060020a031661533a565b6102b5615451565b33600160a060020a0316600035600160e060020a031916600160e060020a03191660003660405180806020018281038252848482818152602001925080828437600083820152604051601f909101601f19169092018290039550909350505050a260035460408051808201909152600b815260008051602061661183398151915260208201529060ff16156109845760405160e560020a62461bcd0281526004018080602001828103825283818151815260200191508051906020019080838360005b83811015610949578181015183820152602001610931565b50505050905090810190601f1680156109765780820380516001836020036101000a031916815260200191505b509250505060405180910390fd5b506003805460ff19166001179055600454604080518082019091526012815260008051602061665183398151915260208201529033600160a060020a0390911614610a135760405160e560020a62461bcd028152602060048201818152835160248401528351909283926044909101919085019080838360008315610949578181015183820152602001610931565b5060065460408051808201909152601081526000805160206166b183398151915260208201529060ff1615610a8c5760405160e560020a62461bcd028152602060048201818152835160248401528351909283926044909101919085019080838360008315610949578181015183820152602001610931565b5060408051808201909152601381527f4552525f4d494e5f504f4f4c5f535550504c59000000000000000000000000006020820152670de0b6b3a7640000821015610b1b5760405160e560020a62461bcd028152602060048201818152835160248401528351909283926044909101919085019080838360008315610949578181015183820152602001610931565b506006805460ff191660011790556004805474ff0000000000000000000000000000000000000000191674010000000000000000000000000000000000000000179055610b6781615472565b610b71338261547e565b506003805460ff19169055565b33600081815260208181526040808320600160a060020a03871680855290835281842086905581518681529151939490939092600080516020616691833981519152928290030190a35060015b92915050565b60035460408051808201909152600b8152600080516020616611833981519152602082015260009160ff1615610c4b5760405160e560020a62461bcd028152602060048201818152835160248401528351909283926044909101919085019080838360008315610949578181015183820152602001610931565b50610c558361134f565b6040518060400160405280600d815260200160008051602061667183398151915281525090610cc85760405160e560020a62461bcd028152602060048201818152835160248401528351909283926044909101919085019080838360008315610949578181015183820152602001610931565b50610cd28261134f565b6040518060400160405280600d815260200160008051602061667183398151915281525090610d455760405160e560020a62461bcd028152602060048201818152835160248401528351909283926044909101919085019080838360008315610949578181015183820152602001610931565b50600160a060020a038084166000908152600860205260408082209285168252812060038084015460028086015492840154908401549394610d8a949293929061548c565b95945050505050565b60035460408051808201909152600b8152600080516020616611833981519152602082015260009160ff1615610e0d5760405160e560020a62461bcd028152602060048201818152835160248401528351909283926044909101919085019080838360008315610949578181015183820152602001610931565b50610e178361134f565b6040518060400160405280600d815260200160008051602061667183398151915281525090610e8a5760405160e560020a62461bcd028152602060048201818152835160248401528351909283926044909101919085019080838360008315610949578181015183820152602001610931565b50610e948261134f565b6040518060400160405280600d815260200160008051602061667183398151915281525090610f075760405160e560020a62461bcd028152602060048201818152835160248401528351909283926044909101919085019080838360008315610949578181015183820152602001610931565b50600160a060020a03808416600090815260086020526040808220928516825290206003808301546002808501549284015490840154600554610d8a9492919061548c565b60025490565b600033600160a060020a0316600035600160e060020a031916600160e060020a03191660003660405180806020018281038252848482818152602001925080828437600083820152604051601f909101601f19169092018290039550909350505050a260035460408051808201909152600b815260008051602061661183398151915260208201529060ff161561102d5760405160e560020a62461bcd028152602060048201818152835160248401528351909283926044909101919085019080838360008315610949578181015183820152602001610931565b506003805460ff191660011790556110448261134f565b6040518060400160405280600d8152602001600080516020616671833981519152815250906110b75760405160e560020a62461bcd028152602060048201818152835160248401528351909283926044909101919085019080838360008315610949578181015183820152602001610931565b506110c0615451565b604051806040016040528060138152602001600080516020616631833981519152815250906111335760405160e560020a62461bcd028152602060048201818152835160248401528351909283926044909101919085019080838360008315610949578181015183820152602001610931565b50600160a060020a03821660009081526008602052604090206003810154600280830154905460095460055461116e949392919089906154f6565b915061117e8160030154836155a9565b6003820155604080518381529051600160a060020a0385169133917f63982df10efd8dfaaaa0fcc7f50b2d93b7cba26ccc48adee2873220d485dc39a9181900360200190a36111cc84615472565b6111d6338561547e565b6111e183338461563e565b506003805460ff1916905592915050565b600033600160a060020a038516148061122c5750600160a060020a0384166000908152602081815260408083203384529091529020548211155b611280576040805160e560020a62461bcd02815260206004820152601560248201527f4552525f42544f4b454e5f4241445f43414c4c45520000000000000000000000604482015290519081900360640190fd5b61128b848484615769565b33600160a060020a038516148015906112c75750600160a060020a03841660009081526020818152604080832033845290915290205460001914155b1561134557600160a060020a0384166000908152602081815260408083203384529091529020546112f89083615887565b600160a060020a0385811660009081526020818152604080832033808552908352928190208590558051948552519287169391926000805160206166918339815191529281900390910190a35b5060019392505050565b600160a060020a031660009081526008602052604090205460ff1690565b60035460408051808201909152600b8152600080516020616611833981519152602082015260009160ff16156113e75760405160e560020a62461bcd028152602060048201818152835160248401528351909283926044909101919085019080838360008315610949578181015183820152602001610931565b5050600454600160a060020a031690565b33600160a060020a0316600035600160e060020a031916600160e060020a03191660003660405180806020018281038252848482818152602001925080828437600083820152604051601f909101601f19169092018290039550909350505050a260035460408051808201909152600b815260008051602061661183398151915260208201529060ff16156114d15760405160e560020a62461bcd028152602060048201818152835160248401528351909283926044909101919085019080838360008315610949578181015183820152602001610931565b506003805460ff1916600117905560065460408051808201909152601081526000805160206166b183398151915260208201529060ff16156115575760405160e560020a62461bcd028152602060048201818152835160248401528351909283926044909101919085019080838360008315610949578181015183820152602001610931565b506004546040805180820190915260128152600080516020616651833981519152602082015290600160a060020a031633146115d75760405160e560020a62461bcd028152602060048201818152835160248401528351909283926044909101919085019080838360008315610949578181015183820152602001610931565b5060408051808201909152600b81527f4552525f4d41585f464545000000000000000000000000000000000000000000602082015267016345785d8a00008211156116665760405160e560020a62461bcd028152602060048201818152835160248401528351909283926044909101919085019080838360008315610949578181015183820152602001610931565b506005556003805460ff19169055565b33600160a060020a0316600035600160e060020a031916600160e060020a03191660003660405180806020018281038252848482818152602001925080828437600083820152604051601f909101601f19169092018290039550909350505050a260035460408051808201909152600b815260008051602061661183398151915260208201529060ff161561174f5760405160e560020a62461bcd028152602060048201818152835160248401528351909283926044909101919085019080838360008315610949578181015183820152602001610931565b506003805460ff1916600117905560065460408051808201909152601181527f4552525f4e4f545f46494e414c495a454400000000000000000000000000000060208201529060ff166117e65760405160e560020a62461bcd028152602060048201818152835160248401528351909283926044909101919085019080838360008315610949578181015183820152602001610931565b5060006117f1610f4c565b905060006117ff838361592b565b90508061180b57600080fd5b60005b6007548110156118f35760006007828154811061182757fe5b6000918252602080832090910154600160a060020a0316808352600890915260408220600301549092509061185c8583615b04565b600160a060020a03841660009081526008602052604090206003015490915061188590826155a9565b600160a060020a0384166000818152600860209081526040918290206003019390935580518481529051919233927f63982df10efd8dfaaaa0fcc7f50b2d93b7cba26ccc48adee2873220d485dc39a9281900390910190a36118e883338361563e565b50505060010161180e565b506118fd83615472565b611907338461547e565b50506003805460ff1916905550565b33600160a060020a0316600035600160e060020a031916600160e060020a03191660003660405180806020018281038252848482818152602001925080828437600083820152604051601f909101601f19169092018290039550909350505050a260035460408051808201909152600b815260008051602061661183398151915260208201529060ff16156119ef5760405160e560020a62461bcd028152602060048201818152835160248401528351909283926044909101919085019080838360008315610949578181015183820152602001610931565b506003805460ff19166001179055600454604080518082019091526012815260008051602061665183398151915260208201529033600160a060020a0390911614611a7e5760405160e560020a62461bcd028152602060048201818152835160248401528351909283926044909101919085019080838360008315610949578181015183820152602001610931565b50611a888361134f565b6040518060400160405280600d815260200160008051602061667183398151915281525090611afb5760405160e560020a62461bcd028152602060048201818152835160248401528351909283926044909101919085019080838360008315610949578181015183820152602001610931565b5060065460408051808201909152601081526000805160206166b183398151915260208201529060ff1615611b745760405160e560020a62461bcd028152602060048201818152835160248401528351909283926044909101919085019080838360008315610949578181015183820152602001610931565b5060408051808201909152600e81527f4552525f4d494e5f5745494748540000000000000000000000000000000000006020820152670de0b6b3a7640000821015611c035760405160e560020a62461bcd028152602060048201818152835160248401528351909283926044909101919085019080838360008315610949578181015183820152602001610931565b5060408051808201909152600e81527f4552525f4d41585f57454947485400000000000000000000000000000000000060208201526802b5e3af16b1880000821115611c935760405160e560020a62461bcd028152602060048201818152835160248401528351909283926044909101919085019080838360008315610949578181015183820152602001610931565b5060408051808201909152600f81527f4552525f4d494e5f42414c414e43450000000000000000000000000000000000602082015264e8d4a51000831015611d1f5760405160e560020a62461bcd028152602060048201818152835160248401528351909283926044909101919085019080838360008315610949578181015183820152602001610931565b5060408051808201909152600f81527f4552525f4d41585f42414c414e4345000000000000000000000000000000000060208201526c0c9f2c9cd04674edea40000000831115611db35760405160e560020a62461bcd028152602060048201818152835160248401528351909283926044909101919085019080838360008315610949578181015183820152602001610931565b50600160a060020a03831660009081526008602052604090206002015480821115611e8757611ded600954611de88484615887565b6155a9565b600981905560408051808201909152601481527f4552525f4d41585f544f54414c5f5745494748540000000000000000000000006020820152906802b5e3af16b18800001015611e815760405160e560020a62461bcd028152602060048201818152835160248401528351909283926044909101919085019080838360008315610949578181015183820152602001610931565b50611ea8565b80821015611ea857611ea4600954611e9f8385615887565b615887565b6009555b600160a060020a03841660009081526008602052604090206002810183905560030180549084905580841115611ef157611eec8533611ee78785615887565b61563e565b611f56565b80841015611f56576000611f058286615887565b90506000611f2082612710670de0b6b3a76400005b04615b04565b9050611f368733611f318585615887565b615c48565b600354611f539088906101009004600160a060020a031683615c48565b50505b50506003805460ff19169055505050565b600033600160a060020a0316600035600160e060020a031916600160e060020a03191660003660405180806020018281038252848482818152602001925080828437600083820152604051601f909101601f19169092018290039550909350505050a260035460408051808201909152600b815260008051602061661183398151915260208201529060ff16156120425760405160e560020a62461bcd028152602060048201818152835160248401528351909283926044909101919085019080838360008315610949578181015183820152602001610931565b506003805460ff191660011790556120598361134f565b6040518060400160405280600d8152602001600080516020616671833981519152815250906120cc5760405160e560020a62461bcd028152602060048201818152835160248401528351909283926044909101919085019080838360008315610949578181015183820152602001610931565b506120d5615451565b604051806040016040528060138152602001600080516020616631833981519152815250906121485760405160e560020a62461bcd028152602060048201818152835160248401528351909283926044909101919085019080838360008315610949578181015183820152602001610931565b50600160a060020a03831660009081526008602052604090206003810154600280830154905460095460055461218394939291908890615cb4565b91506121938160030154846155a9565b6003820155604080518481529051600160a060020a0386169133917f63982df10efd8dfaaaa0fcc7f50b2d93b7cba26ccc48adee2873220d485dc39a9181900360200190a36121e182615472565b6121eb338361547e565b6111e184338561563e565b33600160a060020a0316600035600160e060020a031916600160e060020a03191660003660405180806020018281038252848482818152602001925080828437600083820152604051601f909101601f19169092018290039550909350505050a260035460408051808201909152600b815260008051602061661183398151915260208201529060ff16156122cf5760405160e560020a62461bcd028152602060048201818152835160248401528351909283926044909101919085019080838360008315610949578181015183820152602001610931565b506003805460ff1916600117905560065460408051808201909152601081526000805160206166b183398151915260208201529060ff16156123555760405160e560020a62461bcd028152602060048201818152835160248401528351909283926044909101919085019080838360008315610949578181015183820152602001610931565b506004546040805180820190915260128152600080516020616651833981519152602082015290600160a060020a031633146123d55760405160e560020a62461bcd028152602060048201818152835160248401528351909283926044909101919085019080838360008315610949578181015183820152602001610931565b5060048054911515740100000000000000000000000000000000000000000274ff0000000000000000000000000000000000000000199092169190911790556003805460ff19169055565b600033600160a060020a0316600035600160e060020a031916600160e060020a03191660003660405180806020018281038252848482818152602001925080828437600083820152604051601f909101601f19169092018290039550909350505050a260035460408051808201909152600b815260008051602061661183398151915260208201529060ff16156124fb5760405160e560020a62461bcd028152602060048201818152835160248401528351909283926044909101919085019080838360008315610949578181015183820152602001610931565b506003805460ff191660011790556125128361134f565b6040518060400160405280600d8152602001600080516020616671833981519152815250906125855760405160e560020a62461bcd028152602060048201818152835160248401528351909283926044909101919085019080838360008315610949578181015183820152602001610931565b5061258e615451565b604051806040016040528060138152602001600080516020616631833981519152815250906126015760405160e560020a62461bcd028152602060048201818152835160248401528351909283926044909101919085019080838360008315610949578181015183820152602001610931565b50600160a060020a03831660009081526008602052604090206003810154600280830154905460095460055461263c94939291908890615d55565b915061264c816003015484615887565b6003820155600061266883612710670de0b6b3a7640000611f1a565b604080518681529051919250600160a060020a0387169133917fe74c91552b64c2e2e7bd255639e004e693bd3e1d01cc33e65610b86afcc1ffed919081900360200190a36126b63384615e18565b6126c86126c38483615887565b615e22565b6003546126e3906101009004600160a060020a03168261547e565b6126ee853386615c48565b50506003805460ff1916905592915050565b6040805160208082523690820181905260009283923392600160e060020a03198535169285929081908101848480828437600083820152604051601f909101601f19169092018290039550909350505050a260035460408051808201909152600b815260008051602061661183398151915260208201529060ff16156127ca5760405160e560020a62461bcd028152602060048201818152835160248401528351909283926044909101919085019080838360008315610949578181015183820152602001610931565b506003805460ff191660011790556127e18761134f565b6040518060400160405280600d8152602001600080516020616671833981519152815250906128545760405160e560020a62461bcd028152602060048201818152835160248401528351909283926044909101919085019080838360008315610949578181015183820152602001610931565b5061285e8561134f565b6040518060400160405280600d8152602001600080516020616671833981519152815250906128d15760405160e560020a62461bcd028152602060048201818152835160248401528351909283926044909101919085019080838360008315610949578181015183820152602001610931565b506128da615451565b6040518060400160405280601381526020016000805160206166318339815191528152509061294d5760405160e560020a62461bcd028152602060048201818152835160248401528351909283926044909101919085019080838360008315610949578181015183820152602001610931565b50600160a060020a038088166000908152600860205260408082209288168252902060038082015461298c91670de0b6b3a76400005b04600101615b04565b8311156040518060400160405280601181526020017f4552525f4d41585f4f55545f524154494f00000000000000000000000000000081525090612a145760405160e560020a62461bcd028152602060048201818152835160248401528351909283926044909101919085019080838360008315610949578181015183820152602001610931565b506000612a36836003015484600201548460030154856002015460055461548c565b90508086116040518060400160405280601381526020017f4552525f4241445f4c494d49545f50524943450000000000000000000000000081525090612ac05760405160e560020a62461bcd028152602060048201818152835160248401528351909283926044909101919085019080838360008315610949578181015183820152602001610931565b50612ae483600301548460020154846003015485600201546009548b600554615e2b565b9450612b06836003015484600201548460030154856002015489600554615edf565b9350888511156040518060400160405280600c81526020017f4552525f4c494d49545f494e000000000000000000000000000000000000000081525090612b915760405160e560020a62461bcd028152602060048201818152835160248401528351909283926044909101919085019080838360008315610949578181015183820152602001610931565b5060408051808201909152600d81527f4552525f4c494d49545f4f555400000000000000000000000000000000000000602082015287851015612c185760405160e560020a62461bcd028152602060048201818152835160248401528351909283926044909101919085019080838360008315610949578181015183820152602001610931565b50612c278360030154866155a9565b8360030181905550612c3d826003015485615887565b82600301819055506000612c66846003015485600201548560030154866002015460055461548c565b9050818110156040518060400160405280600f81526020016000805160206166d183398151915281525090612cdf5760405160e560020a62461bcd028152602060048201818152835160248401528351909283926044909101919085019080838360008315610949578181015183820152602001610931565b50612cea868661592b565b8211156040518060400160405280600f81526020016000805160206166d183398151915281525090612d605760405160e560020a62461bcd028152602060048201818152835160248401528351909283926044909101919085019080838360008315610949578181015183820152602001610931565b5088600160a060020a03168b600160a060020a031633600160a060020a03167f908fb5ee8f16c6bc9bc3690973819f32a4d4b10188134543c88706e0e1d433788989604051808381526020018281526020019250505060405180910390a4612dc98b338861563e565b612dd4893387615c48565b505050506003805460ff1916905590969095509350505050565b6040805160208082523690820181905260009283923392600160e060020a03198535169285929081908101848480828437600083820152604051601f909101601f19169092018290039550909350505050a260035460408051808201909152600b815260008051602061661183398151915260208201529060ff1615612eb85760405160e560020a62461bcd028152602060048201818152835160248401528351909283926044909101919085019080838360008315610949578181015183820152602001610931565b506003805460ff19166001179055612ecf8761134f565b6040518060400160405280600d815260200160008051602061667183398151915281525090612f425760405160e560020a62461bcd028152602060048201818152835160248401528351909283926044909101919085019080838360008315610949578181015183820152602001610931565b50612f4c8561134f565b6040518060400160405280600d815260200160008051602061667183398151915281525090612fbf5760405160e560020a62461bcd028152602060048201818152835160248401528351909283926044909101919085019080838360008315610949578181015183820152602001610931565b50612fc8615451565b6040518060400160405280601381526020016000805160206166318339815191528152509061303b5760405160e560020a62461bcd028152602060048201818152835160248401528351909283926044909101919085019080838360008315610949578181015183820152602001610931565b50600160a060020a038088166000908152600860205260408082209288168252902060038082015461307591670de0b6b3a7640000612983565b8611156040518060400160405280601181526020017f4552525f4d41585f4f55545f524154494f000000000000000000000000000000815250906130fd5760405160e560020a62461bcd028152602060048201818152835160248401528351909283926044909101919085019080838360008315610949578181015183820152602001610931565b50600061311f836003015484600201548460030154856002015460055461548c565b9050858111156040518060400160405280601381526020017f4552525f4241445f4c494d49545f505249434500000000000000000000000000815250906131aa5760405160e560020a62461bcd028152602060048201818152835160248401528351909283926044909101919085019080838360008315610949578181015183820152602001610931565b506131cb83600301548460020154846003015485600201548b600554615f60565b9450888511156040518060400160405280600c81526020017f4552525f4c494d49545f494e0000000000000000000000000000000000000000815250906132565760405160e560020a62461bcd028152602060048201818152835160248401528351909283926044909101919085019080838360008315610949578181015183820152602001610931565b506132658360030154866155a9565b836003018190555061327b826003015488615887565b826003018190555060006132a4846003015485600201548560030154866002015460055461548c565b9050818110156040518060400160405280600f81526020016000805160206166d18339815191528152509061331d5760405160e560020a62461bcd028152602060048201818152835160248401528351909283926044909101919085019080838360008315610949578181015183820152602001610931565b5060408051808201909152600f81527f4552525f4c494d49545f505249434500000000000000000000000000000000006020820152878211156133a45760405160e560020a62461bcd028152602060048201818152835160248401528351909283926044909101919085019080838360008315610949578181015183820152602001610931565b506133af868961592b565b8211156040518060400160405280600f81526020016000805160206166d1833981519152815250906134255760405160e560020a62461bcd028152602060048201818152835160248401528351909283926044909101919085019080838360008315610949578181015183820152602001610931565b5088600160a060020a03168b600160a060020a031633600160a060020a03167f908fb5ee8f16c6bc9bc3690973819f32a4d4b10188134543c88706e0e1d43378898c604051808381526020018281526020019250505060405180910390a461348e8b338861563e565b61349989338a615c48565b93505050506003805460ff1916905590969095509350505050565b33600090815260208181526040808320600160a060020a0386168452909152812054808311156135055733600090815260208181526040808320600160a060020a0388168452909152812055613532565b61350f8184615887565b33600090815260208181526040808320600160a060020a03891684529091529020555b33600081815260208181526040808320600160a060020a038916808552908352928190205481519081529051929392600080516020616691833981519152929181900390910190a35060019392505050565b600160a060020a031660009081526001602052604090205490565b33600160a060020a0316600035600160e060020a031916600160e060020a03191660003660405180806020018281038252848482818152602001925080828437600083820152604051601f909101601f19169092018290039550909350505050a260035460408051808201909152600b815260008051602061661183398151915260208201529060ff16156136785760405160e560020a62461bcd028152602060048201818152835160248401528351909283926044909101919085019080838360008315610949578181015183820152602001610931565b506003805460ff1916600117905561368f8161134f565b6040518060400160405280600d8152602001600080516020616671833981519152815250906137025760405160e560020a62461bcd028152602060048201818152835160248401528351909283926044909101919085019080838360008315610949578181015183820152602001610931565b50604080517f70a082310000000000000000000000000000000000000000000000000000000081523060048201529051600160a060020a038316916370a08231916024808301926020929190829003018186803b15801561376257600080fd5b505afa158015613776573d6000803e3d6000fd5b505050506040513d602081101561378c57600080fd5b5051600160a060020a039091166000908152600860205260409020600390810191909155805460ff19169055565b60065460ff1690565b33600160a060020a0316600035600160e060020a031916600160e060020a03191660003660405180806020018281038252848482818152602001925080828437600083820152604051601f909101601f19169092018290039550909350505050a260035460408051808201909152600b815260008051602061661183398151915260208201529060ff161561389c5760405160e560020a62461bcd028152602060048201818152835160248401528351909283926044909101919085019080838360008315610949578181015183820152602001610931565b506003805460ff19166001179055600454604080518082019091526012815260008051602061665183398151915260208201529033600160a060020a039091161461392b5760405160e560020a62461bcd028152602060048201818152835160248401528351909283926044909101919085019080838360008315610949578181015183820152602001610931565b506004805473ffffffffffffffffffffffffffffffffffffffff1916600160a060020a03929092169190911790556003805460ff19169055565b60035460408051808201909152600b8152600080516020616611833981519152602082015260009160ff16156139df5760405160e560020a62461bcd028152602060048201818152835160248401528351909283926044909101919085019080838360008315610949578181015183820152602001610931565b505060095490565b60035460408051808201909152600b8152600080516020616611833981519152602082015260009160ff1615613a615760405160e560020a62461bcd028152602060048201818152835160248401528351909283926044909101919085019080838360008315610949578181015183820152602001610931565b50613a6b8261134f565b6040518060400160405280600d815260200160008051602061667183398151915281525090613ade5760405160e560020a62461bcd028152602060048201818152835160248401528351909283926044909101919085019080838360008315610949578181015183820152602001610931565b5050600160a060020a031660009081526008602052604090206002015490565b7f42524f4e5a45000000000000000000000000000000000000000000000000000090565b6000613b2f338484615769565b50600192915050565b33600160a060020a0316600035600160e060020a031916600160e060020a03191660003660405180806020018281038252848482818152602001925080828437600083820152604051601f909101601f19169092018290039550909350505050a260035460408051808201909152600b815260008051602061661183398151915260208201529060ff1615613c115760405160e560020a62461bcd028152602060048201818152835160248401528351909283926044909101919085019080838360008315610949578181015183820152602001610931565b506003805460ff1916600117905560065460408051808201909152601181527f4552525f4e4f545f46494e414c495a454400000000000000000000000000000060208201529060ff16613ca85760405160e560020a62461bcd028152602060048201818152835160248401528351909283926044909101919085019080838360008315610949578181015183820152602001610931565b506000613cb3610f4c565b90506000613ccc83612710670de0b6b3a7640000611f1a565b90506000613cda8483615887565b90506000613ce8828561592b565b905080613cf457600080fd5b613cfe3386615e18565b600354613d19906101009004600160a060020a03168461547e565b613d2282615e22565b60005b600754811015613e0a57600060078281548110613d3e57fe5b6000918252602080832090910154600160a060020a03168083526008909152604082206003015490925090613d738583615b04565b600160a060020a038416600090815260086020526040902060030154909150613d9c9082615887565b600160a060020a0384166000818152600860209081526040918290206003019390935580518481529051919233927fe74c91552b64c2e2e7bd255639e004e693bd3e1d01cc33e65610b86afcc1ffed9281900390910190a3613dff833383615c48565b505050600101613d25565b50506003805460ff1916905550505050565b60035460408051808201909152600b8152600080516020616611833981519152602082015260609160ff1615613e965760405160e560020a62461bcd028152602060048201818152835160248401528351909283926044909101919085019080838360008315610949578181015183820152602001610931565b5060065460408051808201909152601181527f4552525f4e4f545f46494e414c495a454400000000000000000000000000000060208201529060ff16613f205760405160e560020a62461bcd028152602060048201818152835160248401528351909283926044909101919085019080838360008315610949578181015183820152602001610931565b506007805480602002602001604051908101604052809291908181526020018280548015613f7757602002820191906000526020600020905b8154600160a060020a03168152600190910190602001808311613f59575b5050505050905090565b600033600160a060020a0316600035600160e060020a031916600160e060020a03191660003660405180806020018281038252848482818152602001925080828437600083820152604051601f909101601f19169092018290039550909350505050a260035460408051808201909152600b815260008051602061661183398151915260208201529060ff161561405c5760405160e560020a62461bcd028152602060048201818152835160248401528351909283926044909101919085019080838360008315610949578181015183820152602001610931565b506003805460ff191660011790556140738261134f565b6040518060400160405280600d8152602001600080516020616671833981519152815250906140e65760405160e560020a62461bcd028152602060048201818152835160248401528351909283926044909101919085019080838360008315610949578181015183820152602001610931565b506140ef615451565b604051806040016040528060138152602001600080516020616631833981519152815250906141625760405160e560020a62461bcd028152602060048201818152835160248401528351909283926044909101919085019080838360008315610949578181015183820152602001610931565b50600160a060020a03821660009081526008602052604090206003810154600280830154905460095460055461419d94939291908990615fe3565b91506141ad816003015483615887565b600382015560006141c985612710670de0b6b3a7640000611f1a565b604080518581529051919250600160a060020a0386169133917fe74c91552b64c2e2e7bd255639e004e693bd3e1d01cc33e65610b86afcc1ffed919081900360200190a36142173386615e18565b6142246126c38683615887565b60035461423f906101009004600160a060020a03168261547e565b6126ee843385615c48565b60035460408051808201909152600b8152600080516020616611833981519152602082015260609160ff1615613f205760405160e560020a62461bcd028152602060048201818152835160248401528351909283926044909101919085019080838360008315610949578181015183820152602001610931565b60075490565b6040805160208082523690820181905260009283923392600160e060020a03198535169285929081908101848480828437600083820152604051601f909101601f19169092018290039550909350505050a260035460408051808201909152600b815260008051602061661183398151915260208201529060ff16156143945760405160e560020a62461bcd028152602060048201818152835160248401528351909283926044909101919085019080838360008315610949578181015183820152602001610931565b506003805460ff191660011790556143ab8761134f565b6040518060400160405280600d81526020016000805160206166718339815191528152509061441e5760405160e560020a62461bcd028152602060048201818152835160248401528351909283926044909101919085019080838360008315610949578181015183820152602001610931565b506144288561134f565b6040518060400160405280600d81526020016000805160206166718339815191528152509061449b5760405160e560020a62461bcd028152602060048201818152835160248401528351909283926044909101919085019080838360008315610949578181015183820152602001610931565b506144a4615451565b604051806040016040528060138152602001600080516020616631833981519152815250906145175760405160e560020a62461bcd028152602060048201818152835160248401528351909283926044909101919085019080838360008315610949578181015183820152602001610931565b50600160a060020a03808816600090815260086020526040808220928816825290206003820154614552906002670de0b6b3a7640000611f1a565b8811156040518060400160405280601081526020017f4552525f4d41585f494e5f524154494f00000000000000000000000000000000815250906145da5760405160e560020a62461bcd028152602060048201818152835160248401528351909283926044909101919085019080838360008315610949578181015183820152602001610931565b5060006145fc836003015484600201548460030154856002015460055461548c565b9050858111156040518060400160405280601381526020017f4552525f4241445f4c494d49545f505249434500000000000000000000000000815250906146875760405160e560020a62461bcd028152602060048201818152835160248401528351909283926044909101919085019080838360008315610949578181015183820152602001610931565b506146a883600301548460020154846003015485600201548d600554615edf565b9450868510156040518060400160405280600d81526020017f4552525f4c494d49545f4f555400000000000000000000000000000000000000815250906147335760405160e560020a62461bcd028152602060048201818152835160248401528351909283926044909101919085019080838360008315610949578181015183820152602001610931565b5061474283600301548a6155a9565b8360030181905550614758826003015486615887565b82600301819055506000614781846003015485600201548560030154866002015460055461548c565b9050818110156040518060400160405280600f81526020016000805160206166d1833981519152815250906147fa5760405160e560020a62461bcd028152602060048201818152835160248401528351909283926044909101919085019080838360008315610949578181015183820152602001610931565b5060408051808201909152600f81527f4552525f4c494d49545f505249434500000000000000000000000000000000006020820152878211156148815760405160e560020a62461bcd028152602060048201818152835160248401528351909283926044909101919085019080838360008315610949578181015183820152602001610931565b5061488c8a8761592b565b8211156040518060400160405280600f81526020016000805160206166d1833981519152815250906149025760405160e560020a62461bcd028152602060048201818152835160248401528351909283926044909101919085019080838360008315610949578181015183820152602001610931565b5088600160a060020a03168b600160a060020a031633600160a060020a03167f908fb5ee8f16c6bc9bc3690973819f32a4d4b10188134543c88706e0e1d433788d8a604051808381526020018281526020019250505060405180910390a461496b8b338c61563e565b613499893388615c48565b33600160a060020a0316600035600160e060020a031916600160e060020a03191660003660405180806020018281038252848482818152602001925080828437600083820152604051601f909101601f19169092018290039550909350505050a260035460408051808201909152600b815260008051602061661183398151915260208201529060ff1615614a4f5760405160e560020a62461bcd028152602060048201818152835160248401528351909283926044909101919085019080838360008315610949578181015183820152602001610931565b506003805460ff19166001179055600454604080518082019091526012815260008051602061665183398151915260208201529033600160a060020a0390911614614ade5760405160e560020a62461bcd028152602060048201818152835160248401528351909283926044909101919085019080838360008315610949578181015183820152602001610931565b50614ae88161134f565b6040518060400160405280600d815260200160008051602061667183398151915281525090614b5b5760405160e560020a62461bcd028152602060048201818152835160248401528351909283926044909101919085019080838360008315610949578181015183820152602001610931565b5060065460408051808201909152601081526000805160206166b183398151915260208201529060ff1615614bd45760405160e560020a62461bcd028152602060048201818152835160248401528351909283926044909101919085019080838360008315610949578181015183820152602001610931565b50600160a060020a03811660009081526008602052604081206003015490614c0782612710670de0b6b3a7640000611f1a565b600954600160a060020a038516600090815260086020526040902060020154919250614c3291615887565b600955600160a060020a03831660009081526008602052604090206001015460078054600019928301928101919082908110614c6a57fe5b60009182526020909120015460078054600160a060020a039092169184908110614c9057fe5b9060005260206000200160006101000a815481600160a060020a030219169083600160a060020a031602179055506007805480614cc957fe5b6001900381819060005260206000200160006101000a815490600160a060020a0302191690559055816008600060078581548110614d0357fe5b600091825260208083209190910154600160a060020a0390811684528382019490945260409283018220600190810195909555825160808101845282815280820183815281850184815260608301858152968d1685526008909352939092209151825460ff191690151517825591519381019390935551600283015551600390910155614d958533611f318787615887565b600354611f569086906101009004600160a060020a031685615c48565b60035460408051808201909152600b8152600080516020616611833981519152602082015260009160ff1615614e2c5760405160e560020a62461bcd028152602060048201818152835160248401528351909283926044909101919085019080838360008315610949578181015183820152602001610931565b505060055490565b33600090815260208181526040808320600160a060020a0386168452909152812054614e6090836155a9565b33600081815260208181526040808320600160a060020a038916808552908352928190208590558051948552519193600080516020616691833981519152929081900390910190a350600192915050565b600160a060020a0391821660009081526020818152604080832093909416825291909152205490565b33600160a060020a0316600035600160e060020a031916600160e060020a03191660003660405180806020018281038252848482818152602001925080828437600083820152604051601f909101601f19169092018290039550909350505050a26004546040805180820190915260128152600080516020616651833981519152602082015290600160a060020a03163314614fba5760405160e560020a62461bcd028152602060048201818152835160248401528351909283926044909101919085019080838360008315610949578181015183820152602001610931565b50614fc48361134f565b156040518060400160405280600c81526020017f4552525f49535f424f554e4400000000000000000000000000000000000000008152509061504a5760405160e560020a62461bcd028152602060048201818152835160248401528351909283926044909101919085019080838360008315610949578181015183820152602001610931565b506150536137ba565b156040518060400160405280601081526020016000805160206166b1833981519152815250906150c75760405160e560020a62461bcd028152602060048201818152835160248401528351909283926044909101919085019080838360008315610949578181015183820152602001610931565b5060075460408051808201909152600e81527f4552525f4d41585f544f4b454e530000000000000000000000000000000000006020820152906008116151515760405160e560020a62461bcd028152602060048201818152835160248401528351909283926044909101919085019080838360008315610949578181015183820152602001610931565b50604080516080810182526001808252600780546020808501918252600085870181815260608701828152600160a060020a038c1680845260089094529782209651875460ff1916901515178755925186860155915160028601559451600390940193909355805491820181559091527fa66cc928b5edb82af9bd49922954155ab7b0942694bea4ce44661d9a8736c68801805473ffffffffffffffffffffffffffffffffffffffff1916909117905561520c838383611916565b505050565b60035460408051808201909152600b8152600080516020616611833981519152602082015260009160ff161561528b5760405160e560020a62461bcd028152602060048201818152835160248401528351909283926044909101919085019080838360008315610949578181015183820152602001610931565b506152958261134f565b6040518060400160405280600d8152602001600080516020616671833981519152815250906153085760405160e560020a62461bcd028152602060048201818152835160248401528351909283926044909101919085019080838360008315610949578181015183820152602001610931565b50600160a060020a03821660009081526008602052604090206002015460095461533390829061592b565b9392505050565b60035460408051808201909152600b8152600080516020616611833981519152602082015260009160ff16156153b45760405160e560020a62461bcd028152602060048201818152835160248401528351909283926044909101919085019080838360008315610949578181015183820152602001610931565b506153be8261134f565b6040518060400160405280600d8152602001600080516020616671833981519152815250906154315760405160e560020a62461bcd028152602060048201818152835160248401528351909283926044909101919085019080838360008315610949578181015183820152602001610931565b5050600160a060020a031660009081526008602052604090206003015490565b60045474010000000000000000000000000000000000000000900460ff1690565b61547b81616095565b50565b615488828261610a565b5050565b600080615499878761592b565b905060006154a7868661592b565b905060006154b5838361592b565b905060006154dc670de0b6b3a76400006154d7670de0b6b3a764000089615887565b61592b565b90506154e88282615b04565b9a9950505050505050505050565b600080615503878661592b565b9050600061551187866155a9565b9050600061551f828961592b565b90506000615535670de0b6b3a76400008561592b565b905060006155438383616115565b90506000615551828e615b04565b9050600061555f828f615887565b9050600061557e615578670de0b6b3a76400008a615887565b8b615b04565b9050615596826154d7670de0b6b3a764000084615887565b9f9e505050505050505050505050505050565b60408051808201909152601081527f4552525f4144445f4f564552464c4f5700000000000000000000000000000000602082015260009083830190848210156156365760405160e560020a62461bcd028152602060048201818152835160248401528351909283926044909101919085019080838360008315610949578181015183820152602001610931565b509392505050565b604080517f23b872dd000000000000000000000000000000000000000000000000000000008152600160a060020a0384811660048301523060248301526044820184905291516000928616916323b872dd91606480830192602092919082900301818787803b1580156156b057600080fd5b505af11580156156c4573d6000803e3d6000fd5b505050506040513d60208110156156da57600080fd5b505160408051808201909152600f81527f4552525f45524332305f46414c534500000000000000000000000000000000006020820152909150816157625760405160e560020a62461bcd028152602060048201818152835160248401528351909283926044909101919085019080838360008315610949578181015183820152602001610931565b5050505050565b600160a060020a0383166000908152600160205260409020548111156157d9576040805160e560020a62461bcd02815260206004820152601460248201527f4552525f494e53554646494349454e545f42414c000000000000000000000000604482015290519081900360640190fd5b600160a060020a0383166000908152600160205260409020546157fc9082615887565b600160a060020a03808516600090815260016020526040808220939093559084168152205461582b90826155a9565b600160a060020a0380841660008181526001602090815260409182902094909455805185815290519193928716927fddf252ad1be2c89b69c2b068fc378daa952ba7f163c4a11628f55a4df523b3ef92918290030190a3505050565b60008060006158968585616299565b9150915080156040518060400160405280601181526020017f4552525f5355425f554e444552464c4f57000000000000000000000000000000815250906159215760405160e560020a62461bcd028152602060048201818152835160248401528351909283926044909101919085019080838360008315610949578181015183820152602001610931565b5090949350505050565b60408051808201909152600c81527f4552525f4449565f5a45524f00000000000000000000000000000000000000006020820152600090826159b15760405160e560020a62461bcd028152602060048201818152835160248401528351909283926044909101919085019080838360008315610949578181015183820152602001610931565b50670de0b6b3a764000083028315806159da5750670de0b6b3a76400008482816159d757fe5b04145b6040518060400160405280601081526020017f4552525f4449565f494e5445524e414c0000000000000000000000000000000081525090615a5f5760405160e560020a62461bcd028152602060048201818152835160248401528351909283926044909101919085019080838360008315610949578181015183820152602001610931565b5060408051808201909152601081527f4552525f4449565f494e5445524e414c0000000000000000000000000000000060208201526002840482019082821015615aed5760405160e560020a62461bcd028152602060048201818152835160248401528351909283926044909101919085019080838360008315610949578181015183820152602001610931565b506000848281615af957fe5b049695505050505050565b6000828202831580615b1e575082848281615b1b57fe5b04145b6040518060400160405280601081526020017f4552525f4d554c5f4f564552464c4f570000000000000000000000000000000081525090615ba35760405160e560020a62461bcd028152602060048201818152835160248401528351909283926044909101919085019080838360008315610949578181015183820152602001610931565b5060408051808201909152601081527f4552525f4d554c5f4f564552464c4f570000000000000000000000000000000060208201526706f05b59d3b2000082019082821015615c365760405160e560020a62461bcd028152602060048201818152835160248401528351909283926044909101919085019080838360008315610949578181015183820152602001610931565b506000670de0b6b3a764000082615af9565b604080517fa9059cbb000000000000000000000000000000000000000000000000000000008152600160a060020a03848116600483015260248201849052915160009286169163a9059cbb91604480830192602092919082900301818787803b1580156156b057600080fd5b600080615cc1878661592b565b90506000615ce0615cda670de0b6b3a764000084615887565b85615b04565b90506000615cff86615cfa670de0b6b3a764000085615887565b615b04565b90506000615d0d8b836155a9565b90506000615d1b828d61592b565b90506000615d298287616115565b90506000615d37828d615b04565b9050615d43818d615887565b9e9d5050505050505050505050505050565b600080615d62878661592b565b90506000615d78670de0b6b3a764000083615887565b90506000615d868286615b04565b90506000615da0876154d7670de0b6b3a764000085615887565b90506000615dae8c83615887565b90506000615dbc828e61592b565b90506000615dca8288616115565b90506000615dd8828e615b04565b90506000615de68e83615887565b9050615e03816154d7670de0b6b3a7640000612710815b04615887565b99505050505050505050509695505050505050565b61548882826162be565b61547b816162c9565b600080615e4484615cfa670de0b6b3a764000086615887565b90506000615e558a8a8a8a866163a5565b90506000615e678b8b8b8b868a615edf565b90506000615e8a615e788d856155a9565b8c615e838d86615887565b8c8a61548c565b90506000878211615ebe57615eb6848e615ea48f8d61592b565b615eae8e8e61592b565b868d8d616401565b905080615ec3565b506000805b50615ece84826155a9565b9d9c50505050505050505050505050565b600080615eec878661592b565b90506000615f02670de0b6b3a764000085615887565b9050615f0e8582615b04565b90506000615f208a6154d78c856155a9565b90506000615f2e8285616115565b90506000615f44670de0b6b3a764000083615887565b9050615f508a82615b04565b9c9b505050505050505050505050565b600080615f6d858861592b565b90506000615f7b8786615887565b90506000615f89888361592b565b90506000615f978285616115565b9050615fab81670de0b6b3a7640000615887565b9050615fbf670de0b6b3a764000087615887565b9450615fd4615fce8c83615b04565b8661592b565b9b9a5050505050505050505050565b600080615ff0878661592b565b9050600061600d85615cfa670de0b6b3a764000061271081615dfd565b9050600061601b8883615887565b90506000616029828a61592b565b9050600061604882616043670de0b6b3a76400008861592b565b616115565b90506000616056828e615b04565b905060006160648e83615887565b9050600061607d615578670de0b6b3a76400008a615887565b905061559682615cfa670de0b6b3a764000084615887565b306000908152600160205260409020546160af90826155a9565b306000908152600160205260409020556002546160cc90826155a9565b60025560408051828152905130916000917fddf252ad1be2c89b69c2b068fc378daa952ba7f163c4a11628f55a4df523b3ef9181900360200190a350565b615488308383615769565b600060018310156040518060400160405280601581526020017f4552525f42504f575f424153455f544f4f5f4c4f570000000000000000000000815250906161a15760405160e560020a62461bcd028152602060048201818152835160248401528351909283926044909101919085019080838360008315610949578181015183820152602001610931565b5060408051808201909152601681527f4552525f42504f575f424153455f544f4f5f48494748000000000000000000006020820152671bc16d674ec7ffff8411156162305760405160e560020a62461bcd028152602060048201818152835160248401528351909283926044909101919085019080838360008315610949578181015183820152602001610931565b50600061623c836164b2565b9050600061624a8483615887565b905060006162608661625b856164cd565b6164db565b905081616271579250610bcb915050565b600061628287846305f5e100616532565b905061628e8282615b04565b979650505050505050565b6000808284106162af57505080820360006162b7565b505081810360015b9250929050565b615488823083615769565b30600090815260016020526040902054811115616330576040805160e560020a62461bcd02815260206004820152601460248201527f4552525f494e53554646494349454e545f42414c000000000000000000000000604482015290519081900360640190fd5b3060009081526001602052604090205461634a9082615887565b306000908152600160205260409020556002546163679082615887565b60025560408051828152905160009130917fddf252ad1be2c89b69c2b068fc378daa952ba7f163c4a11628f55a4df523b3ef9181900360200190a350565b6000806163b687878787600061548c565b905060006163c4848361592b565b905060006163d6866154d7888b6155a9565b905060006163f56163e78484616115565b670de0b6b3a7640000615887565b90506154e8818b615b04565b600080616416670de0b6b3a764000084615887565b9050616422818a615b04565b90506000616430828a6155a9565b905061644081615cfa8789615887565b9050600061644e898961592b565b90506000616479616467670de0b6b3a764000088615887565b615cfa670de0b6b3a7640000856155a9565b9050600061649461648a888e615b04565b6154d78f8f6155a9565b905060006164a68a615cfa85856155a9565b9050615d43858261592b565b6000670de0b6b3a76400006164c6836164cd565b0292915050565b670de0b6b3a7640000900490565b600080600283066164f457670de0b6b3a76400006164f6565b835b90506002830492505b82156153335761650f8485615b04565b93506002830615616527576165248185615b04565b90505b6002830492506164ff565b600082818061654987670de0b6b3a7640000616299565b9092509050670de0b6b3a764000080600060015b888410616601576000670de0b6b3a7640000820290506000806165918a61658c85670de0b6b3a7640000615887565b616299565b915091506165a387615cfa848c615b04565b96506165af878461592b565b9650866165be57505050616601565b87156165c8579315935b80156165d2579315935b84156165e9576165e28688615887565b95506165f6565b6165f386886155a9565b95505b50505060010161655d565b5090999850505050505050505056fe4552525f5245454e5452590000000000000000000000000000000000000000004552525f535741505f4e4f545f5055424c4943000000000000000000000000004552525f4e4f545f434f4e54524f4c4c455200000000000000000000000000004552525f4e4f545f424f554e44000000000000000000000000000000000000008c5be1e5ebec7d5bd14f71427d1e84f3dd0314c0f7b2291e5b200ac8c7c3b9254552525f49535f46494e414c495a4544000000000000000000000000000000004552525f4d4154485f415050524f580000000000000000000000000000000000a265627a7a72315820809e3e30d1637af259dfa4f654c267135da3bd231e1797ae0e19fc300787aa6e64736f6c634300050c0032a265627a7a723158205de9d05c30954d6e1c8f852d027877fc130a2ad30ed25d271312af82135eaf1264736f6c634300050c0032",
  "source": "// This program is free software: you can redistribute it and/or modify\n// it under the terms of the GNU General Public License as published by\n// the Free Software Foundation, either version 3 of the License, or\n// (at your option) any later version.\n\n// This program is disstributed in the hope that it will be useful,\n// but WITHOUT ANY WARRANTY; without even the implied warranty of\n// MERCHANTABILITY or FITNESS FOR A PARTICULAR PURPOSE.  See the\n// GNU General Public License for more details.\n\n// You should have received a copy of the GNU General Public License\n// along with this program.  If not, see <http://www.gnu.org/licenses/>.\n\npragma solidity 0.5.12;\n\n// Builds new BPools, logging their addresses and providing `isBPool(address) -> (bool)`\n\nimport \"./BColor.sol\";\nimport \"./BPool.sol\";\n\ncontract BFactory is BBronze\n{\n    event LOG_NEW_POOL( address indexed caller\n                      , address indexed pool );\n\n    mapping(address=>bool) _isBPool;\n\n    function isBPool(address b)\n      external view returns (bool) {\n        return _isBPool[b];\n    }\n\n    function newBPool()\n      external returns (BPool)\n    {\n        BPool bpool = new BPool();\n        _isBPool[address(bpool)] = true;\n        emit LOG_NEW_POOL(msg.sender, address(bpool));\n        bpool.setController(msg.sender);\n        return bpool;\n    }\n\n    address _blabs;\n    constructor() public {\n        _blabs = msg.sender;\n    }\n    function getBLabs() external view returns (address) {\n        return _blabs;\n    }\n    function setBLabs(address b) external {\n        require(msg.sender == _blabs, \"ERR_NOT_BLABS\");\n        _blabs = b;\n    }\n    function collect(BPool pool)\n      external \n    {\n        require(msg.sender == _blabs, \"ERR_NOT_BLABS\");\n        uint collected = IERC20(pool).balanceOf(address(this));\n        bool xfer = pool.transfer(_blabs, collected);\n        require(xfer, \"ERR_ERC20_FAILED\");\n    }\n}\n",
  "sourcePath": "/Users/mike/Projects/balancer/balancer-exchange/lib/balancer-core/contracts/BFactory.sol",
  "compiler": {
    "name": "solc",
    "version": "0.5.12+commit.7709ece9.Emscripten.clang"
  },
  "schemaVersion": "3.0.16",
  "updatedAt": "2019-11-30T15:14:23.437Z",
  "devdoc": {
    "methods": {}
  },
  "userdoc": {
    "methods": {}
  }
}