{
    "contractName": "BPool",
    "abi": [
        {
            "inputs": [],
            "payable": false,
            "stateMutability": "nonpayable",
            "type": "constructor"
        },
        {
            "anonymous": false,
            "inputs": [
                {
                    "indexed": true,
                    "internalType": "address",
                    "name": "src",
                    "type": "address"
                },
                {
                    "indexed": true,
                    "internalType": "address",
                    "name": "dst",
                    "type": "address"
                },
                {
                    "indexed": false,
                    "internalType": "uint256",
                    "name": "amt",
                    "type": "uint256"
                }
            ],
            "name": "Approval",
            "type": "event"
        },
        {
            "anonymous": true,
            "inputs": [
                {
                    "indexed": true,
                    "internalType": "bytes4",
                    "name": "sig",
                    "type": "bytes4"
                },
                {
                    "indexed": true,
                    "internalType": "address",
                    "name": "caller",
                    "type": "address"
                },
                {
                    "indexed": false,
                    "internalType": "bytes",
                    "name": "data",
                    "type": "bytes"
                }
            ],
            "name": "LOG_CALL",
            "type": "event"
        },
        {
            "anonymous": false,
            "inputs": [
                {
                    "indexed": true,
                    "internalType": "address",
                    "name": "caller",
                    "type": "address"
                },
                {
                    "indexed": true,
                    "internalType": "address",
                    "name": "tokenOut",
                    "type": "address"
                },
                {
                    "indexed": false,
                    "internalType": "uint256",
                    "name": "tokenAmountOut",
                    "type": "uint256"
                }
            ],
            "name": "LOG_EXIT",
            "type": "event"
        },
        {
            "anonymous": false,
            "inputs": [
                {
                    "indexed": true,
                    "internalType": "address",
                    "name": "caller",
                    "type": "address"
                },
                {
                    "indexed": true,
                    "internalType": "address",
                    "name": "tokenIn",
                    "type": "address"
                },
                {
                    "indexed": false,
                    "internalType": "uint256",
                    "name": "tokenAmountIn",
                    "type": "uint256"
                }
            ],
            "name": "LOG_JOIN",
            "type": "event"
        },
        {
            "anonymous": false,
            "inputs": [
                {
                    "indexed": true,
                    "internalType": "address",
                    "name": "caller",
                    "type": "address"
                },
                {
                    "indexed": true,
                    "internalType": "address",
                    "name": "tokenIn",
                    "type": "address"
                },
                {
                    "indexed": true,
                    "internalType": "address",
                    "name": "tokenOut",
                    "type": "address"
                },
                {
                    "indexed": false,
                    "internalType": "uint256",
                    "name": "tokenAmountIn",
                    "type": "uint256"
                },
                {
                    "indexed": false,
                    "internalType": "uint256",
                    "name": "tokenAmountOut",
                    "type": "uint256"
                }
            ],
            "name": "LOG_SWAP",
            "type": "event"
        },
        {
            "anonymous": false,
            "inputs": [
                {
                    "indexed": true,
                    "internalType": "address",
                    "name": "src",
                    "type": "address"
                },
                {
                    "indexed": true,
                    "internalType": "address",
                    "name": "dst",
                    "type": "address"
                },
                {
                    "indexed": false,
                    "internalType": "uint256",
                    "name": "amt",
                    "type": "uint256"
                }
            ],
            "name": "Transfer",
            "type": "event"
        },
        {
            "constant": true,
            "inputs": [],
            "name": "BONE",
            "outputs": [
                {
                    "internalType": "uint256",
                    "name": "",
                    "type": "uint256"
                }
            ],
            "payable": false,
            "stateMutability": "view",
            "type": "function"
        },
        {
            "constant": true,
            "inputs": [],
            "name": "BPOW_PRECISION",
            "outputs": [
                {
                    "internalType": "uint256",
                    "name": "",
                    "type": "uint256"
                }
            ],
            "payable": false,
            "stateMutability": "view",
            "type": "function"
        },
        {
            "constant": true,
            "inputs": [],
            "name": "EXIT_FEE",
            "outputs": [
                {
                    "internalType": "uint256",
                    "name": "",
                    "type": "uint256"
                }
            ],
            "payable": false,
            "stateMutability": "view",
            "type": "function"
        },
        {
            "constant": true,
            "inputs": [],
            "name": "MAX_BALANCE",
            "outputs": [
                {
                    "internalType": "uint256",
                    "name": "",
                    "type": "uint256"
                }
            ],
            "payable": false,
            "stateMutability": "view",
            "type": "function"
        },
        {
            "constant": true,
            "inputs": [],
            "name": "MAX_BOUND_TOKENS",
            "outputs": [
                {
                    "internalType": "uint256",
                    "name": "",
                    "type": "uint256"
                }
            ],
            "payable": false,
            "stateMutability": "view",
            "type": "function"
        },
        {
            "constant": true,
            "inputs": [],
            "name": "MAX_BPOW_BASE",
            "outputs": [
                {
                    "internalType": "uint256",
                    "name": "",
                    "type": "uint256"
                }
            ],
            "payable": false,
            "stateMutability": "view",
            "type": "function"
        },
        {
            "constant": true,
            "inputs": [],
            "name": "MAX_FEE",
            "outputs": [
                {
                    "internalType": "uint256",
                    "name": "",
                    "type": "uint256"
                }
            ],
            "payable": false,
            "stateMutability": "view",
            "type": "function"
        },
        {
            "constant": true,
            "inputs": [],
            "name": "MAX_IN_RATIO",
            "outputs": [
                {
                    "internalType": "uint256",
                    "name": "",
                    "type": "uint256"
                }
            ],
            "payable": false,
            "stateMutability": "view",
            "type": "function"
        },
        {
            "constant": true,
            "inputs": [],
            "name": "MAX_OUT_RATIO",
            "outputs": [
                {
                    "internalType": "uint256",
                    "name": "",
                    "type": "uint256"
                }
            ],
            "payable": false,
            "stateMutability": "view",
            "type": "function"
        },
        {
            "constant": true,
            "inputs": [],
            "name": "MAX_TOTAL_WEIGHT",
            "outputs": [
                {
                    "internalType": "uint256",
                    "name": "",
                    "type": "uint256"
                }
            ],
            "payable": false,
            "stateMutability": "view",
            "type": "function"
        },
        {
            "constant": true,
            "inputs": [],
            "name": "MAX_WEIGHT",
            "outputs": [
                {
                    "internalType": "uint256",
                    "name": "",
                    "type": "uint256"
                }
            ],
            "payable": false,
            "stateMutability": "view",
            "type": "function"
        },
        {
            "constant": true,
            "inputs": [],
            "name": "MIN_BALANCE",
            "outputs": [
                {
                    "internalType": "uint256",
                    "name": "",
                    "type": "uint256"
                }
            ],
            "payable": false,
            "stateMutability": "view",
            "type": "function"
        },
        {
            "constant": true,
            "inputs": [],
            "name": "MIN_BPOW_BASE",
            "outputs": [
                {
                    "internalType": "uint256",
                    "name": "",
                    "type": "uint256"
                }
            ],
            "payable": false,
            "stateMutability": "view",
            "type": "function"
        },
        {
            "constant": true,
            "inputs": [],
            "name": "MIN_FEE",
            "outputs": [
                {
                    "internalType": "uint256",
                    "name": "",
                    "type": "uint256"
                }
            ],
            "payable": false,
            "stateMutability": "view",
            "type": "function"
        },
        {
            "constant": true,
            "inputs": [],
            "name": "MIN_POOL_SUPPLY",
            "outputs": [
                {
                    "internalType": "uint256",
                    "name": "",
                    "type": "uint256"
                }
            ],
            "payable": false,
            "stateMutability": "view",
            "type": "function"
        },
        {
            "constant": true,
            "inputs": [],
            "name": "MIN_WEIGHT",
            "outputs": [
                {
                    "internalType": "uint256",
                    "name": "",
                    "type": "uint256"
                }
            ],
            "payable": false,
            "stateMutability": "view",
            "type": "function"
        },
        {
            "constant": true,
            "inputs": [
                {
                    "internalType": "address",
                    "name": "src",
                    "type": "address"
                },
                {
                    "internalType": "address",
                    "name": "dst",
                    "type": "address"
                }
            ],
            "name": "allowance",
            "outputs": [
                {
                    "internalType": "uint256",
                    "name": "",
                    "type": "uint256"
                }
            ],
            "payable": false,
            "stateMutability": "view",
            "type": "function"
        },
        {
            "constant": false,
            "inputs": [
                {
                    "internalType": "address",
                    "name": "dst",
                    "type": "address"
                },
                {
                    "internalType": "uint256",
                    "name": "amt",
                    "type": "uint256"
                }
            ],
            "name": "approve",
            "outputs": [
                {
                    "internalType": "bool",
                    "name": "",
                    "type": "bool"
                }
            ],
            "payable": false,
            "stateMutability": "nonpayable",
            "type": "function"
        },
        {
            "constant": true,
            "inputs": [
                {
                    "internalType": "address",
                    "name": "whom",
                    "type": "address"
                }
            ],
            "name": "balanceOf",
            "outputs": [
                {
                    "internalType": "uint256",
                    "name": "",
                    "type": "uint256"
                }
            ],
            "payable": false,
            "stateMutability": "view",
            "type": "function"
        },
        {
            "constant": true,
            "inputs": [
                {
                    "internalType": "uint256",
                    "name": "tokenBalanceIn",
                    "type": "uint256"
                },
                {
                    "internalType": "uint256",
                    "name": "tokenWeightIn",
                    "type": "uint256"
                },
                {
                    "internalType": "uint256",
                    "name": "tokenBalanceOut",
                    "type": "uint256"
                },
                {
                    "internalType": "uint256",
                    "name": "tokenWeightOut",
                    "type": "uint256"
                },
                {
                    "internalType": "uint256",
                    "name": "tokenAmountOut",
                    "type": "uint256"
                },
                {
                    "internalType": "uint256",
                    "name": "swapFee",
                    "type": "uint256"
                }
            ],
            "name": "calcInGivenOut",
            "outputs": [
                {
                    "internalType": "uint256",
                    "name": "tokenAmountIn",
                    "type": "uint256"
                }
            ],
            "payable": false,
            "stateMutability": "pure",
            "type": "function"
        },
        {
            "constant": true,
            "inputs": [
                {
                    "internalType": "uint256",
                    "name": "tokenBalanceIn",
                    "type": "uint256"
                },
                {
                    "internalType": "uint256",
                    "name": "tokenWeightIn",
                    "type": "uint256"
                },
                {
                    "internalType": "uint256",
                    "name": "tokenBalanceOut",
                    "type": "uint256"
                },
                {
                    "internalType": "uint256",
                    "name": "tokenWeightOut",
                    "type": "uint256"
                },
                {
                    "internalType": "uint256",
                    "name": "tokenAmountIn",
                    "type": "uint256"
                },
                {
                    "internalType": "uint256",
                    "name": "swapFee",
                    "type": "uint256"
                }
            ],
            "name": "calcOutGivenIn",
            "outputs": [
                {
                    "internalType": "uint256",
                    "name": "tokenAmountOut",
                    "type": "uint256"
                }
            ],
            "payable": false,
            "stateMutability": "pure",
            "type": "function"
        },
        {
            "constant": true,
            "inputs": [
                {
                    "internalType": "uint256",
                    "name": "tokenBalanceOut",
                    "type": "uint256"
                },
                {
                    "internalType": "uint256",
                    "name": "tokenWeightOut",
                    "type": "uint256"
                },
                {
                    "internalType": "uint256",
                    "name": "poolSupply",
                    "type": "uint256"
                },
                {
                    "internalType": "uint256",
                    "name": "totalWeight",
                    "type": "uint256"
                },
                {
                    "internalType": "uint256",
                    "name": "tokenAmountOut",
                    "type": "uint256"
                },
                {
                    "internalType": "uint256",
                    "name": "swapFee",
                    "type": "uint256"
                }
            ],
            "name": "calcPoolInGivenSingleOut",
            "outputs": [
                {
                    "internalType": "uint256",
                    "name": "poolAmountIn",
                    "type": "uint256"
                }
            ],
            "payable": false,
            "stateMutability": "pure",
            "type": "function"
        },
        {
            "constant": true,
            "inputs": [
                {
                    "internalType": "uint256",
                    "name": "tokenBalanceIn",
                    "type": "uint256"
                },
                {
                    "internalType": "uint256",
                    "name": "tokenWeightIn",
                    "type": "uint256"
                },
                {
                    "internalType": "uint256",
                    "name": "poolSupply",
                    "type": "uint256"
                },
                {
                    "internalType": "uint256",
                    "name": "totalWeight",
                    "type": "uint256"
                },
                {
                    "internalType": "uint256",
                    "name": "tokenAmountIn",
                    "type": "uint256"
                },
                {
                    "internalType": "uint256",
                    "name": "swapFee",
                    "type": "uint256"
                }
            ],
            "name": "calcPoolOutGivenSingleIn",
            "outputs": [
                {
                    "internalType": "uint256",
                    "name": "poolAmountOut",
                    "type": "uint256"
                }
            ],
            "payable": false,
            "stateMutability": "pure",
            "type": "function"
        },
        {
            "constant": true,
            "inputs": [
                {
                    "internalType": "uint256",
                    "name": "tokenBalanceIn",
                    "type": "uint256"
                },
                {
                    "internalType": "uint256",
                    "name": "tokenWeightIn",
                    "type": "uint256"
                },
                {
                    "internalType": "uint256",
                    "name": "poolSupply",
                    "type": "uint256"
                },
                {
                    "internalType": "uint256",
                    "name": "totalWeight",
                    "type": "uint256"
                },
                {
                    "internalType": "uint256",
                    "name": "poolAmountOut",
                    "type": "uint256"
                },
                {
                    "internalType": "uint256",
                    "name": "swapFee",
                    "type": "uint256"
                }
            ],
            "name": "calcSingleInGivenPoolOut",
            "outputs": [
                {
                    "internalType": "uint256",
                    "name": "tokenAmountIn",
                    "type": "uint256"
                }
            ],
            "payable": false,
            "stateMutability": "pure",
            "type": "function"
        },
        {
            "constant": true,
            "inputs": [
                {
                    "internalType": "uint256",
                    "name": "tokenBalanceOut",
                    "type": "uint256"
                },
                {
                    "internalType": "uint256",
                    "name": "tokenWeightOut",
                    "type": "uint256"
                },
                {
                    "internalType": "uint256",
                    "name": "poolSupply",
                    "type": "uint256"
                },
                {
                    "internalType": "uint256",
                    "name": "totalWeight",
                    "type": "uint256"
                },
                {
                    "internalType": "uint256",
                    "name": "poolAmountIn",
                    "type": "uint256"
                },
                {
                    "internalType": "uint256",
                    "name": "swapFee",
                    "type": "uint256"
                }
            ],
            "name": "calcSingleOutGivenPoolIn",
            "outputs": [
                {
                    "internalType": "uint256",
                    "name": "tokenAmountOut",
                    "type": "uint256"
                }
            ],
            "payable": false,
            "stateMutability": "pure",
            "type": "function"
        },
        {
            "constant": true,
            "inputs": [
                {
                    "internalType": "uint256",
                    "name": "tokenBalanceIn",
                    "type": "uint256"
                },
                {
                    "internalType": "uint256",
                    "name": "tokenWeightIn",
                    "type": "uint256"
                },
                {
                    "internalType": "uint256",
                    "name": "tokenBalanceOut",
                    "type": "uint256"
                },
                {
                    "internalType": "uint256",
                    "name": "tokenWeightOut",
                    "type": "uint256"
                },
                {
                    "internalType": "uint256",
                    "name": "swapFee",
                    "type": "uint256"
                }
            ],
            "name": "calcSpotPrice",
            "outputs": [
                {
                    "internalType": "uint256",
                    "name": "spotPrice",
                    "type": "uint256"
                }
            ],
            "payable": false,
            "stateMutability": "pure",
            "type": "function"
        },
        {
            "constant": true,
            "inputs": [],
            "name": "decimals",
            "outputs": [
                {
                    "internalType": "uint8",
                    "name": "",
                    "type": "uint8"
                }
            ],
            "payable": false,
            "stateMutability": "view",
            "type": "function"
        },
        {
            "constant": false,
            "inputs": [
                {
                    "internalType": "address",
                    "name": "dst",
                    "type": "address"
                },
                {
                    "internalType": "uint256",
                    "name": "amt",
                    "type": "uint256"
                }
            ],
            "name": "decreaseApproval",
            "outputs": [
                {
                    "internalType": "bool",
                    "name": "",
                    "type": "bool"
                }
            ],
            "payable": false,
            "stateMutability": "nonpayable",
            "type": "function"
        },
        {
            "constant": true,
            "inputs": [],
            "name": "getColor",
            "outputs": [
                {
                    "internalType": "bytes32",
                    "name": "",
                    "type": "bytes32"
                }
            ],
            "payable": false,
            "stateMutability": "view",
            "type": "function"
        },
        {
            "constant": false,
            "inputs": [
                {
                    "internalType": "address",
                    "name": "dst",
                    "type": "address"
                },
                {
                    "internalType": "uint256",
                    "name": "amt",
                    "type": "uint256"
                }
            ],
            "name": "increaseApproval",
            "outputs": [
                {
                    "internalType": "bool",
                    "name": "",
                    "type": "bool"
                }
            ],
            "payable": false,
            "stateMutability": "nonpayable",
            "type": "function"
        },
        {
            "constant": true,
            "inputs": [],
            "name": "name",
            "outputs": [
                {
                    "internalType": "string",
                    "name": "",
                    "type": "string"
                }
            ],
            "payable": false,
            "stateMutability": "view",
            "type": "function"
        },
        {
            "constant": true,
            "inputs": [],
            "name": "symbol",
            "outputs": [
                {
                    "internalType": "string",
                    "name": "",
                    "type": "string"
                }
            ],
            "payable": false,
            "stateMutability": "view",
            "type": "function"
        },
        {
            "constant": true,
            "inputs": [],
            "name": "totalSupply",
            "outputs": [
                {
                    "internalType": "uint256",
                    "name": "",
                    "type": "uint256"
                }
            ],
            "payable": false,
            "stateMutability": "view",
            "type": "function"
        },
        {
            "constant": false,
            "inputs": [
                {
                    "internalType": "address",
                    "name": "dst",
                    "type": "address"
                },
                {
                    "internalType": "uint256",
                    "name": "amt",
                    "type": "uint256"
                }
            ],
            "name": "transfer",
            "outputs": [
                {
                    "internalType": "bool",
                    "name": "",
                    "type": "bool"
                }
            ],
            "payable": false,
            "stateMutability": "nonpayable",
            "type": "function"
        },
        {
            "constant": false,
            "inputs": [
                {
                    "internalType": "address",
                    "name": "src",
                    "type": "address"
                },
                {
                    "internalType": "address",
                    "name": "dst",
                    "type": "address"
                },
                {
                    "internalType": "uint256",
                    "name": "amt",
                    "type": "uint256"
                }
            ],
            "name": "transferFrom",
            "outputs": [
                {
                    "internalType": "bool",
                    "name": "",
                    "type": "bool"
                }
            ],
            "payable": false,
            "stateMutability": "nonpayable",
            "type": "function"
        },
        {
            "constant": true,
            "inputs": [],
            "name": "isPublicSwap",
            "outputs": [
                {
                    "internalType": "bool",
                    "name": "",
                    "type": "bool"
                }
            ],
            "payable": false,
            "stateMutability": "view",
            "type": "function"
        },
        {
            "constant": true,
            "inputs": [],
            "name": "isFinalized",
            "outputs": [
                {
                    "internalType": "bool",
                    "name": "",
                    "type": "bool"
                }
            ],
            "payable": false,
            "stateMutability": "view",
            "type": "function"
        },
        {
            "constant": true,
            "inputs": [
                {
                    "internalType": "address",
                    "name": "t",
                    "type": "address"
                }
            ],
            "name": "isBound",
            "outputs": [
                {
                    "internalType": "bool",
                    "name": "",
                    "type": "bool"
                }
            ],
            "payable": false,
            "stateMutability": "view",
            "type": "function"
        },
        {
            "constant": true,
            "inputs": [],
            "name": "getNumTokens",
            "outputs": [
                {
                    "internalType": "uint256",
                    "name": "",
                    "type": "uint256"
                }
            ],
            "payable": false,
            "stateMutability": "view",
            "type": "function"
        },
        {
            "constant": true,
            "inputs": [],
            "name": "getCurrentTokens",
            "outputs": [
                {
                    "internalType": "address[]",
                    "name": "tokens",
                    "type": "address[]"
                }
            ],
            "payable": false,
            "stateMutability": "view",
            "type": "function"
        },
        {
            "constant": true,
            "inputs": [],
            "name": "getFinalTokens",
            "outputs": [
                {
                    "internalType": "address[]",
                    "name": "tokens",
                    "type": "address[]"
                }
            ],
            "payable": false,
            "stateMutability": "view",
            "type": "function"
        },
        {
            "constant": true,
            "inputs": [
                {
                    "internalType": "address",
                    "name": "token",
                    "type": "address"
                }
            ],
            "name": "getDenormalizedWeight",
            "outputs": [
                {
                    "internalType": "uint256",
                    "name": "",
                    "type": "uint256"
                }
            ],
            "payable": false,
            "stateMutability": "view",
            "type": "function"
        },
        {
            "constant": true,
            "inputs": [],
            "name": "getTotalDenormalizedWeight",
            "outputs": [
                {
                    "internalType": "uint256",
                    "name": "",
                    "type": "uint256"
                }
            ],
            "payable": false,
            "stateMutability": "view",
            "type": "function"
        },
        {
            "constant": true,
            "inputs": [
                {
                    "internalType": "address",
                    "name": "token",
                    "type": "address"
                }
            ],
            "name": "getNormalizedWeight",
            "outputs": [
                {
                    "internalType": "uint256",
                    "name": "",
                    "type": "uint256"
                }
            ],
            "payable": false,
            "stateMutability": "view",
            "type": "function"
        },
        {
            "constant": true,
            "inputs": [
                {
                    "internalType": "address",
                    "name": "token",
                    "type": "address"
                }
            ],
            "name": "getBalance",
            "outputs": [
                {
                    "internalType": "uint256",
                    "name": "",
                    "type": "uint256"
                }
            ],
            "payable": false,
            "stateMutability": "view",
            "type": "function"
        },
        {
            "constant": true,
            "inputs": [],
            "name": "getSwapFee",
            "outputs": [
                {
                    "internalType": "uint256",
                    "name": "",
                    "type": "uint256"
                }
            ],
            "payable": false,
            "stateMutability": "view",
            "type": "function"
        },
        {
            "constant": true,
            "inputs": [],
            "name": "getController",
            "outputs": [
                {
                    "internalType": "address",
                    "name": "",
                    "type": "address"
                }
            ],
            "payable": false,
            "stateMutability": "view",
            "type": "function"
        },
        {
            "constant": false,
            "inputs": [
                {
                    "internalType": "uint256",
                    "name": "swapFee",
                    "type": "uint256"
                }
            ],
            "name": "setSwapFee",
            "outputs": [],
            "payable": false,
            "stateMutability": "nonpayable",
            "type": "function"
        },
        {
            "constant": false,
            "inputs": [
                {
                    "internalType": "address",
                    "name": "manager",
                    "type": "address"
                }
            ],
            "name": "setController",
            "outputs": [],
            "payable": false,
            "stateMutability": "nonpayable",
            "type": "function"
        },
        {
            "constant": false,
            "inputs": [
                {
                    "internalType": "bool",
                    "name": "public_",
                    "type": "bool"
                }
            ],
            "name": "setPublicSwap",
            "outputs": [],
            "payable": false,
            "stateMutability": "nonpayable",
            "type": "function"
        },
        {
            "constant": false,
            "inputs": [
                {
                    "internalType": "uint256",
                    "name": "initSupply",
                    "type": "uint256"
                }
            ],
            "name": "finalize",
            "outputs": [],
            "payable": false,
            "stateMutability": "nonpayable",
            "type": "function"
        },
        {
            "constant": false,
            "inputs": [
                {
                    "internalType": "address",
                    "name": "token",
                    "type": "address"
                },
                {
                    "internalType": "uint256",
                    "name": "balance",
                    "type": "uint256"
                },
                {
                    "internalType": "uint256",
                    "name": "denorm",
                    "type": "uint256"
                }
            ],
            "name": "bind",
            "outputs": [],
            "payable": false,
            "stateMutability": "nonpayable",
            "type": "function"
        },
        {
            "constant": false,
            "inputs": [
                {
                    "internalType": "address",
                    "name": "token",
                    "type": "address"
                },
                {
                    "internalType": "uint256",
                    "name": "balance",
                    "type": "uint256"
                },
                {
                    "internalType": "uint256",
                    "name": "denorm",
                    "type": "uint256"
                }
            ],
            "name": "rebind",
            "outputs": [],
            "payable": false,
            "stateMutability": "nonpayable",
            "type": "function"
        },
        {
            "constant": false,
            "inputs": [
                {
                    "internalType": "address",
                    "name": "token",
                    "type": "address"
                }
            ],
            "name": "unbind",
            "outputs": [],
            "payable": false,
            "stateMutability": "nonpayable",
            "type": "function"
        },
        {
            "constant": false,
            "inputs": [
                {
                    "internalType": "address",
                    "name": "token",
                    "type": "address"
                }
            ],
            "name": "gulp",
            "outputs": [],
            "payable": false,
            "stateMutability": "nonpayable",
            "type": "function"
        },
        {
            "constant": true,
            "inputs": [
                {
                    "internalType": "address",
                    "name": "tokenIn",
                    "type": "address"
                },
                {
                    "internalType": "address",
                    "name": "tokenOut",
                    "type": "address"
                }
            ],
            "name": "getSpotPrice",
            "outputs": [
                {
                    "internalType": "uint256",
                    "name": "spotPrice",
                    "type": "uint256"
                }
            ],
            "payable": false,
            "stateMutability": "view",
            "type": "function"
        },
        {
            "constant": true,
            "inputs": [
                {
                    "internalType": "address",
                    "name": "tokenIn",
                    "type": "address"
                },
                {
                    "internalType": "address",
                    "name": "tokenOut",
                    "type": "address"
                }
            ],
            "name": "getSpotPriceSansFee",
            "outputs": [
                {
                    "internalType": "uint256",
                    "name": "spotPrice",
                    "type": "uint256"
                }
            ],
            "payable": false,
            "stateMutability": "view",
            "type": "function"
        },
        {
            "constant": false,
            "inputs": [
                {
                    "internalType": "uint256",
                    "name": "poolAmountOut",
                    "type": "uint256"
                },
                {
                    "internalType": "uint256[]",
                    "name": "maxAmountsIn",
                    "type": "uint256[]"
                }
            ],
            "name": "joinPool",
            "outputs": [],
            "payable": false,
            "stateMutability": "nonpayable",
            "type": "function"
        },
        {
            "constant": false,
            "inputs": [
                {
                    "internalType": "uint256",
                    "name": "poolAmountIn",
                    "type": "uint256"
                },
                {
                    "internalType": "uint256[]",
                    "name": "minAmountsOut",
                    "type": "uint256[]"
                }
            ],
            "name": "exitPool",
            "outputs": [],
            "payable": false,
            "stateMutability": "nonpayable",
            "type": "function"
        },
        {
            "constant": false,
            "inputs": [
                {
                    "internalType": "address",
                    "name": "tokenIn",
                    "type": "address"
                },
                {
                    "internalType": "uint256",
                    "name": "tokenAmountIn",
                    "type": "uint256"
                },
                {
                    "internalType": "address",
                    "name": "tokenOut",
                    "type": "address"
                },
                {
                    "internalType": "uint256",
                    "name": "minAmountOut",
                    "type": "uint256"
                },
                {
                    "internalType": "uint256",
                    "name": "maxPrice",
                    "type": "uint256"
                }
            ],
            "name": "swapExactAmountIn",
            "outputs": [
                {
                    "internalType": "uint256",
                    "name": "tokenAmountOut",
                    "type": "uint256"
                },
                {
                    "internalType": "uint256",
                    "name": "spotPriceAfter",
                    "type": "uint256"
                }
            ],
            "payable": false,
            "stateMutability": "nonpayable",
            "type": "function"
        },
        {
            "constant": false,
            "inputs": [
                {
                    "internalType": "address",
                    "name": "tokenIn",
                    "type": "address"
                },
                {
                    "internalType": "uint256",
                    "name": "maxAmountIn",
                    "type": "uint256"
                },
                {
                    "internalType": "address",
                    "name": "tokenOut",
                    "type": "address"
                },
                {
                    "internalType": "uint256",
                    "name": "tokenAmountOut",
                    "type": "uint256"
                },
                {
                    "internalType": "uint256",
                    "name": "maxPrice",
                    "type": "uint256"
                }
            ],
            "name": "swapExactAmountOut",
            "outputs": [
                {
                    "internalType": "uint256",
                    "name": "tokenAmountIn",
                    "type": "uint256"
                },
                {
                    "internalType": "uint256",
                    "name": "spotPriceAfter",
                    "type": "uint256"
                }
            ],
            "payable": false,
            "stateMutability": "nonpayable",
            "type": "function"
        },
        {
            "constant": false,
            "inputs": [
                {
                    "internalType": "address",
                    "name": "tokenIn",
                    "type": "address"
                },
                {
                    "internalType": "uint256",
                    "name": "tokenAmountIn",
                    "type": "uint256"
                },
                {
                    "internalType": "uint256",
                    "name": "minPoolAmountOut",
                    "type": "uint256"
                }
            ],
            "name": "joinswapExternAmountIn",
            "outputs": [
                {
                    "internalType": "uint256",
                    "name": "poolAmountOut",
                    "type": "uint256"
                }
            ],
            "payable": false,
            "stateMutability": "nonpayable",
            "type": "function"
        },
        {
            "constant": false,
            "inputs": [
                {
                    "internalType": "uint256",
                    "name": "poolAmountOut",
                    "type": "uint256"
                },
                {
                    "internalType": "address",
                    "name": "tokenIn",
                    "type": "address"
                },
                {
                    "internalType": "uint256",
                    "name": "maxAmountIn",
                    "type": "uint256"
                }
            ],
            "name": "joinswapPoolAmountOut",
            "outputs": [
                {
                    "internalType": "uint256",
                    "name": "tokenAmountIn",
                    "type": "uint256"
                }
            ],
            "payable": false,
            "stateMutability": "nonpayable",
            "type": "function"
        },
        {
            "constant": false,
            "inputs": [
                {
                    "internalType": "uint256",
                    "name": "poolAmountIn",
                    "type": "uint256"
                },
                {
                    "internalType": "address",
                    "name": "tokenOut",
                    "type": "address"
                },
                {
                    "internalType": "uint256",
                    "name": "minAmountOut",
                    "type": "uint256"
                }
            ],
            "name": "exitswapPoolAmountIn",
            "outputs": [
                {
                    "internalType": "uint256",
                    "name": "tokenAmountOut",
                    "type": "uint256"
                }
            ],
            "payable": false,
            "stateMutability": "nonpayable",
            "type": "function"
        },
        {
            "constant": false,
            "inputs": [
                {
                    "internalType": "address",
                    "name": "tokenOut",
                    "type": "address"
                },
                {
                    "internalType": "uint256",
                    "name": "tokenAmountOut",
                    "type": "uint256"
                },
                {
                    "internalType": "uint256",
                    "name": "maxPoolAmountIn",
                    "type": "uint256"
                }
            ],
            "name": "exitswapExternAmountOut",
            "outputs": [
                {
                    "internalType": "uint256",
                    "name": "poolAmountIn",
                    "type": "uint256"
                }
            ],
            "payable": false,
            "stateMutability": "nonpayable",
            "type": "function"
        }
    ],
    "bytecode": "0x60c0604052601360808190527f42616c616e63657220506f6f6c20546f6b656e0000000000000000000000000060a0908152620000409160039190620000f7565b506040805180820190915260038082527f425054000000000000000000000000000000000000000000000000000000000060209092019182526200008791600491620000f7565b506005805460ff19166012179055348015620000a257600080fd5b5060068054600580546201000060b060020a031916336201000081029190911790915564e8d4a51000600755600160a060020a03199091161760a060020a60ff02191690556008805460ff191690556200019c565b828054600181600116156101000203166002900490600052602060002090601f016020900481019282601f106200013a57805160ff19168380011785556200016a565b828001600101855582156200016a579182015b828111156200016a5782518255916020019190600101906200014d565b50620001789291506200017c565b5090565b6200019991905b8082111562000178576000815560010162000183565b90565b61570e80620001ac6000396000f3fe608060405234801561001057600080fd5b50600436106103f8576000357c0100000000000000000000000000000000000000000000000000000000900480638d4e408311610227578063c36596a611610142578063def92c69116100d5578063ec093021116100a4578063ec09302114610c98578063f1b8a9b714610ca0578063f8b2cb4f14610cc6578063f8d6aed414610cec578063fde924f714610d27576103f8565b8063def92c6914610c2c578063e4a28a521461051d578063e4e1e53814610c34578063eaa0c25214610c66576103f8565b8063cf5e7bd311610111578063cf5e7bd314610ba4578063d4cadf6814610bca578063d73dd62314610bd2578063dd62ed3e14610bfe576103f8565b8063c36596a614610591578063c6580d1214610b8c578063cc77828d14610b94578063cd2ed8fb14610b9c576103f8565b8063a9059cbb116101ba578063ba9530a611610189578063ba9530a614610ae9578063bc063e1a14610b24578063bc694ea214610b2c578063be3bbd2e14610b34576103f8565b8063a9059cbb14610a36578063b02f0b7314610a62578063b0e0d13614610ad9578063ba019dab14610ae1576103f8565b806395d89b41116101f657806395d89b41146109e9578063992e2a92146109f15780639a86139b146109f9578063a221ee4914610a01576103f8565b80638d4e40831461098d57806392eefe9b14610995578063936c3477146109bb578063948d8ce6146109c3576103f8565b80633fdddaa2116103175780637c5e9ea4116102aa5780638656b653116102795780638656b653146108e9578063867378c514610924578063892980121461092c5780638c28cbe814610967576103f8565b80637c5e9ea4146108155780637e88781c146105915780638201aa3f1461086e57806382f652ad146108ae576103f8565b80635db34277116102e65780635db342771461078957806366188463146107bb57806370a08231146107e757806376c7a3c71461080d576103f8565b80633fdddaa21461068657806349b59552146106b85780634f69c0d4146106d75780635c1bbaf71461074e576103f8565b8063189d00ca1161038f5780632f37b6241161035e5780632f37b624146106015780633018205f14610627578063313ce5671461064b57806334e1990714610669576103f8565b8063189d00ca14610589578063218b53821461059157806323b872dd14610599578063292bcb87146105cf576103f8565b806309a3bbe4116103cb57806309a3bbe41461051d5780631446a7ff1461052557806315e84af91461055357806318160ddd14610581576103f8565b806302c96748146103fd57806305261aea1461044157806306fdde0314610460578063095ea7b3146104dd575b600080fd5b61042f6004803603606081101561041357600080fd5b50600160a060020a038135169060208101359060400135610d2f565b60408051918252519081900360200190f35b61045e6004803603602081101561045757600080fd5b5035610fe5565b005b6104686111f0565b6040805160208082528351818301528351919283929083019185019080838360005b838110156104a257818101518382015260200161048a565b50505050905090810190601f1680156104cf5780820380516001836020036101000a031916815260200191505b509250505060405180910390f35b610509600480360360408110156104f357600080fd5b50600160a060020a038135169060200135611286565b604080519115158252519081900360200190f35b61042f6112db565b61042f6004803603604081101561053b57600080fd5b50600160a060020a03813581169160200135166112e8565b61042f6004803603604081101561056957600080fd5b50600160a060020a0381358116916020013516611442565b61042f611593565b61042f611599565b61042f6115ad565b610509600480360360608110156105af57600080fd5b50600160a060020a038135811691602081013590911690604001356115b9565b61042f600480360360608110156105e557600080fd5b50803590600160a060020a03602082013516906040013561171e565b6105096004803603602081101561061757600080fd5b5035600160a060020a03166119b9565b61062f6119d7565b60408051600160a060020a039092168252519081900360200190f35b610653611a38565b6040805160ff9092168252519081900360200190f35b61045e6004803603602081101561067f57600080fd5b5035611a41565b61045e6004803603606081101561069c57600080fd5b50600160a060020a038135169060208101359060400135611c65565b61045e600480360360208110156106ce57600080fd5b50351515612120565b61045e600480360360408110156106ed57600080fd5b8135919081019060408101602082013564010000000081111561070f57600080fd5b82018360208201111561072157600080fd5b8035906020019184602083028401116401000000008311171561074357600080fd5b5090925090506122b1565b61042f600480360360c081101561076457600080fd5b5080359060208101359060408101359060608101359060808101359060a00135612579565b61042f6004803603606081101561079f57600080fd5b50600160a060020a038135169060208101359060400135612631565b610509600480360360408110156107d157600080fd5b50600160a060020a0381351690602001356128a4565b61042f600480360360208110156107fd57600080fd5b5035600160a060020a031661297c565b61042f612997565b610855600480360360a081101561082b57600080fd5b50600160a060020a03813581169160208101359160408201351690606081013590608001356129a9565b6040805192835260208301919091528051918290030190f35b610855600480360360a081101561088457600080fd5b50600160a060020a0381358116916020810135916040820135169060608101359060800135612e98565b61042f600480360360c08110156108c457600080fd5b5080359060208101359060408101359060608101359060808101359060a0013561336f565b61042f600480360360c08110156108ff57600080fd5b5080359060208101359060408101359060608101359060808101359060a00135613432565b61042f6134d3565b61042f600480360360c081101561094257600080fd5b5080359060208101359060408101359060608101359060808101359060a001356134e7565b61045e6004803603602081101561097d57600080fd5b5035600160a060020a0316613599565b61050961376a565b61045e600480360360208110156109ab57600080fd5b5035600160a060020a0316613773565b61042f6138bd565b61042f600480360360208110156109d957600080fd5b5035600160a060020a0316613915565b6104686139e3565b61042f613a44565b61042f613a50565b61042f600480360360a0811015610a1757600080fd5b5080359060208101359060408101359060608101359060800135613a74565b61050960048036036040811015610a4c57600080fd5b50600160a060020a038135169060200135613ad9565b61045e60048036036040811015610a7857600080fd5b81359190810190604081016020820135640100000000811115610a9a57600080fd5b820183602082011115610aac57600080fd5b80359060200191846020830284011164010000000083111715610ace57600080fd5b509092509050613aef565b61042f613e0e565b61042f613e13565b61042f600480360360c0811015610aff57600080fd5b5080359060208101359060408101359060608101359060808101359060a00135613e18565b61042f613e99565b61042f613ea9565b610b3c613eb5565b60408051602080825283518183015283519192839290830191858101910280838360005b83811015610b78578181015183820152602001610b60565b505050509050019250505060405180910390f35b61042f613fbf565b610b3c613fd0565b61042f614021565b61045e60048036036020811015610bba57600080fd5b5035600160a060020a0316614027565b61042f6143bf565b61050960048036036040811015610be857600080fd5b50600160a060020a038135169060200135614417565b61042f60048036036040811015610c1457600080fd5b50600160a060020a0381358116916020013516614498565b61042f6144c3565b61045e60048036036060811015610c4a57600080fd5b50600160a060020a0381351690602081013590604001356144d4565b61042f60048036036060811015610c7c57600080fd5b50803590600160a060020a036020820135169060400135614758565b61042f6149b8565b61042f60048036036020811015610cb657600080fd5b5035600160a060020a03166149c8565b61042f60048036036020811015610cdc57600080fd5b5035600160a060020a0316614aa8565b61042f600480360360c0811015610d0257600080fd5b5080359060208101359060408101359060608101359060808101359060a00135614b76565b610509614bf9565b600033600160a060020a0316600035600160e060020a031916600160e060020a03191660003660405180806020018281038252848482818152602001925080828437600083820152604051601f909101601f19169092018290039550909350505050a2600554610100900460ff1615610de0576040805160e560020a62461bcd02815260206004820152600b60248201526000805160206155ba833981519152604482015290519081900360640190fd5b6005805461ff001916610100179055600160a060020a0384166000908152600a602052604090205460ff16610e4d576040805160e560020a62461bcd02815260206004820152600d602482015260008051602061563a833981519152604482015290519081900360640190fd5b60065460a060020a900460ff16610e9c576040805160e560020a62461bcd02815260206004820152601360248201526000805160206155fa833981519152604482015290519081900360640190fd5b600160a060020a0384166000908152600a6020526040902060038101546002808301549054600b54600754610ed69493929190899061336f565b915082821115610f1e576040805160e560020a62461bcd02815260206004820152600c60248201526000805160206155da833981519152604482015290519081900360640190fd5b610f2c816003015485614c09565b60038201556000610f4a83612710670de0b6b3a76400005b04614c7a565b604080518781529051919250600160a060020a0388169133917fe74c91552b64c2e2e7bd255639e004e693bd3e1d01cc33e65610b86afcc1ffed919081900360200190a3610f983384614d63565b610faa610fa58483614c09565b614d71565b600554610fc690620100009004600160a060020a031682614d7d565b610fd1863387614d87565b50506005805461ff00191690559392505050565b33600160a060020a0316600035600160e060020a031916600160e060020a03191660003660405180806020018281038252848482818152602001925080828437600083820152604051601f909101601f19169092018290039550909350505050a2600554610100900460ff1615611094576040805160e560020a62461bcd02815260206004820152600b60248201526000805160206155ba833981519152604482015290519081900360640190fd5b6005805461ff00191661010017905560065433600160a060020a03909116146110f5576040805160e560020a62461bcd028152602060048201526012602482015260008051602061561a833981519152604482015290519081900360640190fd5b60085460ff161561113e576040805160e560020a62461bcd028152602060048201526010602482015260008051602061567a833981519152604482015290519081900360640190fd5b670de0b6b3a764000081101561119e576040805160e560020a62461bcd02815260206004820152601360248201527f4552525f4d494e5f504f4f4c5f535550504c5900000000000000000000000000604482015290519081900360640190fd5b6008805460ff191660011790556006805474ff0000000000000000000000000000000000000000191660a060020a1790556111d881614e7c565b6111e23382614d7d565b506005805461ff0019169055565b60038054604080516020601f600260001961010060018816150201909516949094049384018190048102820181019092528281526060939092909183018282801561127c5780601f106112515761010080835404028352916020019161127c565b820191906000526020600020905b81548152906001019060200180831161125f57829003601f168201915b5050505050905090565b336000818152600160209081526040808320600160a060020a0387168085529083528184208690558151868152915193949093909260008051602061565a833981519152928290030190a35060015b92915050565b6802b5e3af16b188000081565b600554600090610100900460ff1615611339576040805160e560020a62461bcd02815260206004820152600b60248201526000805160206155ba833981519152604482015290519081900360640190fd5b600160a060020a0383166000908152600a602052604090205460ff16611397576040805160e560020a62461bcd02815260206004820152600d602482015260008051602061563a833981519152604482015290519081900360640190fd5b600160a060020a0382166000908152600a602052604090205460ff166113f5576040805160e560020a62461bcd02815260206004820152600d602482015260008051602061563a833981519152604482015290519081900360640190fd5b600160a060020a038084166000908152600a602052604080822092851682528120600380840154600280860154928401549084015493946114399492939290613a74565b95945050505050565b600554600090610100900460ff1615611493576040805160e560020a62461bcd02815260206004820152600b60248201526000805160206155ba833981519152604482015290519081900360640190fd5b600160a060020a0383166000908152600a602052604090205460ff166114f1576040805160e560020a62461bcd02815260206004820152600d602482015260008051602061563a833981519152604482015290519081900360640190fd5b600160a060020a0382166000908152600a602052604090205460ff1661154f576040805160e560020a62461bcd02815260206004820152600d602482015260008051602061563a833981519152604482015290519081900360640190fd5b600160a060020a038084166000908152600a602052604080822092851682529020600380830154600280850154928401549084015460075461143994929190613a74565b60025490565b6402540be400670de0b6b3a76400005b0481565b670de0b6b3a764000081565b600033600160a060020a03851614806115f55750600160a060020a03841660009081526001602090815260408083203384529091529020548211155b611649576040805160e560020a62461bcd02815260206004820152601560248201527f4552525f42544f4b454e5f4241445f43414c4c45520000000000000000000000604482015290519081900360640190fd5b611654848484614e85565b33600160a060020a038516148015906116925750600160a060020a038416600090815260016020908152604080832033845290915290205460001914155b1561171457600160a060020a03841660009081526001602090815260408083203384529091529020546116c59083614c09565b600160a060020a038581166000908152600160209081526040808320338085529083529281902085905580519485525192871693919260008051602061565a8339815191529281900390910190a35b5060019392505050565b600033600160a060020a0316600035600160e060020a031916600160e060020a03191660003660405180806020018281038252848482818152602001925080828437600083820152604051601f909101601f19169092018290039550909350505050a2600554610100900460ff16156117cf576040805160e560020a62461bcd02815260206004820152600b60248201526000805160206155ba833981519152604482015290519081900360640190fd5b6005805461ff001916610100179055600160a060020a0383166000908152600a602052604090205460ff1661183c576040805160e560020a62461bcd02815260206004820152600d602482015260008051602061563a833981519152604482015290519081900360640190fd5b60065460a060020a900460ff1661188b576040805160e560020a62461bcd02815260206004820152601360248201526000805160206155fa833981519152604482015290519081900360640190fd5b600160a060020a0383166000908152600a6020526040902060038101546002808301549054600b546007546118c594939291908a906134e7565b91508282101561190d576040805160e560020a62461bcd02815260206004820152600d602482015260008051602061569a833981519152604482015290519081900360640190fd5b61191b816003015483614c09565b6003820155600061193786612710670de0b6b3a7640000610f44565b604080518581529051919250600160a060020a0387169133917fe74c91552b64c2e2e7bd255639e004e693bd3e1d01cc33e65610b86afcc1ffed919081900360200190a36119853387614d63565b611992610fa58783614c09565b6005546119ae90620100009004600160a060020a031682614d7d565b610fd1853385614d87565b600160a060020a03166000908152600a602052604090205460ff1690565b600554600090610100900460ff1615611a28576040805160e560020a62461bcd02815260206004820152600b60248201526000805160206155ba833981519152604482015290519081900360640190fd5b50600654600160a060020a031690565b60055460ff1690565b33600160a060020a0316600035600160e060020a031916600160e060020a03191660003660405180806020018281038252848482818152602001925080828437600083820152604051601f909101601f19169092018290039550909350505050a2600554610100900460ff1615611af0576040805160e560020a62461bcd02815260206004820152600b60248201526000805160206155ba833981519152604482015290519081900360640190fd5b6005805461ff00191661010017905560085460ff1615611b48576040805160e560020a62461bcd028152602060048201526010602482015260008051602061567a833981519152604482015290519081900360640190fd5b600654600160a060020a03163314611b98576040805160e560020a62461bcd028152602060048201526012602482015260008051602061561a833981519152604482015290519081900360640190fd5b64e8d4a51000811015611bf5576040805160e560020a62461bcd02815260206004820152600b60248201527f4552525f4d494e5f464545000000000000000000000000000000000000000000604482015290519081900360640190fd5b67016345785d8a0000811115611c55576040805160e560020a62461bcd02815260206004820152600b60248201527f4552525f4d41585f464545000000000000000000000000000000000000000000604482015290519081900360640190fd5b6007556005805461ff0019169055565b33600160a060020a0316600035600160e060020a031916600160e060020a03191660003660405180806020018281038252848482818152602001925080828437600083820152604051601f909101601f19169092018290039550909350505050a2600554610100900460ff1615611d14576040805160e560020a62461bcd02815260206004820152600b60248201526000805160206155ba833981519152604482015290519081900360640190fd5b6005805461ff00191661010017905560065433600160a060020a0390911614611d75576040805160e560020a62461bcd028152602060048201526012602482015260008051602061561a833981519152604482015290519081900360640190fd5b600160a060020a0383166000908152600a602052604090205460ff16611dd3576040805160e560020a62461bcd02815260206004820152600d602482015260008051602061563a833981519152604482015290519081900360640190fd5b60085460ff1615611e1c576040805160e560020a62461bcd028152602060048201526010602482015260008051602061567a833981519152604482015290519081900360640190fd5b670de0b6b3a7640000811015611e7c576040805160e560020a62461bcd02815260206004820152600e60248201527f4552525f4d494e5f574549474854000000000000000000000000000000000000604482015290519081900360640190fd5b6802b5e3af16b1880000811115611edd576040805160e560020a62461bcd02815260206004820152600e60248201527f4552525f4d41585f574549474854000000000000000000000000000000000000604482015290519081900360640190fd5b620f4240821015611f38576040805160e560020a62461bcd02815260206004820152600f60248201527f4552525f4d494e5f42414c414e43450000000000000000000000000000000000604482015290519081900360640190fd5b6c0c9f2c9cd04674edea40000000821115611f9d576040805160e560020a62461bcd02815260206004820152600f60248201527f4552525f4d41585f42414c414e43450000000000000000000000000000000000604482015290519081900360640190fd5b600160a060020a0383166000908152600a60205260409020600201548082111561204057611fd6600b54611fd18484614c09565b614fa1565b600b8190556802b5e3af16b1880000101561203b576040805160e560020a62461bcd02815260206004820152601460248201527f4552525f4d41585f544f54414c5f574549474854000000000000000000000000604482015290519081900360640190fd5b612061565b808210156120615761205d600b546120588385614c09565b614c09565b600b555b600160a060020a0384166000908152600a6020526040902060028101839055600301805490849055808411156120aa576120a585336120a08785614c09565b614ffe565b61210e565b8084101561210e5760006120be8286614c09565b905060006120d782612710670de0b6b3a7640000610f44565b90506120ed87336120e88585614c09565b614d87565b60055461210b908890620100009004600160a060020a031683614d87565b50505b50506005805461ff0019169055505050565b33600160a060020a0316600035600160e060020a031916600160e060020a03191660003660405180806020018281038252848482818152602001925080828437600083820152604051601f909101601f19169092018290039550909350505050a2600554610100900460ff16156121cf576040805160e560020a62461bcd02815260206004820152600b60248201526000805160206155ba833981519152604482015290519081900360640190fd5b6005805461ff00191661010017905560085460ff1615612227576040805160e560020a62461bcd028152602060048201526010602482015260008051602061567a833981519152604482015290519081900360640190fd5b600654600160a060020a03163314612277576040805160e560020a62461bcd028152602060048201526012602482015260008051602061561a833981519152604482015290519081900360640190fd5b6006805491151560a060020a0274ff0000000000000000000000000000000000000000199092169190911790556005805461ff0019169055565b33600160a060020a0316600035600160e060020a031916600160e060020a03191660003660405180806020018281038252848482818152602001925080828437600083820152604051601f909101601f19169092018290039550909350505050a2600554610100900460ff1615612360576040805160e560020a62461bcd02815260206004820152600b60248201526000805160206155ba833981519152604482015290519081900360640190fd5b6005805461ff00191661010017905560085460ff166123c9576040805160e560020a62461bcd02815260206004820152601160248201527f4552525f4e4f545f46494e414c495a4544000000000000000000000000000000604482015290519081900360640190fd5b60006123d3611593565b905060006123e18583615070565b905080612426576040805160e560020a62461bcd02815260206004820152600f60248201526000805160206156ba833981519152604482015290519081900360640190fd5b60005b6009548110156125655760006009828154811061244257fe5b6000918252602080832090910154600160a060020a0316808352600a9091526040822060030154909250906124778583614c7a565b905087878581811061248557fe5b905060200201358111156124d1576040805160e560020a62461bcd02815260206004820152600c60248201526000805160206155da833981519152604482015290519081900360640190fd5b600160a060020a0383166000908152600a60205260409020600301546124f79082614fa1565b600160a060020a0384166000818152600a60209081526040918290206003019390935580518481529051919233927f63982df10efd8dfaaaa0fcc7f50b2d93b7cba26ccc48adee2873220d485dc39a9281900390910190a361255a833383614ffe565b505050600101612429565b5061256f85614e7c565b61210e3386614d7d565b6000806125868786615070565b905060006125948786614fa1565b905060006125a28289615070565b905060006125b8670de0b6b3a764000085615070565b905060006125c683836151ac565b905060006125d4828e614c7a565b905060006125e2828f614c09565b905060006126016125fb670de0b6b3a76400008a614c09565b8b614c7a565b905061261e82612619670de0b6b3a764000084614c09565b615070565b9f9e505050505050505050505050505050565b600033600160a060020a0316600035600160e060020a031916600160e060020a03191660003660405180806020018281038252848482818152602001925080828437600083820152604051601f909101601f19169092018290039550909350505050a2600554610100900460ff16156126e2576040805160e560020a62461bcd02815260206004820152600b60248201526000805160206155ba833981519152604482015290519081900360640190fd5b6005805461ff001916610100179055600160a060020a0384166000908152600a602052604090205460ff1661274f576040805160e560020a62461bcd02815260206004820152600d602482015260008051602061563a833981519152604482015290519081900360640190fd5b60065460a060020a900460ff1661279e576040805160e560020a62461bcd02815260206004820152601360248201526000805160206155fa833981519152604482015290519081900360640190fd5b600160a060020a0384166000908152600a6020526040902060038101546002808301549054600b546007546127d894939291908990613432565b915082821015612820576040805160e560020a62461bcd02815260206004820152600d602482015260008051602061569a833981519152604482015290519081900360640190fd5b61282e816003015485614fa1565b6003820155604080518581529051600160a060020a0387169133917f63982df10efd8dfaaaa0fcc7f50b2d93b7cba26ccc48adee2873220d485dc39a9181900360200190a361287c82614e7c565b6128863383614d7d565b612891853386614ffe565b506005805461ff00191690559392505050565b336000908152600160209081526040808320600160a060020a0386168452909152812054808311156128f957336000908152600160209081526040808320600160a060020a0388168452909152812055612928565b6129038184614c09565b336000908152600160209081526040808320600160a060020a03891684529091529020555b336000818152600160209081526040808320600160a060020a03891680855290835292819020548151908152905192939260008051602061565a833981519152929181900390910190a35060019392505050565b600160a060020a031660009081526020819052604090205490565b620f4240670de0b6b3a76400006115a9565b6040805160208082523690820181905260009283923392600160e060020a03198535169285929081908101848480828437600083820152604051601f909101601f19169092018290039550909350505050a2600554610100900460ff1615612a49576040805160e560020a62461bcd02815260206004820152600b60248201526000805160206155ba833981519152604482015290519081900360640190fd5b6005805461ff001916610100179055600160a060020a0387166000908152600a602052604090205460ff16612ab6576040805160e560020a62461bcd02815260206004820152600d602482015260008051602061563a833981519152604482015290519081900360640190fd5b600160a060020a0385166000908152600a602052604090205460ff16612b14576040805160e560020a62461bcd02815260206004820152600d602482015260008051602061563a833981519152604482015290519081900360640190fd5b60065460a060020a900460ff16612b63576040805160e560020a62461bcd02815260206004820152601360248201526000805160206155fa833981519152604482015290519081900360640190fd5b600160a060020a038781166000908152600a6020526040808220928816825290206003810154612b9b906704a03ce68d215556614c7a565b861115612bf2576040805160e560020a62461bcd02815260206004820152601160248201527f4552525f4d41585f4f55545f524154494f000000000000000000000000000000604482015290519081900360640190fd5b6000612c138360030154846002015484600301548560020154600754613a74565b905085811115612c6d576040805160e560020a62461bcd02815260206004820152601360248201527f4552525f4241445f4c494d49545f505249434500000000000000000000000000604482015290519081900360640190fd5b612c8d83600301548460020154846003015485600201548b600754614b76565b945088851115612cd5576040805160e560020a62461bcd02815260206004820152600c60248201526000805160206155da833981519152604482015290519081900360640190fd5b612ce3836003015486614fa1565b8360030181905550612cf9826003015488614c09565b600380840182905584015460028086015490850154600754612d1c949190613a74565b935080841015612d64576040805160e560020a62461bcd02815260206004820152600f60248201526000805160206156ba833981519152604482015290519081900360640190fd5b85841115612dbc576040805160e560020a62461bcd02815260206004820152600f60248201527f4552525f4c494d49545f50524943450000000000000000000000000000000000604482015290519081900360640190fd5b612dc68588615070565b811115612e0b576040805160e560020a62461bcd02815260206004820152600f60248201526000805160206156ba833981519152604482015290519081900360640190fd5b87600160a060020a03168a600160a060020a031633600160a060020a03167f908fb5ee8f16c6bc9bc3690973819f32a4d4b10188134543c88706e0e1d43378888b604051808381526020018281526020019250505060405180910390a4612e738a3387614ffe565b612e7e883389614d87565b5050506005805461ff001916905590969095509350505050565b6040805160208082523690820181905260009283923392600160e060020a03198535169285929081908101848480828437600083820152604051601f909101601f19169092018290039550909350505050a2600554610100900460ff1615612f38576040805160e560020a62461bcd02815260206004820152600b60248201526000805160206155ba833981519152604482015290519081900360640190fd5b6005805461ff001916610100179055600160a060020a0387166000908152600a602052604090205460ff16612fa5576040805160e560020a62461bcd02815260206004820152600d602482015260008051602061563a833981519152604482015290519081900360640190fd5b600160a060020a0385166000908152600a602052604090205460ff16613003576040805160e560020a62461bcd02815260206004820152600d602482015260008051602061563a833981519152604482015290519081900360640190fd5b60065460a060020a900460ff16613052576040805160e560020a62461bcd02815260206004820152601360248201526000805160206155fa833981519152604482015290519081900360640190fd5b600160a060020a038088166000908152600a602052604080822092881682529020600382015461308c906002670de0b6b3a7640000610f44565b8811156130e3576040805160e560020a62461bcd02815260206004820152601060248201527f4552525f4d41585f494e5f524154494f00000000000000000000000000000000604482015290519081900360640190fd5b60006131048360030154846002015484600301548560020154600754613a74565b90508581111561315e576040805160e560020a62461bcd02815260206004820152601360248201527f4552525f4241445f4c494d49545f505249434500000000000000000000000000604482015290519081900360640190fd5b61317e83600301548460020154846003015485600201548d600754613e18565b9450868510156131c6576040805160e560020a62461bcd02815260206004820152600d602482015260008051602061569a833981519152604482015290519081900360640190fd5b6131d483600301548a614fa1565b83600301819055506131ea826003015486614c09565b60038084018290558401546002808601549085015460075461320d949190613a74565b935080841015613255576040805160e560020a62461bcd02815260206004820152600f60248201526000805160206156ba833981519152604482015290519081900360640190fd5b858411156132ad576040805160e560020a62461bcd02815260206004820152600f60248201527f4552525f4c494d49545f50524943450000000000000000000000000000000000604482015290519081900360640190fd5b6132b78986615070565b8111156132fc576040805160e560020a62461bcd02815260206004820152600f60248201526000805160206156ba833981519152604482015290519081900360640190fd5b87600160a060020a03168a600160a060020a031633600160a060020a03167f908fb5ee8f16c6bc9bc3690973819f32a4d4b10188134543c88706e0e1d433788c89604051808381526020018281526020019250505060405180910390a46133648a338b614ffe565b612e7e883387614d87565b60008061337c8786615070565b90506000613392670de0b6b3a764000083614c09565b905060006133a08286614c7a565b905060006133ba87612619670de0b6b3a764000085614c09565b905060006133c88c83614c09565b905060006133d6828e615070565b905060006133e482886151ac565b905060006133f2828e614c7a565b905060006134008e83614c09565b905061341d81612619670de0b6b3a7640000612710815b04614c09565b99505050505050505050509695505050505050565b60008061343f8786615070565b9050600061345e613458670de0b6b3a764000084614c09565b85614c7a565b9050600061347d86613478670de0b6b3a764000085614c09565b614c7a565b9050600061348b8b83614fa1565b90506000613499828d615070565b905060006134a782876151ac565b905060006134b5828d614c7a565b90506134c1818d614c09565b9e9d5050505050505050505050505050565b64e8d4a51000670de0b6b3a76400006115a9565b6000806134f48786615070565b9050600061351185613478670de0b6b3a764000061271081613417565b9050600061351f8883614c09565b9050600061352d828a615070565b9050600061354c82613547670de0b6b3a764000088615070565b6151ac565b9050600061355a828e614c7a565b905060006135688e83614c09565b905060006135816125fb670de0b6b3a76400008a614c09565b905061261e82613478670de0b6b3a764000084614c09565b33600160a060020a0316600035600160e060020a031916600160e060020a03191660003660405180806020018281038252848482818152602001925080828437600083820152604051601f909101601f19169092018290039550909350505050a2600554610100900460ff1615613648576040805160e560020a62461bcd02815260206004820152600b60248201526000805160206155ba833981519152604482015290519081900360640190fd5b6005805461ff001916610100179055600160a060020a0381166000908152600a602052604090205460ff166136b5576040805160e560020a62461bcd02815260206004820152600d602482015260008051602061563a833981519152604482015290519081900360640190fd5b604080517f70a082310000000000000000000000000000000000000000000000000000000081523060048201529051600160a060020a038316916370a08231916024808301926020929190829003018186803b15801561371457600080fd5b505afa158015613728573d6000803e3d6000fd5b505050506040513d602081101561373e57600080fd5b5051600160a060020a039091166000908152600a60205260409020600301556005805461ff0019169055565b60085460ff1690565b33600160a060020a0316600035600160e060020a031916600160e060020a03191660003660405180806020018281038252848482818152602001925080828437600083820152604051601f909101601f19169092018290039550909350505050a2600554610100900460ff1615613822576040805160e560020a62461bcd02815260206004820152600b60248201526000805160206155ba833981519152604482015290519081900360640190fd5b6005805461ff00191661010017905560065433600160a060020a0390911614613883576040805160e560020a62461bcd028152602060048201526012602482015260008051602061561a833981519152604482015290519081900360640190fd5b6006805473ffffffffffffffffffffffffffffffffffffffff1916600160a060020a03929092169190911790556005805461ff0019169055565b600554600090610100900460ff161561390e576040805160e560020a62461bcd02815260206004820152600b60248201526000805160206155ba833981519152604482015290519081900360640190fd5b50600b5490565b600554600090610100900460ff1615613966576040805160e560020a62461bcd02815260206004820152600b60248201526000805160206155ba833981519152604482015290519081900360640190fd5b600160a060020a0382166000908152600a602052604090205460ff166139c4576040805160e560020a62461bcd02815260206004820152600d602482015260008051602061563a833981519152604482015290519081900360640190fd5b50600160a060020a03166000908152600a602052604090206002015490565b60048054604080516020601f600260001961010060018816150201909516949094049384018190048102820181019092528281526060939092909183018282801561127c5780601f106112515761010080835404028352916020019161127c565b6704a03ce68d21555681565b7f42524f4e5a45000000000000000000000000000000000000000000000000000090565b600080613a818787615070565b90506000613a8f8686615070565b90506000613a9d8383615070565b90506000613abf670de0b6b3a7640000612619670de0b6b3a764000089614c09565b9050613acb8282614c7a565b9a9950505050505050505050565b6000613ae6338484614e85565b50600192915050565b33600160a060020a0316600035600160e060020a031916600160e060020a03191660003660405180806020018281038252848482818152602001925080828437600083820152604051601f909101601f19169092018290039550909350505050a2600554610100900460ff1615613b9e576040805160e560020a62461bcd02815260206004820152600b60248201526000805160206155ba833981519152604482015290519081900360640190fd5b6005805461ff00191661010017905560085460ff16613c07576040805160e560020a62461bcd02815260206004820152601160248201527f4552525f4e4f545f46494e414c495a4544000000000000000000000000000000604482015290519081900360640190fd5b6000613c11611593565b90506000613c2a85612710670de0b6b3a7640000610f44565b90506000613c388683614c09565b90506000613c468285615070565b905080613c8b576040805160e560020a62461bcd02815260206004820152600f60248201526000805160206156ba833981519152604482015290519081900360640190fd5b613c953388614d63565b600554613cb190620100009004600160a060020a031684614d7d565b613cba82614d71565b60005b600954811015613df957600060098281548110613cd657fe5b6000918252602080832090910154600160a060020a0316808352600a909152604082206003015490925090613d0b8583614c7a565b9050898985818110613d1957fe5b90506020020135811015613d65576040805160e560020a62461bcd02815260206004820152600d602482015260008051602061569a833981519152604482015290519081900360640190fd5b600160a060020a0383166000908152600a6020526040902060030154613d8b9082614c09565b600160a060020a0384166000818152600a60209081526040918290206003019390935580518481529051919233927fe74c91552b64c2e2e7bd255639e004e693bd3e1d01cc33e65610b86afcc1ffed9281900390910190a3613dee833383614d87565b505050600101613cbd565b50506005805461ff0019169055505050505050565b600881565b600181565b600080613e258786615070565b90506000613e3b670de0b6b3a764000085614c09565b9050613e478582614c7a565b90506000613e598a6126198c85614fa1565b90506000613e6782856151ac565b90506000613e7d670de0b6b3a764000083614c09565b9050613e898a82614c7a565b9c9b505050505050505050505050565b600a670de0b6b3a76400006115a9565b671bc16d674ec7ffff81565b600554606090610100900460ff1615613f06576040805160e560020a62461bcd02815260206004820152600b60248201526000805160206155ba833981519152604482015290519081900360640190fd5b60085460ff16613f60576040805160e560020a62461bcd02815260206004820152601160248201527f4552525f4e4f545f46494e414c495a4544000000000000000000000000000000604482015290519081900360640190fd5b600980548060200260200160405190810160405280929190818152602001828054801561127c57602002820191906000526020600020905b8154600160a060020a03168152600190910190602001808311613f98575050505050905090565b612710670de0b6b3a76400006115a9565b600554606090610100900460ff1615613f60576040805160e560020a62461bcd02815260206004820152600b60248201526000805160206155ba833981519152604482015290519081900360640190fd5b60095490565b33600160a060020a0316600035600160e060020a031916600160e060020a03191660003660405180806020018281038252848482818152602001925080828437600083820152604051601f909101601f19169092018290039550909350505050a2600554610100900460ff16156140d6576040805160e560020a62461bcd02815260206004820152600b60248201526000805160206155ba833981519152604482015290519081900360640190fd5b6005805461ff00191661010017905560065433600160a060020a0390911614614137576040805160e560020a62461bcd028152602060048201526012602482015260008051602061561a833981519152604482015290519081900360640190fd5b600160a060020a0381166000908152600a602052604090205460ff16614195576040805160e560020a62461bcd02815260206004820152600d602482015260008051602061563a833981519152604482015290519081900360640190fd5b60085460ff16156141de576040805160e560020a62461bcd028152602060048201526010602482015260008051602061567a833981519152604482015290519081900360640190fd5b600160a060020a0381166000908152600a60205260408120600301549061421082612710670de0b6b3a7640000610f44565b600b54600160a060020a0385166000908152600a602052604090206002015491925061423b91614c09565b600b55600160a060020a0383166000908152600a602052604090206001015460098054600019810191908290811061426f57fe5b60009182526020909120015460098054600160a060020a03909216918490811061429557fe5b9060005260206000200160006101000a815481600160a060020a030219169083600160a060020a0316021790555081600a6000600985815481106142d557fe5b6000918252602080832090910154600160a060020a03168352820192909252604001902060010155600980548061430857fe5b600082815260208082206000199084018101805473ffffffffffffffffffffffffffffffffffffffff191690559092019092556040805160808101825283815280830184815281830185815260608301868152600160a060020a038c168752600a909552929094209051815460ff191690151517815592516001840155516002830155516003909101556143a185336120e88787614c09565b60055461210e908690620100009004600160a060020a031685614d87565b600554600090610100900460ff1615614410576040805160e560020a62461bcd02815260206004820152600b60248201526000805160206155ba833981519152604482015290519081900360640190fd5b5060075490565b336000908152600160209081526040808320600160a060020a03861684529091528120546144459083614fa1565b336000818152600160209081526040808320600160a060020a03891680855290835292819020859055805194855251919360008051602061565a833981519152929081900390910190a350600192915050565b600160a060020a03918216600090815260016020908152604080832093909416825291909152205490565b6c0c9f2c9cd04674edea4000000081565b33600160a060020a0316600035600160e060020a031916600160e060020a03191660003660405180806020018281038252848482818152602001925080828437600083820152604051601f909101601f19169092018290039550909350505050a2600654600160a060020a03163314614585576040805160e560020a62461bcd028152602060048201526012602482015260008051602061561a833981519152604482015290519081900360640190fd5b600160a060020a0383166000908152600a602052604090205460ff16156145f6576040805160e560020a62461bcd02815260206004820152600c60248201527f4552525f49535f424f554e440000000000000000000000000000000000000000604482015290519081900360640190fd5b60085460ff161561463f576040805160e560020a62461bcd028152602060048201526010602482015260008051602061567a833981519152604482015290519081900360640190fd5b600954600811614699576040805160e560020a62461bcd02815260206004820152600e60248201527f4552525f4d41585f544f4b454e53000000000000000000000000000000000000604482015290519081900360640190fd5b604080516080810182526001808252600980546020808501918252600085870181815260608701828152600160a060020a038c16808452600a9094529782209651875460ff1916901515178755925186860155915160028601559451600390940193909355805491820181559091527f6e1540171b6c0c960b71a7020d9f60077f6af931a8bbf590da0223dacf75c7af01805473ffffffffffffffffffffffffffffffffffffffff19169091179055614753838383611c65565b505050565b600033600160a060020a0316600035600160e060020a031916600160e060020a03191660003660405180806020018281038252848482818152602001925080828437600083820152604051601f909101601f19169092018290039550909350505050a2600554610100900460ff1615614809576040805160e560020a62461bcd02815260206004820152600b60248201526000805160206155ba833981519152604482015290519081900360640190fd5b6005805461ff001916610100179055600160a060020a0383166000908152600a602052604090205460ff16614876576040805160e560020a62461bcd02815260206004820152600d602482015260008051602061563a833981519152604482015290519081900360640190fd5b60065460a060020a900460ff166148c5576040805160e560020a62461bcd02815260206004820152601360248201526000805160206155fa833981519152604482015290519081900360640190fd5b600160a060020a0383166000908152600a6020526040902060038101546002808301549054600b546007546148ff94939291908a90612579565b915082821115614947576040805160e560020a62461bcd02815260206004820152600c60248201526000805160206155da833981519152604482015290519081900360640190fd5b614955816003015483614fa1565b6003820155604080518381529051600160a060020a0386169133917f63982df10efd8dfaaaa0fcc7f50b2d93b7cba26ccc48adee2873220d485dc39a9181900360200190a36149a385614e7c565b6149ad3386614d7d565b612891843384614ffe565b6002670de0b6b3a76400006115a9565b600554600090610100900460ff1615614a19576040805160e560020a62461bcd02815260206004820152600b60248201526000805160206155ba833981519152604482015290519081900360640190fd5b600160a060020a0382166000908152600a602052604090205460ff16614a77576040805160e560020a62461bcd02815260206004820152600d602482015260008051602061563a833981519152604482015290519081900360640190fd5b600160a060020a0382166000908152600a6020526040902060020154600b54614aa1908290615070565b9392505050565b600554600090610100900460ff1615614af9576040805160e560020a62461bcd02815260206004820152600b60248201526000805160206155ba833981519152604482015290519081900360640190fd5b600160a060020a0382166000908152600a602052604090205460ff16614b57576040805160e560020a62461bcd02815260206004820152600d602482015260008051602061563a833981519152604482015290519081900360640190fd5b50600160a060020a03166000908152600a602052604090206003015490565b600080614b838588615070565b90506000614b918786614c09565b90506000614b9f8883615070565b90506000614bad82856151ac565b9050614bc181670de0b6b3a7640000614c09565b9050614bd5670de0b6b3a764000087614c09565b9450614bea614be48c83614c7a565b86615070565b9b9a5050505050505050505050565b60065460a060020a900460ff1690565b6000806000614c1885856152cf565b915091508015614c72576040805160e560020a62461bcd02815260206004820152601160248201527f4552525f5355425f554e444552464c4f57000000000000000000000000000000604482015290519081900360640190fd5b509392505050565b6000828202831580614c94575082848281614c9157fe5b04145b614ce8576040805160e560020a62461bcd02815260206004820152601060248201527f4552525f4d554c5f4f564552464c4f5700000000000000000000000000000000604482015290519081900360640190fd5b6706f05b59d3b20000810181811015614d4b576040805160e560020a62461bcd02815260206004820152601060248201527f4552525f4d554c5f4f564552464c4f5700000000000000000000000000000000604482015290519081900360640190fd5b6000670de0b6b3a7640000825b049695505050505050565b614d6d82826152f4565b5050565b614d7a816152ff565b50565b614d6d82826153db565b604080517fa9059cbb000000000000000000000000000000000000000000000000000000008152600160a060020a03848116600483015260248201849052915160009286169163a9059cbb91604480830192602092919082900301818787803b158015614df357600080fd5b505af1158015614e07573d6000803e3d6000fd5b505050506040513d6020811015614e1d57600080fd5b5051905080614e76576040805160e560020a62461bcd02815260206004820152600f60248201527f4552525f45524332305f46414c53450000000000000000000000000000000000604482015290519081900360640190fd5b50505050565b614d7a816153e6565b600160a060020a038316600090815260208190526040902054811115614ef5576040805160e560020a62461bcd02815260206004820152601460248201527f4552525f494e53554646494349454e545f42414c000000000000000000000000604482015290519081900360640190fd5b600160a060020a038316600090815260208190526040902054614f189082614c09565b600160a060020a038085166000908152602081905260408082209390935590841681522054614f479082614fa1565b600160a060020a038084166000818152602081815260409182902094909455805185815290519193928716927fddf252ad1be2c89b69c2b068fc378daa952ba7f163c4a11628f55a4df523b3ef92918290030190a3505050565b600082820183811015614aa1576040805160e560020a62461bcd02815260206004820152601060248201527f4552525f4144445f4f564552464c4f5700000000000000000000000000000000604482015290519081900360640190fd5b604080517f23b872dd000000000000000000000000000000000000000000000000000000008152600160a060020a0384811660048301523060248301526044820184905291516000928616916323b872dd91606480830192602092919082900301818787803b158015614df357600080fd5b6000816150c7576040805160e560020a62461bcd02815260206004820152600c60248201527f4552525f4449565f5a45524f0000000000000000000000000000000000000000604482015290519081900360640190fd5b670de0b6b3a764000083028315806150ef5750670de0b6b3a76400008482816150ec57fe5b04145b615143576040805160e560020a62461bcd02815260206004820152601060248201527f4552525f4449565f494e5445524e414c00000000000000000000000000000000604482015290519081900360640190fd5b600283048101818110156151a1576040805160e560020a62461bcd02815260206004820152601060248201527f4552525f4449565f494e5445524e414c00000000000000000000000000000000604482015290519081900360640190fd5b6000848281614d5857fe5b60006001831015615207576040805160e560020a62461bcd02815260206004820152601560248201527f4552525f42504f575f424153455f544f4f5f4c4f570000000000000000000000604482015290519081900360640190fd5b671bc16d674ec7ffff831115615267576040805160e560020a62461bcd02815260206004820152601660248201527f4552525f42504f575f424153455f544f4f5f4849474800000000000000000000604482015290519081900360640190fd5b60006152728361545b565b905060006152808483614c09565b905060006152968661529185615476565b615484565b9050816152a75792506112d5915050565b60006152b887846305f5e1006154db565b90506152c48282614c7a565b979650505050505050565b6000808284106152e557505080820360006152ed565b505081810360015b9250929050565b614d6d823083614e85565b30600090815260208190526040902054811115615366576040805160e560020a62461bcd02815260206004820152601460248201527f4552525f494e53554646494349454e545f42414c000000000000000000000000604482015290519081900360640190fd5b306000908152602081905260409020546153809082614c09565b3060009081526020819052604090205560025461539d9082614c09565b60025560408051828152905160009130917fddf252ad1be2c89b69c2b068fc378daa952ba7f163c4a11628f55a4df523b3ef9181900360200190a350565b614d6d308383614e85565b306000908152602081905260409020546154009082614fa1565b3060009081526020819052604090205560025461541d9082614fa1565b60025560408051828152905130916000917fddf252ad1be2c89b69c2b068fc378daa952ba7f163c4a11628f55a4df523b3ef9181900360200190a350565b6000670de0b6b3a764000061546f83615476565b0292915050565b670de0b6b3a7640000900490565b6000806002830661549d57670de0b6b3a764000061549f565b835b90506002830492505b8215614aa1576154b88485614c7a565b935060028306156154d0576154cd8185614c7a565b90505b6002830492506154a8565b60008281806154f287670de0b6b3a76400006152cf565b9092509050670de0b6b3a764000080600060015b8884106155aa576000670de0b6b3a76400008202905060008061553a8a61553585670de0b6b3a7640000614c09565b6152cf565b9150915061554c87613478848c614c7a565b96506155588784615070565b965086615567575050506155aa565b8715615571579315935b801561557b579315935b84156155925761558b8688614c09565b955061559f565b61559c8688614fa1565b95505b505050600101615506565b5090999850505050505050505056fe4552525f5245454e5452590000000000000000000000000000000000000000004552525f4c494d49545f494e00000000000000000000000000000000000000004552525f535741505f4e4f545f5055424c4943000000000000000000000000004552525f4e4f545f434f4e54524f4c4c455200000000000000000000000000004552525f4e4f545f424f554e44000000000000000000000000000000000000008c5be1e5ebec7d5bd14f71427d1e84f3dd0314c0f7b2291e5b200ac8c7c3b9254552525f49535f46494e414c495a4544000000000000000000000000000000004552525f4c494d49545f4f5554000000000000000000000000000000000000004552525f4d4154485f415050524f580000000000000000000000000000000000a265627a7a7231582095646a84e1752b395f8ce2f4c843f38f71889367d7e0f6b73e3756a3226a6ded64736f6c634300050c0032",
    "source": "// This program is free software: you can redistribute it and/or modify\n// it under the terms of the GNU General Public License as published by\n// the Free Software Foundation, either version 3 of the License, or\n// (at your option) any later version.\n\n// This program is distributed in the hope that it will be useful,\n// but WITHOUT ANY WARRANTY; without even the implied warranty of\n// MERCHANTABILITY or FITNESS FOR A PARTICULAR PURPOSE.  See the\n// GNU General Public License for more details.\n\n// You should have received a copy of the GNU General Public License\n// along with this program.  If not, see <http://www.gnu.org/licenses/>.\n\npragma solidity 0.5.12;\n\nimport \"./BToken.sol\";\nimport \"./BMath.sol\";\n\ncontract BPool is BBronze, BToken, BMath {\n\n    struct Record {\n        bool bound;   // is token bound to pool\n        uint index;   // private\n        uint denorm;  // denormalized weight\n        uint balance;\n    }\n\n    event LOG_SWAP(\n        address indexed caller,\n        address indexed tokenIn,\n        address indexed tokenOut,\n        uint256         tokenAmountIn,\n        uint256         tokenAmountOut\n    );\n\n    event LOG_JOIN(\n        address indexed caller,\n        address indexed tokenIn,\n        uint256         tokenAmountIn\n    );\n\n    event LOG_EXIT(\n        address indexed caller,\n        address indexed tokenOut,\n        uint256         tokenAmountOut\n    );\n\n    event LOG_CALL(\n        bytes4  indexed sig,\n        address indexed caller,\n        bytes           data\n    ) anonymous;\n\n    modifier _logs_() {\n        emit LOG_CALL(msg.sig, msg.sender, msg.data);\n        _;\n    }\n\n    modifier _lock_() {\n        require(!_mutex, \"ERR_REENTRY\");\n        _mutex = true;\n        _;\n        _mutex = false;\n    }\n\n    modifier _viewlock_() {\n        require(!_mutex, \"ERR_REENTRY\");\n        _;\n    }\n\n    bool private _mutex;\n\n    address private _factory;    // BFactory address to push token exitFee to\n    address private _controller; // has CONTROL role\n    bool private _publicSwap; // true if PUBLIC can call SWAP functions\n\n    // `setSwapFee` and `finalize` require CONTROL\n    // `finalize` sets `PUBLIC can SWAP`, `PUBLIC can JOIN`\n    uint private _swapFee;\n    bool private _finalized;\n\n    address[] private _tokens;\n    mapping(address=>Record) private  _records;\n    uint private _totalWeight;\n\n    constructor() public {\n        _controller = msg.sender;\n        _factory = msg.sender;\n        _swapFee = MIN_FEE;\n        _publicSwap = false;\n        _finalized = false;\n    }\n\n    function isPublicSwap()\n        external view\n        returns (bool)\n    {\n        return _publicSwap;\n    }\n\n    function isFinalized()\n        external view\n        returns (bool)\n    {\n        return _finalized;\n    }\n\n    function isBound(address t)\n        external view\n        returns (bool)\n    {\n        return _records[t].bound;\n    }\n\n    function getNumTokens()\n        external view\n        returns (uint) \n    {\n        return _tokens.length;\n    }\n\n    function getCurrentTokens()\n        external view _viewlock_\n        returns (address[] memory tokens)\n    {\n        return _tokens;\n    }\n\n    function getFinalTokens()\n        external view\n        _viewlock_\n        returns (address[] memory tokens)\n    {\n        require(_finalized, \"ERR_NOT_FINALIZED\");\n        return _tokens;\n    }\n\n    function getDenormalizedWeight(address token)\n        external view\n        _viewlock_\n        returns (uint)\n    {\n\n        require(_records[token].bound, \"ERR_NOT_BOUND\");\n        return _records[token].denorm;\n    }\n\n    function getTotalDenormalizedWeight()\n        external view\n        _viewlock_\n        returns (uint)\n    {\n        return _totalWeight;\n    }\n\n    function getNormalizedWeight(address token)\n        external view\n        _viewlock_\n        returns (uint)\n    {\n\n        require(_records[token].bound, \"ERR_NOT_BOUND\");\n        uint denorm = _records[token].denorm;\n        return bdiv(denorm, _totalWeight);\n    }\n\n    function getBalance(address token)\n        external view\n        _viewlock_\n        returns (uint)\n    {\n\n        require(_records[token].bound, \"ERR_NOT_BOUND\");\n        return _records[token].balance;\n    }\n\n    function getSwapFee()\n        external view\n        _viewlock_\n        returns (uint)\n    {\n        return _swapFee;\n    }\n\n    function getController()\n        external view\n        _viewlock_\n        returns (address)\n    {\n        return _controller;\n    }\n\n    function setSwapFee(uint swapFee)\n        external\n        _logs_\n        _lock_\n    { \n        require(!_finalized, \"ERR_IS_FINALIZED\");\n        require(msg.sender == _controller, \"ERR_NOT_CONTROLLER\");\n        require(swapFee >= MIN_FEE, \"ERR_MIN_FEE\");\n        require(swapFee <= MAX_FEE, \"ERR_MAX_FEE\");\n        _swapFee = swapFee;\n    }\n\n    function setController(address manager)\n        external\n        _logs_\n        _lock_\n    {\n        require(msg.sender == _controller, \"ERR_NOT_CONTROLLER\");\n        _controller = manager;\n    }\n\n    function setPublicSwap(bool public_)\n        external\n        _logs_\n        _lock_\n    {\n        require(!_finalized, \"ERR_IS_FINALIZED\");\n        require(msg.sender == _controller, \"ERR_NOT_CONTROLLER\");\n        _publicSwap = public_;\n    }\n\n    function finalize(uint initSupply)\n        external\n        _logs_\n        _lock_\n    {\n        require(msg.sender == _controller, \"ERR_NOT_CONTROLLER\");\n        require(!_finalized, \"ERR_IS_FINALIZED\");\n        require(initSupply >= MIN_POOL_SUPPLY, \"ERR_MIN_POOL_SUPPLY\");\n\n        _finalized = true;\n        _publicSwap = true;\n\n        _mintPoolShare(initSupply);\n        _pushPoolShare(msg.sender, initSupply);\n    }\n\n\n    function bind(address token, uint balance, uint denorm)\n        external\n        _logs_\n        // _lock_  Bind does not lock because it jumps to `rebind`, which does\n    {\n        require(msg.sender == _controller, \"ERR_NOT_CONTROLLER\");\n        require(!_records[token].bound, \"ERR_IS_BOUND\");\n        require(!_finalized, \"ERR_IS_FINALIZED\");\n\n        require(_tokens.length < MAX_BOUND_TOKENS, \"ERR_MAX_TOKENS\");\n\n        _records[token] = Record({\n            bound: true,\n            index: _tokens.length, // 1-indexed (0 is 'unbound' state)\n            denorm: 0,    // balance and denorm will be validated\n            balance: 0   // and set by `rebind`\n        });\n        _tokens.push(token);\n        rebind(token, balance, denorm);\n    }\n\n    function rebind(address token, uint balance, uint denorm)\n        public\n        _logs_\n        _lock_\n    {\n\n        require(msg.sender == _controller, \"ERR_NOT_CONTROLLER\");\n        require(_records[token].bound, \"ERR_NOT_BOUND\");\n        require(!_finalized, \"ERR_IS_FINALIZED\");\n\n        require(denorm >= MIN_WEIGHT, \"ERR_MIN_WEIGHT\");\n        require(denorm <= MAX_WEIGHT, \"ERR_MAX_WEIGHT\");\n        require(balance >= MIN_BALANCE, \"ERR_MIN_BALANCE\");\n        require(balance <= MAX_BALANCE, \"ERR_MAX_BALANCE\");\n\n        // Adjust the denorm and totalWeight\n        uint oldWeight = _records[token].denorm;\n        if (denorm > oldWeight) {\n            _totalWeight = badd(_totalWeight, bsub(denorm, oldWeight));\n            require(_totalWeight <= MAX_TOTAL_WEIGHT, \"ERR_MAX_TOTAL_WEIGHT\");\n        } else if (denorm < oldWeight) {\n            _totalWeight = bsub(_totalWeight, bsub(oldWeight, denorm));\n        }        \n        _records[token].denorm = denorm;\n\n        // Adjust the balance record and actual token balance\n        uint oldBalance = _records[token].balance;\n        _records[token].balance = balance;\n        if (balance > oldBalance) {\n            _pullUnderlying(token, msg.sender, bsub(balance, oldBalance));\n        } else if (balance < oldBalance) {\n            // In this case liquidity is being withdrawn, so charge EXIT_FEE\n            uint tokenBalanceWithdrawn = bsub(oldBalance, balance);\n            uint tokenExitFee = bmul(tokenBalanceWithdrawn, EXIT_FEE);\n            _pushUnderlying(token, msg.sender, bsub(tokenBalanceWithdrawn, tokenExitFee));\n            _pushUnderlying(token, _factory, tokenExitFee);\n        }\n    }\n\n    function unbind(address token)\n        external\n        _logs_\n        _lock_\n    {\n\n        require(msg.sender == _controller, \"ERR_NOT_CONTROLLER\");\n        require(_records[token].bound, \"ERR_NOT_BOUND\");\n        require(!_finalized, \"ERR_IS_FINALIZED\");\n\n        uint tokenBalance = _records[token].balance;\n        uint tokenExitFee = bmul(tokenBalance, EXIT_FEE);\n\n        _totalWeight = bsub(_totalWeight, _records[token].denorm);\n\n        // Swap the token-to-unbind with the last token,\n        // then delete the last token\n        uint index = _records[token].index;\n        uint last = _tokens.length - 1;\n        _tokens[index] = _tokens[last];\n        _records[_tokens[index]].index = index;\n        _tokens.pop();\n        _records[token] = Record({\n            bound: false,\n            index: 0,\n            denorm: 0,\n            balance: 0\n        });\n\n        _pushUnderlying(token, msg.sender, bsub(tokenBalance, tokenExitFee));\n        _pushUnderlying(token, _factory, tokenExitFee);\n    }\n\n    // Absorb any tokens that have been sent to this contract into the pool\n    function gulp(address token)\n        external\n        _logs_\n        _lock_\n    {\n        require(_records[token].bound, \"ERR_NOT_BOUND\");\n        _records[token].balance = IERC20(token).balanceOf(address(this));\n    }\n\n    function getSpotPrice(address tokenIn, address tokenOut)\n        external view\n        _viewlock_\n        returns (uint spotPrice)\n    {\n        require(_records[tokenIn].bound, \"ERR_NOT_BOUND\");\n        require(_records[tokenOut].bound, \"ERR_NOT_BOUND\");\n        Record storage inRecord = _records[tokenIn];\n        Record storage outRecord = _records[tokenOut];\n        return calcSpotPrice(inRecord.balance, inRecord.denorm, outRecord.balance, outRecord.denorm, _swapFee);\n    }\n\n    function getSpotPriceSansFee(address tokenIn, address tokenOut)\n        external view\n        _viewlock_\n        returns (uint spotPrice)\n    {\n        require(_records[tokenIn].bound, \"ERR_NOT_BOUND\");\n        require(_records[tokenOut].bound, \"ERR_NOT_BOUND\");\n        Record storage inRecord = _records[tokenIn];\n        Record storage outRecord = _records[tokenOut];\n        return calcSpotPrice(inRecord.balance, inRecord.denorm, outRecord.balance, outRecord.denorm, 0);\n    }\n\n    function joinPool(uint poolAmountOut, uint[] calldata maxAmountsIn)\n        external\n        _logs_\n        _lock_\n    {\n        require(_finalized, \"ERR_NOT_FINALIZED\");\n\n        uint poolTotal = totalSupply();\n        uint ratio = bdiv(poolAmountOut, poolTotal);\n        require(ratio != 0, \"ERR_MATH_APPROX\");\n\n        for (uint i = 0; i < _tokens.length; i++) {\n            address t = _tokens[i];\n            uint bal = _records[t].balance;\n            uint tokenAmountIn = bmul(ratio, bal);\n            require(tokenAmountIn <= maxAmountsIn[i], \"ERR_LIMIT_IN\");\n            _records[t].balance = badd(_records[t].balance, tokenAmountIn);\n            emit LOG_JOIN(msg.sender, t, tokenAmountIn);\n            _pullUnderlying(t, msg.sender, tokenAmountIn);\n        }\n        _mintPoolShare(poolAmountOut);\n        _pushPoolShare(msg.sender, poolAmountOut);\n    }\n\n    function exitPool(uint poolAmountIn, uint[] calldata minAmountsOut)\n        external\n        _logs_\n        _lock_\n    {\n        require(_finalized, \"ERR_NOT_FINALIZED\");\n\n        uint poolTotal = totalSupply();\n        uint exitFee = bmul(poolAmountIn, EXIT_FEE);\n        uint pAiAfterExitFee = bsub(poolAmountIn, exitFee);\n        uint ratio = bdiv(pAiAfterExitFee, poolTotal);\n        require(ratio != 0, \"ERR_MATH_APPROX\");\n\n        _pullPoolShare(msg.sender, poolAmountIn);\n        _pushPoolShare(_factory, exitFee);\n        _burnPoolShare(pAiAfterExitFee);\n\n        for (uint i = 0; i < _tokens.length; i++) {\n            address t = _tokens[i];\n            uint bal = _records[t].balance;\n            uint tokenAmountOut = bmul(ratio, bal);\n            require(tokenAmountOut >= minAmountsOut[i], \"ERR_LIMIT_OUT\");\n            _records[t].balance = bsub(_records[t].balance, tokenAmountOut);\n            emit LOG_EXIT(msg.sender, t, tokenAmountOut);\n            _pushUnderlying(t, msg.sender, tokenAmountOut);\n        }\n\n    }\n\n\n    function swapExactAmountIn(\n        address tokenIn,\n        uint tokenAmountIn,\n        address tokenOut,\n        uint minAmountOut,\n        uint maxPrice\n    )\n        external\n        _logs_\n        _lock_\n        returns (uint tokenAmountOut, uint spotPriceAfter)\n    {\n\n        require(_records[tokenIn].bound, \"ERR_NOT_BOUND\");\n        require(_records[tokenOut].bound, \"ERR_NOT_BOUND\");\n        require(_publicSwap, \"ERR_SWAP_NOT_PUBLIC\");\n\n        Record storage inRecord = _records[address(tokenIn)];\n        Record storage outRecord = _records[address(tokenOut)];\n\n        require(tokenAmountIn <= bmul(inRecord.balance, MAX_IN_RATIO), \"ERR_MAX_IN_RATIO\");\n\n        uint spotPriceBefore = calcSpotPrice(\n                                    inRecord.balance,\n                                    inRecord.denorm,\n                                    outRecord.balance,\n                                    outRecord.denorm,\n                                    _swapFee\n                                );\n        require(spotPriceBefore <= maxPrice, \"ERR_BAD_LIMIT_PRICE\");\n\n        tokenAmountOut = calcOutGivenIn(\n                            inRecord.balance,\n                            inRecord.denorm,\n                            outRecord.balance,\n                            outRecord.denorm,\n                            tokenAmountIn,\n                            _swapFee\n                        );\n        require(tokenAmountOut >= minAmountOut, \"ERR_LIMIT_OUT\");\n\n        inRecord.balance = badd(inRecord.balance, tokenAmountIn);\n        outRecord.balance = bsub(outRecord.balance, tokenAmountOut);\n\n        spotPriceAfter = calcSpotPrice(\n                                inRecord.balance,\n                                inRecord.denorm,\n                                outRecord.balance,\n                                outRecord.denorm,\n                                _swapFee\n                            );\n        require(spotPriceAfter >= spotPriceBefore, \"ERR_MATH_APPROX\");     \n        require(spotPriceAfter <= maxPrice, \"ERR_LIMIT_PRICE\");\n        require(spotPriceBefore <= bdiv(tokenAmountIn, tokenAmountOut), \"ERR_MATH_APPROX\");\n\n        emit LOG_SWAP(msg.sender, tokenIn, tokenOut, tokenAmountIn, tokenAmountOut);\n\n        _pullUnderlying(tokenIn, msg.sender, tokenAmountIn);\n        _pushUnderlying(tokenOut, msg.sender, tokenAmountOut);\n\n        return (tokenAmountOut, spotPriceAfter);\n    }\n\n    function swapExactAmountOut(\n        address tokenIn,\n        uint maxAmountIn,\n        address tokenOut,\n        uint tokenAmountOut,\n        uint maxPrice\n    )\n        external\n        _logs_\n        _lock_ \n        returns (uint tokenAmountIn, uint spotPriceAfter)\n    {\n        require(_records[tokenIn].bound, \"ERR_NOT_BOUND\");\n        require(_records[tokenOut].bound, \"ERR_NOT_BOUND\");\n        require(_publicSwap, \"ERR_SWAP_NOT_PUBLIC\");\n\n        Record storage inRecord = _records[address(tokenIn)];\n        Record storage outRecord = _records[address(tokenOut)];\n\n        require(tokenAmountOut <= bmul(outRecord.balance, MAX_OUT_RATIO), \"ERR_MAX_OUT_RATIO\");\n\n        uint spotPriceBefore = calcSpotPrice(\n                                    inRecord.balance,\n                                    inRecord.denorm,\n                                    outRecord.balance,\n                                    outRecord.denorm,\n                                    _swapFee\n                                );\n        require(spotPriceBefore <= maxPrice, \"ERR_BAD_LIMIT_PRICE\");\n\n        tokenAmountIn = calcInGivenOut(\n                            inRecord.balance,\n                            inRecord.denorm,\n                            outRecord.balance,\n                            outRecord.denorm,\n                            tokenAmountOut,\n                            _swapFee\n                        );\n        require(tokenAmountIn <= maxAmountIn, \"ERR_LIMIT_IN\");\n\n        inRecord.balance = badd(inRecord.balance, tokenAmountIn);\n        outRecord.balance = bsub(outRecord.balance, tokenAmountOut);\n\n        spotPriceAfter = calcSpotPrice(\n                                inRecord.balance,\n                                inRecord.denorm,\n                                outRecord.balance,\n                                outRecord.denorm,\n                                _swapFee\n                            );\n        require(spotPriceAfter >= spotPriceBefore, \"ERR_MATH_APPROX\");\n        require(spotPriceAfter <= maxPrice, \"ERR_LIMIT_PRICE\");\n        require(spotPriceBefore <= bdiv(tokenAmountIn, tokenAmountOut), \"ERR_MATH_APPROX\");\n\n        emit LOG_SWAP(msg.sender, tokenIn, tokenOut, tokenAmountIn, tokenAmountOut);\n\n        _pullUnderlying(tokenIn, msg.sender, tokenAmountIn);\n        _pushUnderlying(tokenOut, msg.sender, tokenAmountOut);\n\n        return (tokenAmountIn, spotPriceAfter);\n    }\n\n\n    function joinswapExternAmountIn(address tokenIn, uint tokenAmountIn, uint minPoolAmountOut)\n        external\n        _logs_\n        _lock_\n        returns (uint poolAmountOut)\n    {\n\n        require(_records[tokenIn].bound, \"ERR_NOT_BOUND\");\n        require(_publicSwap, \"ERR_SWAP_NOT_PUBLIC\");\n\n        Record storage inRecord = _records[tokenIn];\n\n        poolAmountOut = calcPoolOutGivenSingleIn(\n                            inRecord.balance,\n                            inRecord.denorm,\n                            _totalSupply,\n                            _totalWeight,\n                            tokenAmountIn,\n                            _swapFee\n                        );\n\n        require(poolAmountOut >= minPoolAmountOut, \"ERR_LIMIT_OUT\");\n\n        inRecord.balance = badd(inRecord.balance, tokenAmountIn);\n\n        emit LOG_JOIN(msg.sender, tokenIn, tokenAmountIn);\n\n        _mintPoolShare(poolAmountOut);\n        _pushPoolShare(msg.sender, poolAmountOut);\n        _pullUnderlying(tokenIn, msg.sender, tokenAmountIn);\n\n        return poolAmountOut;\n    }\n\n    function joinswapPoolAmountOut(uint poolAmountOut, address tokenIn, uint maxAmountIn)\n        external\n        _logs_\n        _lock_\n        returns (uint tokenAmountIn)\n    {\n        require(_records[tokenIn].bound, \"ERR_NOT_BOUND\");\n        require(_publicSwap, \"ERR_SWAP_NOT_PUBLIC\");\n\n        Record storage inRecord = _records[tokenIn];\n\n        tokenAmountIn = calcSingleInGivenPoolOut(\n                            inRecord.balance,\n                            inRecord.denorm,\n                            _totalSupply,\n                            _totalWeight,\n                            poolAmountOut,\n                            _swapFee\n                        );\n\n        require(tokenAmountIn <= maxAmountIn, \"ERR_LIMIT_IN\");\n\n        inRecord.balance = badd(inRecord.balance, tokenAmountIn);\n\n        emit LOG_JOIN(msg.sender, tokenIn, tokenAmountIn);\n\n        _mintPoolShare(poolAmountOut);\n        _pushPoolShare(msg.sender, poolAmountOut);\n        _pullUnderlying(tokenIn, msg.sender, tokenAmountIn);\n\n        return tokenAmountIn;\n    }\n\n    function exitswapPoolAmountIn(uint poolAmountIn, address tokenOut, uint minAmountOut)\n        external\n        _logs_\n        _lock_\n        returns (uint tokenAmountOut)\n    {\n\n        require(_records[tokenOut].bound, \"ERR_NOT_BOUND\");\n        require(_publicSwap, \"ERR_SWAP_NOT_PUBLIC\");\n\n        Record storage outRecord = _records[tokenOut];\n\n        tokenAmountOut = calcSingleOutGivenPoolIn(\n                            outRecord.balance,\n                            outRecord.denorm,\n                            _totalSupply,\n                            _totalWeight,\n                            poolAmountIn,\n                            _swapFee\n                        );\n\n        require(tokenAmountOut >= minAmountOut, \"ERR_LIMIT_OUT\");\n\n        outRecord.balance = bsub(outRecord.balance, tokenAmountOut);\n\n        uint exitFee = bmul(poolAmountIn, EXIT_FEE);\n\n        emit LOG_EXIT(msg.sender, tokenOut, tokenAmountOut);\n\n        _pullPoolShare(msg.sender, poolAmountIn);\n        _burnPoolShare(bsub(poolAmountIn, exitFee));\n        _pushPoolShare(_factory, exitFee);\n        _pushUnderlying(tokenOut, msg.sender, tokenAmountOut);\n\n        return tokenAmountOut;\n    }\n\n    function exitswapExternAmountOut(address tokenOut, uint tokenAmountOut, uint maxPoolAmountIn)\n        external\n        _logs_\n        _lock_\n        returns (uint poolAmountIn)\n    {\n\n        require(_records[tokenOut].bound, \"ERR_NOT_BOUND\");\n        require(_publicSwap, \"ERR_SWAP_NOT_PUBLIC\");\n\n        Record storage outRecord = _records[tokenOut];\n\n        poolAmountIn = calcPoolInGivenSingleOut(\n                            outRecord.balance,\n                            outRecord.denorm,\n                            _totalSupply,\n                            _totalWeight,\n                            tokenAmountOut,\n                            _swapFee\n                        );\n\n        require(poolAmountIn <= maxPoolAmountIn, \"ERR_LIMIT_IN\");\n\n        outRecord.balance = bsub(outRecord.balance, tokenAmountOut);\n\n        uint exitFee = bmul(poolAmountIn, EXIT_FEE);\n\n        emit LOG_EXIT(msg.sender, tokenOut, tokenAmountOut);\n\n        _pullPoolShare(msg.sender, poolAmountIn);\n        _burnPoolShare(bsub(poolAmountIn, exitFee));\n        _pushPoolShare(_factory, exitFee);\n        _pushUnderlying(tokenOut, msg.sender, tokenAmountOut);        \n\n        return poolAmountIn;\n    }\n\n\n    // ==\n    // 'Underlying' token-manipulation functions make external calls but are NOT locked\n    // You must `_lock_` or otherwise ensure reentry-safety\n\n    function _pullUnderlying(address erc20, address from, uint amount)\n        internal\n    {\n        bool xfer = IERC20(erc20).transferFrom(from, address(this), amount);\n        require(xfer, \"ERR_ERC20_FALSE\");\n    }\n\n    function _pushUnderlying(address erc20, address to, uint amount)\n        internal\n    {\n        bool xfer = IERC20(erc20).transfer(to, amount);\n        require(xfer, \"ERR_ERC20_FALSE\");\n    }\n\n    function _pullPoolShare(address from, uint amount)\n        internal\n    {\n        _pull(from, amount);\n    }\n\n    function _pushPoolShare(address to, uint amount)\n        internal\n    {\n        _push(to, amount);\n    }\n\n    function _mintPoolShare(uint amount)\n        internal\n    {\n        _mint(amount);\n    }\n\n    function _burnPoolShare(uint amount)\n        internal\n    {\n        _burn(amount);\n    }\n\n}\n",
    "sourcePath": "/Users/thomas/code/balancer-core/contracts/BPool.sol",
    "compiler": {
        "name": "solc",
        "version": "0.5.12+commit.7709ece9.Emscripten.clang"
    },
    "schemaVersion": "3.0.11",
    "updatedAt": "2020-01-23T03:32:50.570Z",
    "devdoc": {
        "methods": {}
    },
    "userdoc": {
        "methods": {
            "calcInGivenOut(uint256,uint256,uint256,uint256,uint256,uint256)": {
                "notice": "******************************************************************************************** // calcInGivenOut                                                                            // // aI = tokenAmountIn                                                                        // // bO = tokenBalanceOut               /  /     bO      \\    (wO / wI)      \\                 // // bI = tokenBalanceIn          bI * |  | ------------  | ^            - 1  |                // // aO = tokenAmountOut    aI =        \\  \\ ( bO - aO ) /                   /                 // // wI = tokenWeightIn           --------------------------------------------                 // // wO = tokenWeightOut                          ( 1 - sF )                                   // // sF = swapFee                                                                              //*********************************************************************************************"
            },
            "calcOutGivenIn(uint256,uint256,uint256,uint256,uint256,uint256)": {
                "notice": "******************************************************************************************** // calcOutGivenIn                                                                            // // aO = tokenAmountOut                                                                       // // bO = tokenBalanceOut                                                                      // // bI = tokenBalanceIn              /      /            bI             \\    (wI / wO) \\      // // aI = tokenAmountIn    aO = bO * |  1 - | --------------------------  | ^            |     // // wI = tokenWeightIn               \\      \\ ( bI + ( aI * ( 1 - sF )) /              /      // // wO = tokenWeightOut                                                                       // // sF = swapFee                                                                              //*********************************************************************************************"
            },
            "calcPoolInGivenSingleOut(uint256,uint256,uint256,uint256,uint256,uint256)": {
                "notice": "******************************************************************************************** // calcPoolInGivenSingleOut                                                                  // // pAi = poolAmountIn               // /               tAo             \\\\     / wO \\     \\   // // bO = tokenBalanceOut            // | bO - -------------------------- |\\   | ---- |     \\  // // tAo = tokenAmountOut      pS - ||   \\     1 - ((1 - (tO / tW)) * sF)/  | ^ \\ tW /  * pS | // // ps = poolSupply                 \\\\ -----------------------------------/                /  // // wO = tokenWeightOut  pAi =       \\\\               bO                 /                /   // // tW = totalWeight           -------------------------------------------------------------  // // sF = swapFee                                        ( 1 - eF )                            // // eF = exitFee                                                                              //*********************************************************************************************"
            },
            "calcPoolOutGivenSingleIn(uint256,uint256,uint256,uint256,uint256,uint256)": {
                "notice": "******************************************************************************************** // calcPoolOutGivenSingleIn                                                                  // // pAo = poolAmountOut         /                                              \\              // // tAi = tokenAmountIn        ///      /     //    wI \\      \\\\       \\     wI \\             // // wI = tokenWeightIn        //| tAi *| 1 - || 1 - --  | * sF || + tBi \\    --  \\            // // tW = totalWeight     pAo=||  \\      \\     \\\\    tW /      //         | ^ tW   | * pS - pS // // tBi = tokenBalanceIn      \\\\  ------------------------------------- /        /            // // pS = poolSupply            \\\\                    tBi               /        /             // // sF = swapFee                \\                                              /              //*********************************************************************************************"
            },
            "calcSingleInGivenPoolOut(uint256,uint256,uint256,uint256,uint256,uint256)": {
                "notice": "******************************************************************************************** // calcSingleInGivenPoolOut                                                                  // // tAi = tokenAmountIn              //(pS + pAo)\\     /    1    \\\\                           // // pS = poolSupply                 || ---------  | ^ | --------- || * bI - bI                // // pAo = poolAmountOut              \\\\    pS    /     \\(wI / tW)//                           // // bI = balanceIn          tAi =  --------------------------------------------               // // wI = weightIn                              /      wI  \\                                   // // tW = totalWeight                          |  1 - ----  |  * sF                            // // sF = swapFee                               \\      tW  /                                   //*********************************************************************************************"
            },
            "calcSingleOutGivenPoolIn(uint256,uint256,uint256,uint256,uint256,uint256)": {
                "notice": "******************************************************************************************** // calcSingleOutGivenPoolIn                                                                  // // tAo = tokenAmountOut            /      /                                             \\\\   // // bO = tokenBalanceOut           /      // pS - (pAi * (1 - eF)) \\     /    1    \\      \\\\  // // pAi = poolAmountIn            | bO - || ----------------------- | ^ | --------- | * b0 || // // ps = poolSupply                \\      \\\\          pS           /     \\(wO / tW)/      //  // // wI = tokenWeightIn      tAo =   \\      \\                                             //   // // tW = totalWeight                    /     /      wO \\       \\                             // // sF = swapFee                    *  | 1 - |  1 - ---- | * sF  |                            // // eF = exitFee                        \\     \\      tW /       /                             //*********************************************************************************************"
            },
            "calcSpotPrice(uint256,uint256,uint256,uint256,uint256)": {
                "notice": "******************************************************************************************** // calcSpotPrice                                                                             // // sP = spotPrice                                                                            // // bI = tokenBalanceIn                ( bI / wI )         1                                  // // bO = tokenBalanceOut         sP =  -----------  *  ----------                             // // wI = tokenWeightIn                 ( bO / wO )     ( 1 - sF )                             // // wO = tokenWeightOut                                                                       // // sF = swapFee                                                                              //*********************************************************************************************"
            }
        }
    }
}