{
  "contractName": "BPool",
  "abi": [
    {
      "constant": false,
      "inputs": [
        {
          "internalType": "address",
          "name": "guy",
          "type": "address"
        },
        {
          "internalType": "uint256",
          "name": "wad",
          "type": "uint256"
        }
      ],
      "name": "approve",
      "outputs": [
        {
          "internalType": "bool",
          "name": "",
          "type": "bool"
        }
      ],
      "payable": false,
      "stateMutability": "nonpayable",
      "type": "function"
    },
    {
      "constant": true,
      "inputs": [],
      "name": "totalSupply",
      "outputs": [
        {
          "internalType": "uint256",
          "name": "",
          "type": "uint256"
        }
      ],
      "payable": false,
      "stateMutability": "view",
      "type": "function"
    },
    {
      "constant": false,
      "inputs": [
        {
          "internalType": "address",
          "name": "src",
          "type": "address"
        },
        {
          "internalType": "address",
          "name": "dst",
          "type": "address"
        },
        {
          "internalType": "uint256",
          "name": "wad",
          "type": "uint256"
        }
      ],
      "name": "transferFrom",
      "outputs": [
        {
          "internalType": "bool",
          "name": "",
          "type": "bool"
        }
      ],
      "payable": false,
      "stateMutability": "nonpayable",
      "type": "function"
    },
    {
      "constant": true,
      "inputs": [
        {
          "internalType": "address",
          "name": "whom",
          "type": "address"
        }
      ],
      "name": "balanceOf",
      "outputs": [
        {
          "internalType": "uint256",
          "name": "",
          "type": "uint256"
        }
      ],
      "payable": false,
      "stateMutability": "view",
      "type": "function"
    },
    {
      "constant": true,
      "inputs": [],
      "name": "getColor",
      "outputs": [
        {
          "internalType": "bytes32",
          "name": "",
          "type": "bytes32"
        }
      ],
      "payable": false,
      "stateMutability": "view",
      "type": "function"
    },
    {
      "constant": false,
      "inputs": [
        {
          "internalType": "address",
          "name": "dst",
          "type": "address"
        },
        {
          "internalType": "uint256",
          "name": "wad",
          "type": "uint256"
        }
      ],
      "name": "transfer",
      "outputs": [
        {
          "internalType": "bool",
          "name": "",
          "type": "bool"
        }
      ],
      "payable": false,
      "stateMutability": "nonpayable",
      "type": "function"
    },
    {
      "constant": true,
      "inputs": [
        {
          "internalType": "address",
          "name": "src",
          "type": "address"
        },
        {
          "internalType": "address",
          "name": "guy",
          "type": "address"
        }
      ],
      "name": "allowance",
      "outputs": [
        {
          "internalType": "uint256",
          "name": "",
          "type": "uint256"
        }
      ],
      "payable": false,
      "stateMutability": "view",
      "type": "function"
    },
    {
      "inputs": [],
      "payable": false,
      "stateMutability": "nonpayable",
      "type": "constructor"
    },
    {
      "anonymous": false,
      "inputs": [
        {
          "indexed": true,
          "internalType": "address",
          "name": "caller",
          "type": "address"
        },
        {
          "indexed": true,
          "internalType": "address",
          "name": "tokenIn",
          "type": "address"
        },
        {
          "indexed": true,
          "internalType": "address",
          "name": "tokenOut",
          "type": "address"
        },
        {
          "indexed": false,
          "internalType": "uint256",
          "name": "tokenAmountIn",
          "type": "uint256"
        },
        {
          "indexed": false,
          "internalType": "uint256",
          "name": "tokenAmountOut",
          "type": "uint256"
        }
      ],
      "name": "LOG_SWAP",
      "type": "event"
    },
    {
      "anonymous": false,
      "inputs": [
        {
          "indexed": true,
          "internalType": "address",
          "name": "caller",
          "type": "address"
        },
        {
          "indexed": true,
          "internalType": "address",
          "name": "tokenIn",
          "type": "address"
        },
        {
          "indexed": false,
          "internalType": "uint256",
          "name": "tokenAmountIn",
          "type": "uint256"
        }
      ],
      "name": "LOG_JOIN",
      "type": "event"
    },
    {
      "anonymous": false,
      "inputs": [
        {
          "indexed": true,
          "internalType": "address",
          "name": "caller",
          "type": "address"
        },
        {
          "indexed": true,
          "internalType": "address",
          "name": "tokenOut",
          "type": "address"
        },
        {
          "indexed": false,
          "internalType": "uint256",
          "name": "tokenAmountOut",
          "type": "uint256"
        }
      ],
      "name": "LOG_EXIT",
      "type": "event"
    },
    {
      "anonymous": true,
      "inputs": [
        {
          "indexed": true,
          "internalType": "bytes4",
          "name": "sig",
          "type": "bytes4"
        },
        {
          "indexed": true,
          "internalType": "address",
          "name": "caller",
          "type": "address"
        },
        {
          "indexed": false,
          "internalType": "bytes",
          "name": "data",
          "type": "bytes"
        }
      ],
      "name": "LOG_CALL",
      "type": "event"
    },
    {
      "anonymous": false,
      "inputs": [
        {
          "indexed": true,
          "internalType": "address",
          "name": "src",
          "type": "address"
        },
        {
          "indexed": true,
          "internalType": "address",
          "name": "guy",
          "type": "address"
        },
        {
          "indexed": false,
          "internalType": "uint256",
          "name": "wad",
          "type": "uint256"
        }
      ],
      "name": "Approval",
      "type": "event"
    },
    {
      "anonymous": false,
      "inputs": [
        {
          "indexed": true,
          "internalType": "address",
          "name": "src",
          "type": "address"
        },
        {
          "indexed": true,
          "internalType": "address",
          "name": "dst",
          "type": "address"
        },
        {
          "indexed": false,
          "internalType": "uint256",
          "name": "wad",
          "type": "uint256"
        }
      ],
      "name": "Transfer",
      "type": "event"
    },
    {
      "anonymous": false,
      "inputs": [
        {
          "indexed": false,
          "internalType": "uint256",
          "name": "amt",
          "type": "uint256"
        }
      ],
      "name": "Mint",
      "type": "event"
    },
    {
      "anonymous": false,
      "inputs": [
        {
          "indexed": false,
          "internalType": "uint256",
          "name": "amt",
          "type": "uint256"
        }
      ],
      "name": "Burn",
      "type": "event"
    },
    {
      "anonymous": false,
      "inputs": [
        {
          "indexed": true,
          "internalType": "address",
          "name": "src",
          "type": "address"
        },
        {
          "indexed": true,
          "internalType": "address",
          "name": "dst",
          "type": "address"
        },
        {
          "indexed": false,
          "internalType": "uint256",
          "name": "amt",
          "type": "uint256"
        }
      ],
      "name": "Move",
      "type": "event"
    },
    {
      "constant": true,
      "inputs": [],
      "name": "isPublicSwap",
      "outputs": [
        {
          "internalType": "bool",
          "name": "",
          "type": "bool"
        }
      ],
      "payable": false,
      "stateMutability": "view",
      "type": "function"
    },
    {
      "constant": true,
      "inputs": [],
      "name": "isFinalized",
      "outputs": [
        {
          "internalType": "bool",
          "name": "",
          "type": "bool"
        }
      ],
      "payable": false,
      "stateMutability": "view",
      "type": "function"
    },
    {
      "constant": true,
      "inputs": [
        {
          "internalType": "address",
          "name": "t",
          "type": "address"
        }
      ],
      "name": "isBound",
      "outputs": [
        {
          "internalType": "bool",
          "name": "",
          "type": "bool"
        }
      ],
      "payable": false,
      "stateMutability": "view",
      "type": "function"
    },
    {
      "constant": true,
      "inputs": [],
      "name": "getNumTokens",
      "outputs": [
        {
          "internalType": "uint256",
          "name": "",
          "type": "uint256"
        }
      ],
      "payable": false,
      "stateMutability": "view",
      "type": "function"
    },
    {
      "constant": true,
      "inputs": [],
      "name": "getCurrentTokens",
      "outputs": [
        {
          "internalType": "address[]",
          "name": "tokens",
          "type": "address[]"
        }
      ],
      "payable": false,
      "stateMutability": "view",
      "type": "function"
    },
    {
      "constant": true,
      "inputs": [],
      "name": "getFinalTokens",
      "outputs": [
        {
          "internalType": "address[]",
          "name": "tokens",
          "type": "address[]"
        }
      ],
      "payable": false,
      "stateMutability": "view",
      "type": "function"
    },
    {
      "constant": true,
      "inputs": [
        {
          "internalType": "address",
          "name": "token",
          "type": "address"
        }
      ],
      "name": "getDenormalizedWeight",
      "outputs": [
        {
          "internalType": "uint256",
          "name": "",
          "type": "uint256"
        }
      ],
      "payable": false,
      "stateMutability": "view",
      "type": "function"
    },
    {
      "constant": true,
      "inputs": [],
      "name": "getTotalDenormalizedWeight",
      "outputs": [
        {
          "internalType": "uint256",
          "name": "",
          "type": "uint256"
        }
      ],
      "payable": false,
      "stateMutability": "view",
      "type": "function"
    },
    {
      "constant": true,
      "inputs": [
        {
          "internalType": "address",
          "name": "token",
          "type": "address"
        }
      ],
      "name": "getNormalizedWeight",
      "outputs": [
        {
          "internalType": "uint256",
          "name": "",
          "type": "uint256"
        }
      ],
      "payable": false,
      "stateMutability": "view",
      "type": "function"
    },
    {
      "constant": true,
      "inputs": [
        {
          "internalType": "address",
          "name": "token",
          "type": "address"
        }
      ],
      "name": "getBalance",
      "outputs": [
        {
          "internalType": "uint256",
          "name": "",
          "type": "uint256"
        }
      ],
      "payable": false,
      "stateMutability": "view",
      "type": "function"
    },
    {
      "constant": true,
      "inputs": [],
      "name": "getSwapFee",
      "outputs": [
        {
          "internalType": "uint256",
          "name": "",
          "type": "uint256"
        }
      ],
      "payable": false,
      "stateMutability": "view",
      "type": "function"
    },
    {
      "constant": true,
      "inputs": [],
      "name": "getController",
      "outputs": [
        {
          "internalType": "address",
          "name": "",
          "type": "address"
        }
      ],
      "payable": false,
      "stateMutability": "view",
      "type": "function"
    },
    {
      "constant": false,
      "inputs": [
        {
          "internalType": "uint256",
          "name": "swapFee",
          "type": "uint256"
        }
      ],
      "name": "setSwapFee",
      "outputs": [],
      "payable": false,
      "stateMutability": "nonpayable",
      "type": "function"
    },
    {
      "constant": false,
      "inputs": [
        {
          "internalType": "address",
          "name": "manager",
          "type": "address"
        }
      ],
      "name": "setController",
      "outputs": [],
      "payable": false,
      "stateMutability": "nonpayable",
      "type": "function"
    },
    {
      "constant": false,
      "inputs": [
        {
          "internalType": "bool",
          "name": "public_",
          "type": "bool"
        }
      ],
      "name": "setPublicSwap",
      "outputs": [],
      "payable": false,
      "stateMutability": "nonpayable",
      "type": "function"
    },
    {
      "constant": false,
      "inputs": [
        {
          "internalType": "uint256",
          "name": "initSupply",
          "type": "uint256"
        }
      ],
      "name": "finalize",
      "outputs": [],
      "payable": false,
      "stateMutability": "nonpayable",
      "type": "function"
    },
    {
      "constant": false,
      "inputs": [
        {
          "internalType": "address",
          "name": "token",
          "type": "address"
        },
        {
          "internalType": "uint256",
          "name": "balance",
          "type": "uint256"
        },
        {
          "internalType": "uint256",
          "name": "denorm",
          "type": "uint256"
        }
      ],
      "name": "bind",
      "outputs": [],
      "payable": false,
      "stateMutability": "nonpayable",
      "type": "function"
    },
    {
      "constant": false,
      "inputs": [
        {
          "internalType": "address",
          "name": "token",
          "type": "address"
        },
        {
          "internalType": "uint256",
          "name": "balance",
          "type": "uint256"
        },
        {
          "internalType": "uint256",
          "name": "denorm",
          "type": "uint256"
        }
      ],
      "name": "rebind",
      "outputs": [],
      "payable": false,
      "stateMutability": "nonpayable",
      "type": "function"
    },
    {
      "constant": false,
      "inputs": [
        {
          "internalType": "address",
          "name": "token",
          "type": "address"
        }
      ],
      "name": "unbind",
      "outputs": [],
      "payable": false,
      "stateMutability": "nonpayable",
      "type": "function"
    },
    {
      "constant": false,
      "inputs": [
        {
          "internalType": "address",
          "name": "token",
          "type": "address"
        }
      ],
      "name": "gulp",
      "outputs": [],
      "payable": false,
      "stateMutability": "nonpayable",
      "type": "function"
    },
    {
      "constant": true,
      "inputs": [
        {
          "internalType": "address",
          "name": "tokenIn",
          "type": "address"
        },
        {
          "internalType": "address",
          "name": "tokenOut",
          "type": "address"
        }
      ],
      "name": "getSpotPrice",
      "outputs": [
        {
          "internalType": "uint256",
          "name": "spotPrice",
          "type": "uint256"
        }
      ],
      "payable": false,
      "stateMutability": "view",
      "type": "function"
    },
    {
      "constant": true,
      "inputs": [
        {
          "internalType": "address",
          "name": "tokenIn",
          "type": "address"
        },
        {
          "internalType": "address",
          "name": "tokenOut",
          "type": "address"
        }
      ],
      "name": "getSpotPriceSansFee",
      "outputs": [
        {
          "internalType": "uint256",
          "name": "spotPrice",
          "type": "uint256"
        }
      ],
      "payable": false,
      "stateMutability": "view",
      "type": "function"
    },
    {
      "constant": false,
      "inputs": [
        {
          "internalType": "uint256",
          "name": "poolAmountOut",
          "type": "uint256"
        }
      ],
      "name": "joinPool",
      "outputs": [],
      "payable": false,
      "stateMutability": "nonpayable",
      "type": "function"
    },
    {
      "constant": false,
      "inputs": [
        {
          "internalType": "uint256",
          "name": "poolAmountIn",
          "type": "uint256"
        }
      ],
      "name": "exitPool",
      "outputs": [],
      "payable": false,
      "stateMutability": "nonpayable",
      "type": "function"
    },
    {
      "constant": false,
      "inputs": [
        {
          "internalType": "address",
          "name": "tokenIn",
          "type": "address"
        },
        {
          "internalType": "uint256",
          "name": "tokenAmountIn",
          "type": "uint256"
        },
        {
          "internalType": "address",
          "name": "tokenOut",
          "type": "address"
        },
        {
          "internalType": "uint256",
          "name": "minAmountOut",
          "type": "uint256"
        },
        {
          "internalType": "uint256",
          "name": "maxPrice",
          "type": "uint256"
        }
      ],
      "name": "swap_ExactAmountIn",
      "outputs": [
        {
          "internalType": "uint256",
          "name": "tokenAmountOut",
          "type": "uint256"
        },
        {
          "internalType": "uint256",
          "name": "spotPriceTarget",
          "type": "uint256"
        }
      ],
      "payable": false,
      "stateMutability": "nonpayable",
      "type": "function"
    },
    {
      "constant": false,
      "inputs": [
        {
          "internalType": "address",
          "name": "tokenIn",
          "type": "address"
        },
        {
          "internalType": "uint256",
          "name": "maxAmountIn",
          "type": "uint256"
        },
        {
          "internalType": "address",
          "name": "tokenOut",
          "type": "address"
        },
        {
          "internalType": "uint256",
          "name": "tokenAmountOut",
          "type": "uint256"
        },
        {
          "internalType": "uint256",
          "name": "maxPrice",
          "type": "uint256"
        }
      ],
      "name": "swap_ExactAmountOut",
      "outputs": [
        {
          "internalType": "uint256",
          "name": "tokenAmountIn",
          "type": "uint256"
        },
        {
          "internalType": "uint256",
          "name": "spotPriceTarget",
          "type": "uint256"
        }
      ],
      "payable": false,
      "stateMutability": "nonpayable",
      "type": "function"
    },
    {
      "constant": false,
      "inputs": [
        {
          "internalType": "address",
          "name": "tokenIn",
          "type": "address"
        },
        {
          "internalType": "uint256",
          "name": "maxAmountIn",
          "type": "uint256"
        },
        {
          "internalType": "address",
          "name": "tokenOut",
          "type": "address"
        },
        {
          "internalType": "uint256",
          "name": "minAmountOut",
          "type": "uint256"
        },
        {
          "internalType": "uint256",
          "name": "marginalPrice",
          "type": "uint256"
        }
      ],
      "name": "swap_ExactMarginalPrice",
      "outputs": [
        {
          "internalType": "uint256",
          "name": "tokenAmountIn",
          "type": "uint256"
        },
        {
          "internalType": "uint256",
          "name": "tokenAmountOut",
          "type": "uint256"
        }
      ],
      "payable": false,
      "stateMutability": "nonpayable",
      "type": "function"
    },
    {
      "constant": false,
      "inputs": [
        {
          "internalType": "address",
          "name": "tokenIn",
          "type": "address"
        },
        {
          "internalType": "uint256",
          "name": "tokenAmountIn",
          "type": "uint256"
        }
      ],
      "name": "joinswap_ExternAmountIn",
      "outputs": [
        {
          "internalType": "uint256",
          "name": "poolAmountOut",
          "type": "uint256"
        }
      ],
      "payable": false,
      "stateMutability": "nonpayable",
      "type": "function"
    },
    {
      "constant": false,
      "inputs": [
        {
          "internalType": "uint256",
          "name": "poolAmountOut",
          "type": "uint256"
        },
        {
          "internalType": "address",
          "name": "tokenIn",
          "type": "address"
        }
      ],
      "name": "joinswap_PoolAmountOut",
      "outputs": [
        {
          "internalType": "uint256",
          "name": "tokenAmountIn",
          "type": "uint256"
        }
      ],
      "payable": false,
      "stateMutability": "nonpayable",
      "type": "function"
    },
    {
      "constant": false,
      "inputs": [
        {
          "internalType": "uint256",
          "name": "poolAmountIn",
          "type": "uint256"
        },
        {
          "internalType": "address",
          "name": "tokenOut",
          "type": "address"
        }
      ],
      "name": "exitswap_PoolAmountIn",
      "outputs": [
        {
          "internalType": "uint256",
          "name": "tokenAmountOut",
          "type": "uint256"
        }
      ],
      "payable": false,
      "stateMutability": "nonpayable",
      "type": "function"
    },
    {
      "constant": false,
      "inputs": [
        {
          "internalType": "address",
          "name": "tokenOut",
          "type": "address"
        },
        {
          "internalType": "uint256",
          "name": "tokenAmountOut",
          "type": "uint256"
        }
      ],
      "name": "exitswap_ExternAmountOut",
      "outputs": [
        {
          "internalType": "uint256",
          "name": "poolAmountIn",
          "type": "uint256"
        }
      ],
      "payable": false,
      "stateMutability": "nonpayable",
      "type": "function"
    }
  ],
  "bytecode": "0x608060405234801561001057600080fd5b50600480546003805461010060a860020a03191633610100810291909117909155600160a060020a03199091161760a060020a60ff02191690556006805460ff1916905561664980620000646000396000f3fe608060405234801561001057600080fd5b506004361061024f576000357c0100000000000000000000000000000000000000000000000000000000900480638d4e40831161014d578063cc77828d116100d5578063dd62ed3e11610099578063dd62ed3e1461074c578063e4e1e5381461077a578063f1b8a9b7146107ac578063f8b2cb4f146107d2578063fde924f7146107f85761024f565b8063cc77828d146106ce578063cd2ed8fb146106d6578063ce1d477d146106de578063cf5e7bd31461071e578063d4cadf68146107445761024f565b80639a86139b1161011c5780639a86139b146105f9578063a9059cbb14610601578063be1d24ad1461062d578063be3bbd2e1461064a578063c83d529e146106a25761024f565b80638d4e40831461059d57806392eefe9b146105a5578063936c3477146105cb578063948d8ce6146105d35761024f565b806334e19907116101db5780634b0f9faa1161019f5780634b0f9faa1461048c5780635718db49146104b857806362fd79421461051157806370a08231146105515780638c28cbe8146105775761024f565b806334e19907146103d557806334e7a19f146103f25780633fdddaa21461040f578063483605e81461044157806349b595521461046d5761024f565b806318160ddd1161022257806318160ddd146103215780631ecc61bc1461032957806323b872dd146103555780632f37b6241461038b5780633018205f146103b15761024f565b806305261aea14610254578063095ea7b3146102735780631446a7ff146102b357806315e84af9146102f3575b600080fd5b6102716004803603602081101561026a57600080fd5b5035610800565b005b61029f6004803603604081101561028957600080fd5b50600160a060020a038135169060200135610b10565b604080519115158252519081900360200190f35b6102e1600480360360408110156102c957600080fd5b50600160a060020a0381358116916020013516610b75565b60408051918252519081900360200190f35b6102e16004803603604081101561030957600080fd5b50600160a060020a0381358116916020013516610d37565b6102e1610ef0565b6102e16004803603604081101561033f57600080fd5b5080359060200135600160a060020a0316610ef6565b61029f6004803603606081101561036b57600080fd5b50600160a060020a03813581169160208101359091169060400135611195565b61029f600480360360208110156103a157600080fd5b5035600160a060020a0316611301565b6103b961131e565b60408051600160a060020a039092168252519081900360200190f35b610271600480360360208110156103eb57600080fd5b50356113a9565b6102716004803603602081101561040857600080fd5b5035611627565b6102716004803603606081101561042557600080fd5b50600160a060020a0381351690602081013590604001356118c1565b6102e16004803603604081101561045757600080fd5b50600160a060020a038135169060200135611f0a565b6102716004803603602081101561048357600080fd5b503515156121a9565b6102e1600480360360408110156104a257600080fd5b50600160a060020a0381351690602001356123d3565b6104f8600480360360a08110156104ce57600080fd5b50600160a060020a03813581169160208101359160408201351690606081013590608001356126b0565b6040805192835260208301919091528051918290030190f35b6104f8600480360360a081101561052757600080fd5b50600160a060020a0381358116916020810135916040820135169060608101359060800135612d9f565b6102e16004803603602081101561056757600080fd5b5035600160a060020a0316613466565b6102716004803603602081101561058d57600080fd5b5035600160a060020a0316613481565b61029f613699565b610271600480360360208110156105bb57600080fd5b5035600160a060020a03166136a2565b6102e1613844565b6102e1600480360360208110156105e957600080fd5b5035600160a060020a03166138c6565b6102e16139dd565b61029f6004803603604081101561061757600080fd5b50600160a060020a038135169060200135613a01565b6102716004803603602081101561064357600080fd5b5035613a45565b610652613d23565b60408051602080825283518183015283519192839290830191858101910280838360005b8381101561068e578181015183820152602001610676565b505050509050019250505060405180910390f35b6102e1600480360360408110156106b857600080fd5b5080359060200135600160a060020a0316613e88565b610652614160565b6102e16141da565b6104f8600480360360a08110156106f457600080fd5b50600160a060020a03813581169160208101359160408201351690606081013590608001356141e0565b6102716004803603602081101561073457600080fd5b5035600160a060020a03166148a6565b6102e1614cc9565b6102e16004803603604081101561076257600080fd5b50600160a060020a0381358116916020013516614d4b565b6102716004803603606081101561079057600080fd5b50600160a060020a038135169060208101359060400135614d74565b6102e1600480360360208110156107c257600080fd5b5035600160a060020a0316615093565b6102e1600480360360208110156107e857600080fd5b5035600160a060020a03166151bc565b61029f6152d3565b33600160a060020a0316600035600160e060020a031916600160e060020a03191660003660405180806020018281038252848482818152602001925080828437600083820152604051601f909101601f19169092018290039550909350505050a260035460408051808201909152600b815260008051602061653583398151915260208201529060ff16156109165760405160e560020a62461bcd0281526004018080602001828103825283818151815260200191508051906020019080838360005b838110156108db5781810151838201526020016108c3565b50505050905090810190601f1680156109085780820380516001836020036101000a031916815260200191505b509250505060405180910390fd5b506003805460ff19166001179055600454604080518082019091526012815260008051602061657583398151915260208201529033600160a060020a03909116146109a55760405160e560020a62461bcd0281526020600482018181528351602484015283519092839260449091019190850190808383600083156108db5781810151838201526020016108c3565b5060065460408051808201909152601081526000805160206165d583398151915260208201529060ff1615610a1e5760405160e560020a62461bcd0281526020600482018181528351602484015283519092839260449091019190850190808383600083156108db5781810151838201526020016108c3565b5060408051808201909152601381527f4552525f4d494e5f504f4f4c5f535550504c59000000000000000000000000006020820152670de0b6b3a7640000821015610aad5760405160e560020a62461bcd0281526020600482018181528351602484015283519092839260449091019190850190808383600083156108db5781810151838201526020016108c3565b506006805460ff191660011790556004805474ff0000000000000000000000000000000000000000191674010000000000000000000000000000000000000000179055610af9816152f4565b610b033382615300565b506003805460ff19169055565b33600081815260208181526040808320600160a060020a038716808552908352818420869055815186815291519394909390927f8c5be1e5ebec7d5bd14f71427d1e84f3dd0314c0f7b2291e5b200ac8c7c3b925928290030190a35060015b92915050565b60035460408051808201909152600b8152600080516020616535833981519152602082015260009160ff1615610bef5760405160e560020a62461bcd0281526020600482018181528351602484015283519092839260449091019190850190808383600083156108db5781810151838201526020016108c3565b50610bf983611301565b6040518060400160405280600d81526020016000805160206165b583398151915281525090610c6c5760405160e560020a62461bcd0281526020600482018181528351602484015283519092839260449091019190850190808383600083156108db5781810151838201526020016108c3565b50610c7682611301565b6040518060400160405280600d81526020016000805160206165b583398151915281525090610ce95760405160e560020a62461bcd0281526020600482018181528351602484015283519092839260449091019190850190808383600083156108db5781810151838201526020016108c3565b50600160a060020a038084166000908152600860205260408082209285168252812060028084015460018086015492840154908401549394610d2e949293929061530e565b95945050505050565b60035460408051808201909152600b8152600080516020616535833981519152602082015260009160ff1615610db15760405160e560020a62461bcd0281526020600482018181528351602484015283519092839260449091019190850190808383600083156108db5781810151838201526020016108c3565b50610dbb83611301565b6040518060400160405280600d81526020016000805160206165b583398151915281525090610e2e5760405160e560020a62461bcd0281526020600482018181528351602484015283519092839260449091019190850190808383600083156108db5781810151838201526020016108c3565b50610e3882611301565b6040518060400160405280600d81526020016000805160206165b583398151915281525090610eab5760405160e560020a62461bcd0281526020600482018181528351602484015283519092839260449091019190850190808383600083156108db5781810151838201526020016108c3565b50600160a060020a03808416600090815260086020526040808220928516825290206002808301546001808501549284015490840154600554610d2e9492919061530e565b60025490565b600033600160a060020a0316600035600160e060020a031916600160e060020a03191660003660405180806020018281038252848482818152602001925080828437600083820152604051601f909101601f19169092018290039550909350505050a260035460408051808201909152600b815260008051602061653583398151915260208201529060ff1615610fd15760405160e560020a62461bcd0281526020600482018181528351602484015283519092839260449091019190850190808383600083156108db5781810151838201526020016108c3565b506003805460ff19166001179055610fe882611301565b6040518060400160405280600d81526020016000805160206165b58339815191528152509061105b5760405160e560020a62461bcd0281526020600482018181528351602484015283519092839260449091019190850190808383600083156108db5781810151838201526020016108c3565b506110646152d3565b604051806040016040528060138152602001600080516020616555833981519152815250906110d75760405160e560020a62461bcd0281526020600482018181528351602484015283519092839260449091019190850190808383600083156108db5781810151838201526020016108c3565b50600160a060020a038216600090815260086020526040902060028082015460018301549154600954600554611111949291908990615378565b915061112181600201548361542b565b600282015561112f846152f4565b6111393385615300565b6111448333846154c0565b604080518381529051600160a060020a0385169133917f63982df10efd8dfaaaa0fcc7f50b2d93b7cba26ccc48adee2873220d485dc39a9181900360200190a3506003805460ff1916905592915050565b600033600160a060020a03851614806111cf5750600160a060020a0384166000908152602081815260408083203384529091529020548211155b611223576040805160e560020a62461bcd02815260206004820152601560248201527f4552525f42544f4b454e5f4241445f43414c4c45520000000000000000000000604482015290519081900360640190fd5b61122e8484846155eb565b82600160a060020a031684600160a060020a0316600080516020616595833981519152846040518082815260200191505060405180910390a333600160a060020a038516148015906112a35750600160a060020a03841660009081526020818152604080832033845290915290205460001914155b156112f757600160a060020a0384166000908152602081815260408083203384529091529020546112d49083615709565b600160a060020a0385166000908152602081815260408083203384529091529020555b5060019392505050565b600160a060020a0316600090815260086020526040902054151590565b60035460408051808201909152600b8152600080516020616535833981519152602082015260009160ff16156113985760405160e560020a62461bcd0281526020600482018181528351602484015283519092839260449091019190850190808383600083156108db5781810151838201526020016108c3565b5050600454600160a060020a031690565b33600160a060020a0316600035600160e060020a031916600160e060020a03191660003660405180806020018281038252848482818152602001925080828437600083820152604051601f909101601f19169092018290039550909350505050a260035460408051808201909152600b815260008051602061653583398151915260208201529060ff16156114825760405160e560020a62461bcd0281526020600482018181528351602484015283519092839260449091019190850190808383600083156108db5781810151838201526020016108c3565b506003805460ff1916600117905560065460408051808201909152601081526000805160206165d583398151915260208201529060ff16156115085760405160e560020a62461bcd0281526020600482018181528351602484015283519092839260449091019190850190808383600083156108db5781810151838201526020016108c3565b506004546040805180820190915260128152600080516020616575833981519152602082015290600160a060020a031633146115885760405160e560020a62461bcd0281526020600482018181528351602484015283519092839260449091019190850190808383600083156108db5781810151838201526020016108c3565b5060408051808201909152600b81527f4552525f4d41585f464545000000000000000000000000000000000000000000602082015267016345785d8a00008211156116175760405160e560020a62461bcd0281526020600482018181528351602484015283519092839260449091019190850190808383600083156108db5781810151838201526020016108c3565b506005556003805460ff19169055565b33600160a060020a0316600035600160e060020a031916600160e060020a03191660003660405180806020018281038252848482818152602001925080828437600083820152604051601f909101601f19169092018290039550909350505050a260035460408051808201909152600b815260008051602061653583398151915260208201529060ff16156117005760405160e560020a62461bcd0281526020600482018181528351602484015283519092839260449091019190850190808383600083156108db5781810151838201526020016108c3565b506003805460ff1916600117905560065460408051808201909152601181527f4552525f4e4f545f46494e414c495a454400000000000000000000000000000060208201529060ff166117975760405160e560020a62461bcd0281526020600482018181528351602484015283519092839260449091019190850190808383600083156108db5781810151838201526020016108c3565b5060006117a2610ef0565b905060006117b08383615769565b905060005b60075481101561189e576000600782815481106117ce57fe5b6000918252602080832090910154600160a060020a031680835260089091526040822060020154909250906118038583615942565b600160a060020a03841660009081526008602052604090206002015490915061182c908261542b565b600160a060020a0384166000908152600860205260409020600201556118538333836154c0565b604080518281529051600160a060020a0385169133917f63982df10efd8dfaaaa0fcc7f50b2d93b7cba26ccc48adee2873220d485dc39a9181900360200190a35050506001016117b5565b506118a8836152f4565b6118b23384615300565b50506003805460ff1916905550565b33600160a060020a0316600035600160e060020a031916600160e060020a03191660003660405180806020018281038252848482818152602001925080828437600083820152604051601f909101601f19169092018290039550909350505050a260035460408051808201909152600b815260008051602061653583398151915260208201529060ff161561199a5760405160e560020a62461bcd0281526020600482018181528351602484015283519092839260449091019190850190808383600083156108db5781810151838201526020016108c3565b506003805460ff19166001179055600454604080518082019091526012815260008051602061657583398151915260208201529033600160a060020a0390911614611a295760405160e560020a62461bcd0281526020600482018181528351602484015283519092839260449091019190850190808383600083156108db5781810151838201526020016108c3565b50611a3383611301565b6040518060400160405280600d81526020016000805160206165b583398151915281525090611aa65760405160e560020a62461bcd0281526020600482018181528351602484015283519092839260449091019190850190808383600083156108db5781810151838201526020016108c3565b5060065460408051808201909152601081526000805160206165d583398151915260208201529060ff1615611b1f5760405160e560020a62461bcd0281526020600482018181528351602484015283519092839260449091019190850190808383600083156108db5781810151838201526020016108c3565b5060408051808201909152600e81527f4552525f4d494e5f5745494748540000000000000000000000000000000000006020820152670de0b6b3a7640000821015611bae5760405160e560020a62461bcd0281526020600482018181528351602484015283519092839260449091019190850190808383600083156108db5781810151838201526020016108c3565b5060408051808201909152600e81527f4552525f4d41585f57454947485400000000000000000000000000000000000060208201526802b5e3af16b1880000821115611c3e5760405160e560020a62461bcd0281526020600482018181528351602484015283519092839260449091019190850190808383600083156108db5781810151838201526020016108c3565b5060408051808201909152600f81527f4552525f4d494e5f42414c414e43450000000000000000000000000000000000602082015264e8d4a51000831015611cca5760405160e560020a62461bcd0281526020600482018181528351602484015283519092839260449091019190850190808383600083156108db5781810151838201526020016108c3565b5060408051808201909152600f81527f4552525f4d41585f42414c414e4345000000000000000000000000000000000060208201526c0c9f2c9cd04674edea40000000831115611d5e5760405160e560020a62461bcd0281526020600482018181528351602484015283519092839260449091019190850190808383600083156108db5781810151838201526020016108c3565b50600160a060020a03831660009081526008602052604090206001015480821115611e3257611d98600954611d938484615a86565b61542b565b600981905560408051808201909152601481527f4552525f4d41585f544f54414c5f5745494748540000000000000000000000006020820152906802b5e3af16b18800001015611e2c5760405160e560020a62461bcd0281526020600482018181528351602484015283519092839260449091019190850190808383600083156108db5781810151838201526020016108c3565b50611e4b565b611e47600954611e428385615a86565b615a86565b6009555b600160a060020a03841660009081526008602052604090206001810183905560020180549084905580841115611e9457611e8f8533611e8a8785615a86565b6154c0565b611ef9565b80841015611ef9576000611ea88286615a86565b90506000611ec382612710670de0b6b3a76400005b04615942565b9050611ed98733611ed48585615a86565b615b2a565b600354611ef69088906101009004600160a060020a031683615b2a565b50505b50506003805460ff19169055505050565b600033600160a060020a0316600035600160e060020a031916600160e060020a03191660003660405180806020018281038252848482818152602001925080828437600083820152604051601f909101601f19169092018290039550909350505050a260035460408051808201909152600b815260008051602061653583398151915260208201529060ff1615611fe55760405160e560020a62461bcd0281526020600482018181528351602484015283519092839260449091019190850190808383600083156108db5781810151838201526020016108c3565b506003805460ff19166001179055611ffc83611301565b6040518060400160405280600d81526020016000805160206165b58339815191528152509061206f5760405160e560020a62461bcd0281526020600482018181528351602484015283519092839260449091019190850190808383600083156108db5781810151838201526020016108c3565b506120786152d3565b604051806040016040528060138152602001600080516020616555833981519152815250906120eb5760405160e560020a62461bcd0281526020600482018181528351602484015283519092839260449091019190850190808383600083156108db5781810151838201526020016108c3565b50600160a060020a038316600090815260086020526040902060028082015460018301549154600954600554612125949291908890615b96565b915061213581600201548461542b565b6002820155612143826152f4565b61214d3383615300565b6121588433856154c0565b604080518481529051600160a060020a0386169133917f63982df10efd8dfaaaa0fcc7f50b2d93b7cba26ccc48adee2873220d485dc39a9181900360200190a3506003805460ff1916905592915050565b33600160a060020a0316600035600160e060020a031916600160e060020a03191660003660405180806020018281038252848482818152602001925080828437600083820152604051601f909101601f19169092018290039550909350505050a260035460408051808201909152600b815260008051602061653583398151915260208201529060ff16156122825760405160e560020a62461bcd0281526020600482018181528351602484015283519092839260449091019190850190808383600083156108db5781810151838201526020016108c3565b506003805460ff1916600117905560065460408051808201909152601081526000805160206165d583398151915260208201529060ff16156123085760405160e560020a62461bcd0281526020600482018181528351602484015283519092839260449091019190850190808383600083156108db5781810151838201526020016108c3565b506004546040805180820190915260128152600080516020616575833981519152602082015290600160a060020a031633146123885760405160e560020a62461bcd0281526020600482018181528351602484015283519092839260449091019190850190808383600083156108db5781810151838201526020016108c3565b5060048054911515740100000000000000000000000000000000000000000274ff0000000000000000000000000000000000000000199092169190911790556003805460ff19169055565b600033600160a060020a0316600035600160e060020a031916600160e060020a03191660003660405180806020018281038252848482818152602001925080828437600083820152604051601f909101601f19169092018290039550909350505050a260035460408051808201909152600b815260008051602061653583398151915260208201529060ff16156124ae5760405160e560020a62461bcd0281526020600482018181528351602484015283519092839260449091019190850190808383600083156108db5781810151838201526020016108c3565b506003805460ff191660011790556124c583611301565b6040518060400160405280600d81526020016000805160206165b5833981519152815250906125385760405160e560020a62461bcd0281526020600482018181528351602484015283519092839260449091019190850190808383600083156108db5781810151838201526020016108c3565b506125416152d3565b604051806040016040528060138152602001600080516020616555833981519152815250906125b45760405160e560020a62461bcd0281526020600482018181528351602484015283519092839260449091019190850190808383600083156108db5781810151838201526020016108c3565b50600160a060020a0383166000908152600860205260409020600280820154600183015491546009546005546125ee949291908890615c37565b91506125fe816002015484615a86565b6002820155600061261a83612710670de0b6b3a7640000611ebd565b90506126263384615cfa565b6126386126338483615a86565b615d04565b600354612653906101009004600160a060020a031682615300565b61265e853386615b2a565b604080518581529051600160a060020a0387169133917fe74c91552b64c2e2e7bd255639e004e693bd3e1d01cc33e65610b86afcc1ffed9181900360200190a350506003805460ff1916905592915050565b6040805160208082523690820181905260009283923392600160e060020a03198535169285929081908101848480828437600083820152604051601f909101601f19169092018290039550909350505050a260035460408051808201909152600b815260008051602061653583398151915260208201529060ff161561277a5760405160e560020a62461bcd0281526020600482018181528351602484015283519092839260449091019190850190808383600083156108db5781810151838201526020016108c3565b506003805460ff1916600117905561279187611301565b6040518060400160405280600d81526020016000805160206165b5833981519152815250906128045760405160e560020a62461bcd0281526020600482018181528351602484015283519092839260449091019190850190808383600083156108db5781810151838201526020016108c3565b5061280e85611301565b6040518060400160405280600d81526020016000805160206165b5833981519152815250906128815760405160e560020a62461bcd0281526020600482018181528351602484015283519092839260449091019190850190808383600083156108db5781810151838201526020016108c3565b5061288a6152d3565b604051806040016040528060138152602001600080516020616555833981519152815250906128fd5760405160e560020a62461bcd0281526020600482018181528351602484015283519092839260449091019190850190808383600083156108db5781810151838201526020016108c3565b50600160a060020a0380881660009081526008602052604080822092881682529020600281015461293d906003670de0b6b3a76400005b04600101615942565b8311156040518060400160405280601181526020017f4552525f4d41585f4f55545f524154494f000000000000000000000000000000815250906129c55760405160e560020a62461bcd0281526020600482018181528351602484015283519092839260449091019190850190808383600083156108db5781810151838201526020016108c3565b5060006129e7836002015484600101548460020154856001015460055461530e565b90508086116040518060400160405280601381526020017f4552525f4241445f4c494d49545f50524943450000000000000000000000000081525090612a715760405160e560020a62461bcd0281526020600482018181528351602484015283519092839260449091019190850190808383600083156108db5781810151838201526020016108c3565b50612a9583600201548460010154846002015485600101546009548b600554615d0d565b9450612ab7836002015484600101548460020154856001015489600554615dc1565b9350888511156040518060400160405280600c81526020017f4552525f4c494d49545f494e000000000000000000000000000000000000000081525090612b425760405160e560020a62461bcd0281526020600482018181528351602484015283519092839260449091019190850190808383600083156108db5781810151838201526020016108c3565b5060408051808201909152600d81527f4552525f4c494d49545f4f555400000000000000000000000000000000000000602082015287851015612bc95760405160e560020a62461bcd0281526020600482018181528351602484015283519092839260449091019190850190808383600083156108db5781810151838201526020016108c3565b50612bd883600201548661542b565b8360020181905550612bee826002015485615a86565b82600201819055506000612c17846002015485600101548560020154866001015460055461530e565b9050818110156040518060400160405280600f81526020016000805160206165f583398151915281525090612c905760405160e560020a62461bcd0281526020600482018181528351602484015283519092839260449091019190850190808383600083156108db5781810151838201526020016108c3565b50612c9b8686615769565b8211156040518060400160405280600f81526020016000805160206165f583398151915281525090612d115760405160e560020a62461bcd0281526020600482018181528351602484015283519092839260449091019190850190808383600083156108db5781810151838201526020016108c3565b50612d1d8b33886154c0565b612d28893387615b2a565b88600160a060020a03168b600160a060020a031633600160a060020a03167f908fb5ee8f16c6bc9bc3690973819f32a4d4b10188134543c88706e0e1d433788989604051808381526020018281526020019250505060405180910390a4505050506003805460ff1916905590969095509350505050565b6040805160208082523690820181905260009283923392600160e060020a03198535169285929081908101848480828437600083820152604051601f909101601f19169092018290039550909350505050a260035460408051808201909152600b815260008051602061653583398151915260208201529060ff1615612e695760405160e560020a62461bcd0281526020600482018181528351602484015283519092839260449091019190850190808383600083156108db5781810151838201526020016108c3565b506003805460ff19166001179055612e8087611301565b6040518060400160405280600d81526020016000805160206165b583398151915281525090612ef35760405160e560020a62461bcd0281526020600482018181528351602484015283519092839260449091019190850190808383600083156108db5781810151838201526020016108c3565b50612efd85611301565b6040518060400160405280600d81526020016000805160206165b583398151915281525090612f705760405160e560020a62461bcd0281526020600482018181528351602484015283519092839260449091019190850190808383600083156108db5781810151838201526020016108c3565b50612f796152d3565b60405180604001604052806013815260200160008051602061655583398151915281525090612fec5760405160e560020a62461bcd0281526020600482018181528351602484015283519092839260449091019190850190808383600083156108db5781810151838201526020016108c3565b50600160a060020a03808816600090815260086020526040808220928816825290206002810154613027906003670de0b6b3a7640000612934565b8611156040518060400160405280601181526020017f4552525f4d41585f4f55545f524154494f000000000000000000000000000000815250906130af5760405160e560020a62461bcd0281526020600482018181528351602484015283519092839260449091019190850190808383600083156108db5781810151838201526020016108c3565b5060006130d1836002015484600101548460020154856001015460055461530e565b9050858111156040518060400160405280601381526020017f4552525f4241445f4c494d49545f5052494345000000000000000000000000008152509061315c5760405160e560020a62461bcd0281526020600482018181528351602484015283519092839260449091019190850190808383600083156108db5781810151838201526020016108c3565b5061317d83600201548460010154846002015485600101548b600554615e42565b9450888511156040518060400160405280600c81526020017f4552525f4c494d49545f494e0000000000000000000000000000000000000000815250906132085760405160e560020a62461bcd0281526020600482018181528351602484015283519092839260449091019190850190808383600083156108db5781810151838201526020016108c3565b5061321783600201548661542b565b836002018190555061322d826002015488615a86565b82600201819055506000613256846002015485600101548560020154866001015460055461530e565b9050818110156040518060400160405280600f81526020016000805160206165f5833981519152815250906132cf5760405160e560020a62461bcd0281526020600482018181528351602484015283519092839260449091019190850190808383600083156108db5781810151838201526020016108c3565b5060408051808201909152600f81527f4552525f4c494d49545f505249434500000000000000000000000000000000006020820152878211156133565760405160e560020a62461bcd0281526020600482018181528351602484015283519092839260449091019190850190808383600083156108db5781810151838201526020016108c3565b506133618689615769565b8211156040518060400160405280600f81526020016000805160206165f5833981519152815250906133d75760405160e560020a62461bcd0281526020600482018181528351602484015283519092839260449091019190850190808383600083156108db5781810151838201526020016108c3565b506133e38b33886154c0565b6133ee89338a615b2a565b88600160a060020a03168b600160a060020a031633600160a060020a03167f908fb5ee8f16c6bc9bc3690973819f32a4d4b10188134543c88706e0e1d43378898c604051808381526020018281526020019250505060405180910390a493505050506003805460ff1916905590969095509350505050565b600160a060020a031660009081526001602052604090205490565b33600160a060020a0316600035600160e060020a031916600160e060020a03191660003660405180806020018281038252848482818152602001925080828437600083820152604051601f909101601f19169092018290039550909350505050a260035460408051808201909152600b815260008051602061653583398151915260208201529060ff161561355a5760405160e560020a62461bcd0281526020600482018181528351602484015283519092839260449091019190850190808383600083156108db5781810151838201526020016108c3565b506003805460ff1916600117905561357181611301565b6040518060400160405280600d81526020016000805160206165b5833981519152815250906135e45760405160e560020a62461bcd0281526020600482018181528351602484015283519092839260449091019190850190808383600083156108db5781810151838201526020016108c3565b50604080517f70a082310000000000000000000000000000000000000000000000000000000081523060048201529051600160a060020a038316916370a08231916024808301926020929190829003018186803b15801561364457600080fd5b505afa158015613658573d6000803e3d6000fd5b505050506040513d602081101561366e57600080fd5b5051600160a060020a039091166000908152600860205260409020600201556003805460ff19169055565b60065460ff1690565b33600160a060020a0316600035600160e060020a031916600160e060020a03191660003660405180806020018281038252848482818152602001925080828437600083820152604051601f909101601f19169092018290039550909350505050a260035460408051808201909152600b815260008051602061653583398151915260208201529060ff161561377b5760405160e560020a62461bcd0281526020600482018181528351602484015283519092839260449091019190850190808383600083156108db5781810151838201526020016108c3565b506003805460ff19166001179055600454604080518082019091526012815260008051602061657583398151915260208201529033600160a060020a039091161461380a5760405160e560020a62461bcd0281526020600482018181528351602484015283519092839260449091019190850190808383600083156108db5781810151838201526020016108c3565b506004805473ffffffffffffffffffffffffffffffffffffffff1916600160a060020a03929092169190911790556003805460ff19169055565b60035460408051808201909152600b8152600080516020616535833981519152602082015260009160ff16156138be5760405160e560020a62461bcd0281526020600482018181528351602484015283519092839260449091019190850190808383600083156108db5781810151838201526020016108c3565b505060095490565b60035460408051808201909152600b8152600080516020616535833981519152602082015260009160ff16156139405760405160e560020a62461bcd0281526020600482018181528351602484015283519092839260449091019190850190808383600083156108db5781810151838201526020016108c3565b5061394a82611301565b6040518060400160405280600d81526020016000805160206165b5833981519152815250906139bd5760405160e560020a62461bcd0281526020600482018181528351602484015283519092839260449091019190850190808383600083156108db5781810151838201526020016108c3565b5050600160a060020a031660009081526008602052604090206001015490565b7f42524f4e5a45000000000000000000000000000000000000000000000000000090565b6000613a0e3384846155eb565b604080518381529051600160a060020a0385169133916000805160206165958339815191529181900360200190a350600192915050565b33600160a060020a0316600035600160e060020a031916600160e060020a03191660003660405180806020018281038252848482818152602001925080828437600083820152604051601f909101601f19169092018290039550909350505050a260035460408051808201909152600b815260008051602061653583398151915260208201529060ff1615613b1e5760405160e560020a62461bcd0281526020600482018181528351602484015283519092839260449091019190850190808383600083156108db5781810151838201526020016108c3565b506003805460ff1916600117905560065460408051808201909152601181527f4552525f4e4f545f46494e414c495a454400000000000000000000000000000060208201529060ff16613bb55760405160e560020a62461bcd0281526020600482018181528351602484015283519092839260449091019190850190808383600083156108db5781810151838201526020016108c3565b506000613bc0610ef0565b90506000613bd983612710670de0b6b3a7640000611ebd565b90506000613be78483615a86565b90506000613bf58285615769565b9050613c013386615cfa565b600354613c1c906101009004600160a060020a031684615300565b613c2582615d04565b60005b600754811015613d1157600060078281548110613c4157fe5b6000918252602080832090910154600160a060020a03168083526008909152604082206002015490925090613c768583615942565b600160a060020a038416600090815260086020526040902060020154909150613c9f9082615a86565b600160a060020a038416600090815260086020526040902060020155613cc6833383615b2a565b604080518281529051600160a060020a0385169133917fe74c91552b64c2e2e7bd255639e004e693bd3e1d01cc33e65610b86afcc1ffed9181900360200190a3505050600101613c28565b50506003805460ff1916905550505050565b60035460408051808201909152600b8152600080516020616535833981519152602082015260609160ff1615613d9d5760405160e560020a62461bcd0281526020600482018181528351602484015283519092839260449091019190850190808383600083156108db5781810151838201526020016108c3565b5060065460408051808201909152601181527f4552525f4e4f545f46494e414c495a454400000000000000000000000000000060208201529060ff16613e275760405160e560020a62461bcd0281526020600482018181528351602484015283519092839260449091019190850190808383600083156108db5781810151838201526020016108c3565b506007805480602002602001604051908101604052809291908181526020018280548015613e7e57602002820191906000526020600020905b8154600160a060020a03168152600190910190602001808311613e60575b5050505050905090565b600033600160a060020a0316600035600160e060020a031916600160e060020a03191660003660405180806020018281038252848482818152602001925080828437600083820152604051601f909101601f19169092018290039550909350505050a260035460408051808201909152600b815260008051602061653583398151915260208201529060ff1615613f635760405160e560020a62461bcd0281526020600482018181528351602484015283519092839260449091019190850190808383600083156108db5781810151838201526020016108c3565b506003805460ff19166001179055613f7a82611301565b6040518060400160405280600d81526020016000805160206165b583398151915281525090613fed5760405160e560020a62461bcd0281526020600482018181528351602484015283519092839260449091019190850190808383600083156108db5781810151838201526020016108c3565b50613ff66152d3565b604051806040016040528060138152602001600080516020616555833981519152815250906140695760405160e560020a62461bcd0281526020600482018181528351602484015283519092839260449091019190850190808383600083156108db5781810151838201526020016108c3565b50600160a060020a0382166000908152600860205260409020600280820154600183015491546009546005546140a3949291908990615ec5565b91506140b3816002015483615a86565b600282015560006140cf85612710670de0b6b3a7640000611ebd565b90506140db3386615cfa565b6140e86126338683615a86565b600354614103906101009004600160a060020a031682615300565b61410e843385615b2a565b604080518481529051600160a060020a0386169133917fe74c91552b64c2e2e7bd255639e004e693bd3e1d01cc33e65610b86afcc1ffed9181900360200190a350506003805460ff1916905592915050565b60035460408051808201909152600b8152600080516020616535833981519152602082015260609160ff1615613e275760405160e560020a62461bcd0281526020600482018181528351602484015283519092839260449091019190850190808383600083156108db5781810151838201526020016108c3565b60075490565b6040805160208082523690820181905260009283923392600160e060020a03198535169285929081908101848480828437600083820152604051601f909101601f19169092018290039550909350505050a260035460408051808201909152600b815260008051602061653583398151915260208201529060ff16156142aa5760405160e560020a62461bcd0281526020600482018181528351602484015283519092839260449091019190850190808383600083156108db5781810151838201526020016108c3565b506003805460ff191660011790556142c187611301565b6040518060400160405280600d81526020016000805160206165b5833981519152815250906143345760405160e560020a62461bcd0281526020600482018181528351602484015283519092839260449091019190850190808383600083156108db5781810151838201526020016108c3565b5061433e85611301565b6040518060400160405280600d81526020016000805160206165b5833981519152815250906143b15760405160e560020a62461bcd0281526020600482018181528351602484015283519092839260449091019190850190808383600083156108db5781810151838201526020016108c3565b506143ba6152d3565b6040518060400160405280601381526020016000805160206165558339815191528152509061442d5760405160e560020a62461bcd0281526020600482018181528351602484015283519092839260449091019190850190808383600083156108db5781810151838201526020016108c3565b50600160a060020a038088166000908152600860205260408082209288168252902060028083015461446791670de0b6b3a7640000611ebd565b8811156040518060400160405280601081526020017f4552525f4d41585f494e5f524154494f00000000000000000000000000000000815250906144ef5760405160e560020a62461bcd0281526020600482018181528351602484015283519092839260449091019190850190808383600083156108db5781810151838201526020016108c3565b506000614511836002015484600101548460020154856001015460055461530e565b9050858111156040518060400160405280601381526020017f4552525f4241445f4c494d49545f5052494345000000000000000000000000008152509061459c5760405160e560020a62461bcd0281526020600482018181528351602484015283519092839260449091019190850190808383600083156108db5781810151838201526020016108c3565b506145bd83600201548460010154846002015485600101548d600554615dc1565b9450868510156040518060400160405280600d81526020017f4552525f4c494d49545f4f555400000000000000000000000000000000000000815250906146485760405160e560020a62461bcd0281526020600482018181528351602484015283519092839260449091019190850190808383600083156108db5781810151838201526020016108c3565b5061465783600201548a61542b565b836002018190555061466d826002015486615a86565b82600201819055506000614696846002015485600101548560020154866001015460055461530e565b9050818110156040518060400160405280600f81526020016000805160206165f58339815191528152509061470f5760405160e560020a62461bcd0281526020600482018181528351602484015283519092839260449091019190850190808383600083156108db5781810151838201526020016108c3565b5060408051808201909152600f81527f4552525f4c494d49545f505249434500000000000000000000000000000000006020820152878211156147965760405160e560020a62461bcd0281526020600482018181528351602484015283519092839260449091019190850190808383600083156108db5781810151838201526020016108c3565b506147a18a87615769565b8211156040518060400160405280600f81526020016000805160206165f5833981519152815250906148175760405160e560020a62461bcd0281526020600482018181528351602484015283519092839260449091019190850190808383600083156108db5781810151838201526020016108c3565b506148238b338c6154c0565b61482e893388615b2a565b88600160a060020a03168b600160a060020a031633600160a060020a03167f908fb5ee8f16c6bc9bc3690973819f32a4d4b10188134543c88706e0e1d433788d8a604051808381526020018281526020019250505060405180910390a493505050506003805460ff1916905590969095509350505050565b33600160a060020a0316600035600160e060020a031916600160e060020a03191660003660405180806020018281038252848482818152602001925080828437600083820152604051601f909101601f19169092018290039550909350505050a260035460408051808201909152600b815260008051602061653583398151915260208201529060ff161561497f5760405160e560020a62461bcd0281526020600482018181528351602484015283519092839260449091019190850190808383600083156108db5781810151838201526020016108c3565b506003805460ff19166001179055600454604080518082019091526012815260008051602061657583398151915260208201529033600160a060020a0390911614614a0e5760405160e560020a62461bcd0281526020600482018181528351602484015283519092839260449091019190850190808383600083156108db5781810151838201526020016108c3565b50614a1881611301565b6040518060400160405280600d81526020016000805160206165b583398151915281525090614a8b5760405160e560020a62461bcd0281526020600482018181528351602484015283519092839260449091019190850190808383600083156108db5781810151838201526020016108c3565b5060065460408051808201909152601081526000805160206165d583398151915260208201529060ff1615614b045760405160e560020a62461bcd0281526020600482018181528351602484015283519092839260449091019190850190808383600083156108db5781810151838201526020016108c3565b50600160a060020a03811660009081526008602052604081206002015490614b3782612710670de0b6b3a7640000611ebd565b600954600160a060020a038516600090815260086020526040902060010154919250614b6291615a86565b600955600160a060020a03831660009081526008602052604090205460078054600019928301928101919082908110614b9757fe5b60009182526020909120015460078054600160a060020a039092169184908110614bbd57fe5b9060005260206000200160006101000a815481600160a060020a030219169083600160a060020a03160217905550816001016008600060078581548110614c0057fe5b6000918252602080832090910154600160a060020a0390811684528382019490945260409283018220949094558151606081018352818152808501828152818401838152948b16835260089095529190209051815591516001830155516002909101556007805480614c6e57fe5b6000828152602090208101600019908101805473ffffffffffffffffffffffffffffffffffffffff19169055019055614cac8533611ed48787615a86565b600354611ef99086906101009004600160a060020a031685615b2a565b60035460408051808201909152600b8152600080516020616535833981519152602082015260009160ff1615614d435760405160e560020a62461bcd0281526020600482018181528351602484015283519092839260449091019190850190808383600083156108db5781810151838201526020016108c3565b505060055490565b600160a060020a0391821660009081526020818152604080832093909416825291909152205490565b33600160a060020a0316600035600160e060020a031916600160e060020a03191660003660405180806020018281038252848482818152602001925080828437600083820152604051601f909101601f19169092018290039550909350505050a26004546040805180820190915260128152600080516020616575833981519152602082015290600160a060020a03163314614e545760405160e560020a62461bcd0281526020600482018181528351602484015283519092839260449091019190850190808383600083156108db5781810151838201526020016108c3565b50614e5e83611301565b156040518060400160405280600c81526020017f4552525f49535f424f554e44000000000000000000000000000000000000000081525090614ee45760405160e560020a62461bcd0281526020600482018181528351602484015283519092839260449091019190850190808383600083156108db5781810151838201526020016108c3565b50614eed613699565b156040518060400160405280601081526020016000805160206165d583398151915281525090614f615760405160e560020a62461bcd0281526020600482018181528351602484015283519092839260449091019190850190808383600083156108db5781810151838201526020016108c3565b5060075460408051808201909152600e81527f4552525f4d41585f544f4b454e53000000000000000000000000000000000000602082015290600811614feb5760405160e560020a62461bcd0281526020600482018181528351602484015283519092839260449091019190850190808383600083156108db5781810151838201526020016108c3565b50600780546001808201928390557fa66cc928b5edb82af9bd49922954155ab7b0942694bea4ce44661d9a8736c688909101805473ffffffffffffffffffffffffffffffffffffffff1916600160a060020a03871690811790915560408051606081018252848152600060208083018281528385018381529583526008909152929020905181559051928101929092555160029091015561508d8484846118c1565b50505050565b60035460408051808201909152600b8152600080516020616535833981519152602082015260009160ff161561510d5760405160e560020a62461bcd0281526020600482018181528351602484015283519092839260449091019190850190808383600083156108db5781810151838201526020016108c3565b5061511782611301565b6040518060400160405280600d81526020016000805160206165b58339815191528152509061518a5760405160e560020a62461bcd0281526020600482018181528351602484015283519092839260449091019190850190808383600083156108db5781810151838201526020016108c3565b50600160a060020a0382166000908152600860205260409020600101546009546151b5908290615769565b9392505050565b60035460408051808201909152600b8152600080516020616535833981519152602082015260009160ff16156152365760405160e560020a62461bcd0281526020600482018181528351602484015283519092839260449091019190850190808383600083156108db5781810151838201526020016108c3565b5061524082611301565b6040518060400160405280600d81526020016000805160206165b5833981519152815250906152b35760405160e560020a62461bcd0281526020600482018181528351602484015283519092839260449091019190850190808383600083156108db5781810151838201526020016108c3565b5050600160a060020a031660009081526008602052604090206002015490565b60045474010000000000000000000000000000000000000000900460ff1690565b6152fd81615f77565b50565b61530a828261600d565b5050565b60008061531b8787615769565b905060006153298686615769565b905060006153378383615769565b9050600061535e670de0b6b3a7640000615359670de0b6b3a764000089615a86565b615769565b905061536a8282615942565b9a9950505050505050505050565b6000806153858786615769565b90506000615393878661542b565b905060006153a18289615769565b905060006153b7670de0b6b3a764000085615769565b905060006153c58383616018565b905060006153d3828e615942565b905060006153e1828f615a86565b905060006154006153fa670de0b6b3a76400008a615a86565b8b615942565b905061541882615359670de0b6b3a764000084615a86565b9f9e505050505050505050505050505050565b60408051808201909152601081527f4552525f4144445f4f564552464c4f5700000000000000000000000000000000602082015260009083830190848210156154b85760405160e560020a62461bcd0281526020600482018181528351602484015283519092839260449091019190850190808383600083156108db5781810151838201526020016108c3565b509392505050565b604080517f23b872dd000000000000000000000000000000000000000000000000000000008152600160a060020a0384811660048301523060248301526044820184905291516000928616916323b872dd91606480830192602092919082900301818787803b15801561553257600080fd5b505af1158015615546573d6000803e3d6000fd5b505050506040513d602081101561555c57600080fd5b505160408051808201909152600f81527f4552525f45524332305f46414c534500000000000000000000000000000000006020820152909150816155e45760405160e560020a62461bcd0281526020600482018181528351602484015283519092839260449091019190850190808383600083156108db5781810151838201526020016108c3565b5050505050565b600160a060020a03831660009081526001602052604090205481111561565b576040805160e560020a62461bcd02815260206004820152601460248201527f4552525f494e53554646494349454e545f42414c000000000000000000000000604482015290519081900360640190fd5b600160a060020a03831660009081526001602052604090205461567e9082615709565b600160a060020a0380851660009081526001602052604080822093909355908416815220546156ad908261542b565b600160a060020a0380841660008181526001602090815260409182902094909455805185815290519193928716927fdeb3a6837278f6e9914a507e4d73f08e841d8fca434fb97d4307b3b0d3d6b10592918290030190a3505050565b600081831015615763576040805160e560020a62461bcd02815260206004820152601460248201527f4552525f42544f4b454e5f554e444552464c4f57000000000000000000000000604482015290519081900360640190fd5b50900390565b60408051808201909152600c81527f4552525f4449565f5a45524f00000000000000000000000000000000000000006020820152600090826157ef5760405160e560020a62461bcd0281526020600482018181528351602484015283519092839260449091019190850190808383600083156108db5781810151838201526020016108c3565b50670de0b6b3a764000083028315806158185750670de0b6b3a764000084828161581557fe5b04145b6040518060400160405280601081526020017f4552525f4449565f494e5445524e414c000000000000000000000000000000008152509061589d5760405160e560020a62461bcd0281526020600482018181528351602484015283519092839260449091019190850190808383600083156108db5781810151838201526020016108c3565b5060408051808201909152601081527f4552525f4449565f494e5445524e414c000000000000000000000000000000006020820152600284048201908282101561592b5760405160e560020a62461bcd0281526020600482018181528351602484015283519092839260449091019190850190808383600083156108db5781810151838201526020016108c3565b50600084828161593757fe5b049695505050505050565b600082820283158061595c57508284828161595957fe5b04145b6040518060400160405280601081526020017f4552525f4d554c5f4f564552464c4f5700000000000000000000000000000000815250906159e15760405160e560020a62461bcd0281526020600482018181528351602484015283519092839260449091019190850190808383600083156108db5781810151838201526020016108c3565b5060408051808201909152601081527f4552525f4d554c5f4f564552464c4f570000000000000000000000000000000060208201526706f05b59d3b2000082019082821015615a745760405160e560020a62461bcd0281526020600482018181528351602484015283519092839260449091019190850190808383600083156108db5781810151838201526020016108c3565b506000670de0b6b3a764000082615937565b6000806000615a95858561619c565b9150915080156040518060400160405280601181526020017f4552525f5355425f554e444552464c4f5700000000000000000000000000000081525090615b205760405160e560020a62461bcd0281526020600482018181528351602484015283519092839260449091019190850190808383600083156108db5781810151838201526020016108c3565b5090949350505050565b604080517fa9059cbb000000000000000000000000000000000000000000000000000000008152600160a060020a03848116600483015260248201849052915160009286169163a9059cbb91604480830192602092919082900301818787803b15801561553257600080fd5b600080615ba38786615769565b90506000615bc2615bbc670de0b6b3a764000084615a86565b85615942565b90506000615be186615bdc670de0b6b3a764000085615a86565b615942565b90506000615bef8b8361542b565b90506000615bfd828d615769565b90506000615c0b8287616018565b90506000615c19828d615942565b9050615c25818d615a86565b9e9d5050505050505050505050505050565b600080615c448786615769565b90506000615c5a670de0b6b3a764000083615a86565b90506000615c688286615942565b90506000615c8287615359670de0b6b3a764000085615a86565b90506000615c908c83615a86565b90506000615c9e828e615769565b90506000615cac8288616018565b90506000615cba828e615942565b90506000615cc88e83615a86565b9050615ce581615359670de0b6b3a7640000612710815b04615a86565b99505050505050505050509695505050505050565b61530a82826161c1565b6152fd816161cc565b600080615d2684615bdc670de0b6b3a764000086615a86565b90506000615d378a8a8a8a866162c9565b90506000615d498b8b8b8b868a615dc1565b90506000615d6c615d5a8d8561542b565b8c615d658d86615a86565b8c8a61530e565b90506000878211615da057615d98848e615d868f8d615769565b615d908e8e615769565b868d8d616325565b905080615da5565b506000805b50615db0848261542b565b9d9c50505050505050505050505050565b600080615dce8786615769565b90506000615de4670de0b6b3a764000085615a86565b9050615df08582615942565b90506000615e028a6153598c8561542b565b90506000615e108285616018565b90506000615e26670de0b6b3a764000083615a86565b9050615e328a82615942565b9c9b505050505050505050505050565b600080615e4f8588615769565b90506000615e5d8786615a86565b90506000615e6b8883615769565b90506000615e798285616018565b9050615e8d81670de0b6b3a7640000615a86565b9050615ea1670de0b6b3a764000087615a86565b9450615eb6615eb08c83615942565b86615769565b9b9a5050505050505050505050565b600080615ed28786615769565b90506000615eef85615bdc670de0b6b3a764000061271081615cdf565b90506000615efd8883615a86565b90506000615f0b828a615769565b90506000615f2a82615f25670de0b6b3a764000088615769565b616018565b90506000615f38828e615942565b90506000615f468e83615a86565b90506000615f5f6153fa670de0b6b3a76400008a615a86565b905061541882615bdc670de0b6b3a764000084615a86565b30600090815260016020526040902054615f91908261542b565b30600090815260016020526040902055600254615fae908261542b565b6002556040805182815290517f07883703ed0e86588a40d76551c92f8a4b329e3bf19765e0e6749473c1a846659181900360200190a160408051828152905130916000916000805160206165958339815191529181900360200190a350565b61530a3083836155eb565b600060018310156040518060400160405280601581526020017f4552525f42504f575f424153455f544f4f5f4c4f570000000000000000000000815250906160a45760405160e560020a62461bcd0281526020600482018181528351602484015283519092839260449091019190850190808383600083156108db5781810151838201526020016108c3565b5060408051808201909152601681527f4552525f42504f575f424153455f544f4f5f48494748000000000000000000006020820152671bc16d674ec7ffff8411156161335760405160e560020a62461bcd0281526020600482018181528351602484015283519092839260449091019190850190808383600083156108db5781810151838201526020016108c3565b50600061613f836163d6565b9050600061614d8483615a86565b905060006161638661615e856163f1565b6163ff565b905081616174579250610b6f915050565b600061618587846305f5e100616456565b90506161918282615942565b979650505050505050565b6000808284106161b257505080820360006161ba565b505081810360015b9250929050565b61530a8230836155eb565b30600090815260016020526040902054811115616233576040805160e560020a62461bcd02815260206004820152601460248201527f4552525f494e53554646494349454e545f42414c000000000000000000000000604482015290519081900360640190fd5b3060009081526001602052604090205461624d9082615709565b3060009081526001602052604090205560025461626a9082615709565b6002556040805182815290517fb90306ad06b2a6ff86ddc9327db583062895ef6540e62dc50add009db5b356eb9181900360200190a160408051828152905160009130916000805160206165958339815191529181900360200190a350565b6000806162da87878787600061530e565b905060006162e88483615769565b905060006162fa86615359888b61542b565b9050600061631961630b8484616018565b670de0b6b3a7640000615a86565b905061536a818b615942565b60008061633a670de0b6b3a764000084615a86565b9050616346818a615942565b90506000616354828a61542b565b905061636481615bdc8789615a86565b905060006163728989615769565b9050600061639d61638b670de0b6b3a764000088615a86565b615bdc670de0b6b3a76400008561542b565b905060006163b86163ae888e615942565b6153598f8f61542b565b905060006163ca8a615bdc858561542b565b9050615c258582615769565b6000670de0b6b3a76400006163ea836163f1565b0292915050565b670de0b6b3a7640000900490565b6000806002830661641857670de0b6b3a764000061641a565b835b90506002830492505b82156151b5576164338485615942565b9350600283061561644b576164488185615942565b90505b600283049250616423565b600082818061646d87670de0b6b3a764000061619c565b9092509050670de0b6b3a764000080600060015b888410616525576000670de0b6b3a7640000820290506000806164b58a6164b085670de0b6b3a7640000615a86565b61619c565b915091506164c787615bdc848c615942565b96506164d38784615769565b9650866164e257505050616525565b87156164ec579315935b80156164f6579315935b841561650d576165068688615a86565b955061651a565b616517868861542b565b95505b505050600101616481565b5090999850505050505050505056fe4552525f5245454e5452590000000000000000000000000000000000000000004552525f535741505f4e4f545f5055424c4943000000000000000000000000004552525f4e4f545f434f4e54524f4c4c45520000000000000000000000000000ddf252ad1be2c89b69c2b068fc378daa952ba7f163c4a11628f55a4df523b3ef4552525f4e4f545f424f554e44000000000000000000000000000000000000004552525f49535f46494e414c495a4544000000000000000000000000000000004552525f4d4154485f415050524f580000000000000000000000000000000000a265627a7a72315820fb36307d5be6e8f4c4743d4248260f4a0c2d38574fc07fc8676f94756abbd5da64736f6c634300050b0032",
  "source": "// This program is free software: you can redistribute it and/or modify\n// it under the terms of the GNU General Public License as published by\n// the Free Software Foundation, either version 3 of the License, or\n// (at your option) any later version.\n\n// This program is distributed in the hope that it will be useful,\n// but WITHOUT ANY WARRANTY; without even the implied warranty of\n// MERCHANTABILITY or FITNESS FOR A PARTICULAR PURPOSE.  See the\n// GNU General Public License for more details.\n\n// You should have received a copy of the GNU General Public License\n// along with this program.  If not, see <http://www.gnu.org/licenses/>.\n\npragma solidity ^0.5.11;\n\nimport \"./BColor.sol\";\nimport \"./BToken.sol\";\nimport \"./BMath.sol\";\n\ncontract BPool is BBronze, BToken, BMath\n{\n    // Invariant: if any one field of a Record is zero, then the rest are zero\n    // Invariant: MIN_WEIGHT < denorm < MAX_WEIGHT\n    // Invariant: MIN_BALANCE < balance < MAX_BALANCE\n    struct Record {\n        uint index;   // private and off-by-one to maintain invariant\n        uint denorm;  // denormalized weight\n        uint balance;\n    }\n\n    event LOG_SWAP( address indexed caller\n                  , address indexed tokenIn\n                  , address indexed tokenOut\n                  , uint256         tokenAmountIn\n                  , uint256         tokenAmountOut );\n\n    event LOG_JOIN( address indexed caller\n                  , address indexed tokenIn\n                  , uint256         tokenAmountIn);\n\n    event LOG_EXIT( address indexed caller\n                  , address indexed tokenOut\n                  , uint256         tokenAmountOut);\n\n    event LOG_CALL( bytes4  indexed sig\n                  , address indexed caller\n                  , bytes           data\n                  )\n          anonymous;\n\n    modifier _logs_() {\n        emit LOG_CALL(msg.sig, msg.sender, msg.data);\n        _;\n    }\n\n    modifier _lock_() {\n        require( !_mutex, ERR_REENTRY);\n        _mutex = true;\n        _;\n        _mutex = false;\n    }\n\n    modifier _viewlock_() {\n        require( !_mutex, ERR_REENTRY);\n        _;\n    }\n\n    bool                      _mutex; // TODO: consider  messageNonce\n\n    // Emulates a rudimentary role-based access control system\n    address                   _factory;    // has FACTORY role\n    address                   _controller; // has CONTROL role\n    bool                      _publicSwap; // true if PUBLIC can call SWAP functions\n\n    // `setSwapFee` and `finalize` require CONTROL\n    // `finalize` sets `PUBLIC can SWAP`, `PUBLIC can JOIN`, and sets `_controller` to NULL\n    uint                      _swapFee;\n    bool                      _finalized;\n\n    address[]                 _tokens;\n    mapping(address=>Record)  _records;\n    uint                      _totalWeight;\n\n    constructor() public {\n        _controller = msg.sender;\n        _factory = msg.sender;\n\n        _publicSwap = false;\n        _finalized = false;\n    }\n\n    function isPublicSwap()\n        public view\n        returns (bool)\n    {\n        return _publicSwap;\n    }\n\n    function isFinalized()\n        public view\n        returns (bool)\n    {\n        return _finalized;\n    }\n\n    function isBound(address t)\n        public view\n        returns (bool)\n    {\n        return _records[t].index != 0;\n    }\n\n    function getNumTokens()\n        external view\n        returns (uint) \n    {\n        return _tokens.length;\n    }\n\n    function getCurrentTokens()\n      external view _viewlock_\n        returns (address[] memory tokens)\n    {\n        return _tokens;\n    }\n\n    function getFinalTokens()\n        external view\n        _viewlock_\n        returns (address[] memory tokens)\n    {\n        require(_finalized, ERR_NOT_FINALIZED);\n        return _tokens;\n    }\n\n    function getDenormalizedWeight(address token)\n        external view\n        _viewlock_\n        returns (uint)\n    {\n        require( isBound(token), ERR_NOT_BOUND);\n        return _records[token].denorm;\n    }\n\n    function getTotalDenormalizedWeight()\n        external view\n        _viewlock_\n        returns (uint)\n    {\n        return _totalWeight;\n    }\n\n    function getNormalizedWeight(address token)\n        external view\n        _viewlock_\n        returns (uint)\n    {\n        require( isBound(token), ERR_NOT_BOUND);\n        uint denorm = _records[token].denorm;\n        return bdiv(denorm, _totalWeight);\n    }\n\n    function getBalance(address token)\n        external view\n        _viewlock_\n        returns (uint)\n    {\n        require( isBound(token), ERR_NOT_BOUND);\n        return _records[token].balance;\n    }\n\n    function getSwapFee()\n        external view\n        _viewlock_\n        returns (uint)\n    {\n        return _swapFee;\n    }\n\n    function getController()\n        external view\n        _viewlock_\n        returns (address)\n    {\n        return _controller;\n    }\n\n    function setSwapFee(uint swapFee)\n        external\n        _logs_\n        _lock_\n    { \n        require( ! _finalized, ERR_IS_FINALIZED);\n        require(msg.sender == _controller, ERR_NOT_CONTROLLER);\n        // TODO min fees\n        require(swapFee <= MAX_FEE, ERR_MAX_FEE);\n        _swapFee = swapFee;\n    }\n\n    function setController(address manager)\n        external\n        _logs_\n        _lock_\n    {\n        require(msg.sender == _controller, ERR_NOT_CONTROLLER);\n        _controller = manager;\n    }\n\n    function setPublicSwap(bool public_)\n        external\n        _logs_\n        _lock_\n    {\n        require( ! _finalized, ERR_IS_FINALIZED);\n        require(msg.sender == _controller, ERR_NOT_CONTROLLER);\n        _publicSwap = public_;\n    }\n\n    function finalize(uint initSupply)\n        external\n        _logs_\n        _lock_\n    {\n        require(msg.sender == _controller, ERR_NOT_CONTROLLER);\n        require( !_finalized, ERR_IS_FINALIZED);\n        require(initSupply >= MIN_POOL_SUPPLY, ERR_MIN_POOL_SUPPLY);\n\n        _finalized = true;\n        _publicSwap = true;\n\n        _mintPoolShare(initSupply);\n        _pushPoolShare(msg.sender, initSupply);\n    }\n\n\n    function bind(address token, uint balance, uint denorm)\n        external\n        _logs_\n        // _lock_  Bind does not lock because it jumps to `rebind`, which does\n    {\n        require(msg.sender == _controller, ERR_NOT_CONTROLLER);\n        require( ! isBound(token), ERR_IS_BOUND);\n        require( ! isFinalized(), ERR_IS_FINALIZED);\n\n        require(_tokens.length < MAX_BOUND_TOKENS, ERR_MAX_TOKENS);\n\n        uint length = _tokens.push(token);\n        _records[token] = Record({\n            index: length // 1-indexed (0 is 'unbound' state)\n          , denorm: 0    // balance and denorm will be validated\n          , balance: 0   // and set by `rebind`\n        });\n        rebind(token, balance, denorm);\n    }\n\n    function rebind(address token, uint balance, uint denorm)\n        public\n        _logs_\n        _lock_\n    {\n        require(msg.sender == _controller, ERR_NOT_CONTROLLER);\n        require(isBound(token), ERR_NOT_BOUND);\n        require( ! _finalized, ERR_IS_FINALIZED);\n\n        require(denorm >= MIN_WEIGHT, ERR_MIN_WEIGHT);\n        require(denorm <= MAX_WEIGHT, ERR_MAX_WEIGHT);\n        require(balance >= MIN_BALANCE, ERR_MIN_BALANCE);\n        require(balance <= MAX_BALANCE, ERR_MAX_BALANCE);\n\n        // Adjust the denorm and totalWeight\n        uint oldWeight = _records[token].denorm;\n        if (denorm > oldWeight) {\n            _totalWeight = badd(_totalWeight, bsub(denorm, oldWeight));\n            require( _totalWeight <= MAX_TOTAL_WEIGHT, ERR_MAX_TOTAL_WEIGHT );\n        } else {\n            _totalWeight = bsub(_totalWeight, bsub(oldWeight, denorm));\n        }        \n        _records[token].denorm = denorm;\n\n        // Adjust the balance record and actual token balance\n        uint oldBalance = _records[token].balance;\n        _records[token].balance = balance;\n        if (balance > oldBalance) {\n            _pullUnderlying(token, msg.sender, bsub(balance, oldBalance));\n        } else if( balance < oldBalance) {\n            // In this case liquidity is being withdrawn, so charge EXIT_FEE\n            uint tokenBalanceWithdrawn = bsub(oldBalance, balance);\n            uint tokenExitFee = bmul(tokenBalanceWithdrawn,EXIT_FEE);\n            _pushUnderlying(token, msg.sender, bsub(tokenBalanceWithdrawn,tokenExitFee));\n            _pushUnderlying(token, _factory, tokenExitFee);\n        }\n    }\n\n    function unbind(address token)\n        external\n        _logs_\n        _lock_\n    {\n        require(msg.sender == _controller, ERR_NOT_CONTROLLER);\n        require(isBound(token), ERR_NOT_BOUND);\n        require( ! _finalized, ERR_IS_FINALIZED);\n\n        uint tokenBalance = _records[token].balance;\n        uint tokenExitFee = bmul(tokenBalance,EXIT_FEE);\n\n        _totalWeight = bsub(_totalWeight, _records[token].denorm);\n\n        // Swap the token-to-unbind with the last token,\n        // then delete the last token\n        uint index = _records[token].index - 1;\n        uint last = _tokens.length - 1;\n        _tokens[index] = _tokens[last];\n        _records[_tokens[index]].index = index + 1;\n        _records[token] = Record({\n            index: 0\n          , denorm: 0\n          , balance: 0\n        });\n        _tokens.pop();\n\n        _pushUnderlying(token, msg.sender, bsub(tokenBalance,tokenExitFee));\n        _pushUnderlying(token, _factory, tokenExitFee);\n    }\n\n    // Absorb any tokens that have been sent to this contract into the pool\n    function gulp(address token)\n        external\n        _logs_\n        _lock_\n    {\n        require(isBound(token), ERR_NOT_BOUND);\n        _records[token].balance = ERC20(token).balanceOf(address(this));\n    }\n\n    function getSpotPrice(address tokenIn, address tokenOut)\n        external view\n        _viewlock_\n        returns (uint spotPrice)\n    {\n        require(isBound(tokenIn), ERR_NOT_BOUND);\n        require(isBound(tokenOut), ERR_NOT_BOUND);\n        Record storage I = _records[tokenIn];\n        Record storage O = _records[tokenOut];\n        return _calc_SpotPrice(I.balance, I.denorm, O.balance, O.denorm, _swapFee);\n    }\n\n    function getSpotPriceSansFee(address tokenIn, address tokenOut)\n        external view\n        _viewlock_\n        returns (uint spotPrice)\n    {\n        require(isBound(tokenIn), ERR_NOT_BOUND);\n        require(isBound(tokenOut), ERR_NOT_BOUND);\n        Record storage I = _records[tokenIn];\n        Record storage O = _records[tokenOut];\n        return _calc_SpotPrice(I.balance, I.denorm, O.balance, O.denorm, 0);\n    }\n\n    function joinPool(uint poolAmountOut)\n        external\n        _logs_\n        _lock_\n    {\n        require(_finalized, ERR_NOT_FINALIZED);\n\n        uint poolTotal = totalSupply();\n        uint ratio = bdiv(poolAmountOut, poolTotal);\n        for( uint i = 0; i < _tokens.length; i++ ) {\n            address t = _tokens[i];\n            uint bal = _records[t].balance;\n            uint tokenAmountIn = bmul(ratio, bal);\n            _records[t].balance = badd(_records[t].balance, tokenAmountIn);\n            _pullUnderlying(t, msg.sender, tokenAmountIn);\n\n            emit LOG_JOIN(msg.sender, t, tokenAmountIn);\n        }\n        _mintPoolShare(poolAmountOut);\n        _pushPoolShare(msg.sender, poolAmountOut);\n    }\n\n    function exitPool(uint poolAmountIn)\n        external\n        _logs_\n        _lock_\n    {\n        require(_finalized, ERR_NOT_FINALIZED);\n\n        uint poolTotal = totalSupply();\n        uint exitFee = bmul(poolAmountIn, EXIT_FEE);\n        uint pAiAfterExitFee = bsub(poolAmountIn, exitFee);\n        uint ratio = bdiv(pAiAfterExitFee, poolTotal);\n       \n        _pullPoolShare(msg.sender, poolAmountIn);\n        _pushPoolShare(_factory, exitFee);\n        _burnPoolShare(pAiAfterExitFee);\n\n        for( uint i = 0; i < _tokens.length; i++ ) {\n            address t = _tokens[i];\n            uint bal = _records[t].balance;\n            uint tAo = bmul(ratio, bal);\n            _records[t].balance = bsub(_records[t].balance, tAo);\n            _pushUnderlying(t, msg.sender, tAo);\n\n            emit LOG_EXIT(msg.sender, t, tAo);\n        }\n\n    }\n\n\n    function swap_ExactAmountIn(address tokenIn, uint tokenAmountIn, address tokenOut, uint minAmountOut, uint maxPrice)\n        external\n        _logs_\n        _lock_\n        returns (uint tokenAmountOut, uint spotPriceTarget)\n    {\n        require( isBound(tokenIn), ERR_NOT_BOUND );\n        require( isBound(tokenOut), ERR_NOT_BOUND );\n        require( isPublicSwap(), ERR_SWAP_NOT_PUBLIC );\n\n        Record storage I = _records[address(tokenIn)];\n        Record storage O = _records[address(tokenOut)];\n\n        require( tokenAmountIn <= bmul(I.balance, MAX_IN_RATIO), ERR_MAX_IN_RATIO );\n\n        uint spotPriceBefore = _calc_SpotPrice(I.balance, I.denorm, O.balance, O.denorm, _swapFee);\n        require( spotPriceBefore <= maxPrice, ERR_BAD_LIMIT_PRICE);\n\n        tokenAmountOut = _calc_OutGivenIn(I.balance, I.denorm, O.balance, O.denorm, tokenAmountIn, _swapFee);\n        require( tokenAmountOut >= minAmountOut, ERR_LIMIT_OUT );\n\n        I.balance = badd(I.balance, tokenAmountIn);\n        O.balance = bsub(O.balance, tokenAmountOut);\n\n        uint spotPriceAfter = _calc_SpotPrice(I.balance, I.denorm, O.balance, O.denorm, _swapFee);\n        require(spotPriceAfter >= spotPriceBefore, ERR_MATH_APPROX);     \n        require(spotPriceAfter <= maxPrice, ERR_LIMIT_PRICE);\n        require(spotPriceBefore <= bdiv(tokenAmountIn, tokenAmountOut), ERR_MATH_APPROX);\n\n        _pullUnderlying(tokenIn, msg.sender, tokenAmountIn);\n        _pushUnderlying(tokenOut, msg.sender, tokenAmountOut);\n\n        emit LOG_SWAP(msg.sender, tokenIn, tokenOut, tokenAmountIn, tokenAmountOut);\n\n        return (tokenAmountOut, spotPriceAfter);\n    }\n\n    function swap_ExactAmountOut(address tokenIn, uint maxAmountIn, address tokenOut, uint tokenAmountOut, uint maxPrice)\n        external\n        _logs_\n        _lock_ \n        returns (uint tokenAmountIn, uint spotPriceTarget)\n    {\n        require( isBound(tokenIn), ERR_NOT_BOUND);\n        require( isBound(tokenOut), ERR_NOT_BOUND);\n        require( isPublicSwap(), ERR_SWAP_NOT_PUBLIC );\n\n        Record storage I = _records[address(tokenIn)];\n        Record storage O = _records[address(tokenOut)];\n\n        require(tokenAmountOut <= bmul(O.balance, MAX_OUT_RATIO), ERR_MAX_OUT_RATIO );\n\n        uint spotPriceBefore = _calc_SpotPrice(I.balance, I.denorm, O.balance, O.denorm, _swapFee);\n        require(spotPriceBefore <= maxPrice, ERR_BAD_LIMIT_PRICE );\n\n        tokenAmountIn = _calc_InGivenOut(I.balance, I.denorm, O.balance, O.denorm, tokenAmountOut, _swapFee);\n        require( tokenAmountIn <= maxAmountIn, ERR_LIMIT_IN);\n\n        I.balance = badd(I.balance, tokenAmountIn);\n        O.balance = bsub(O.balance, tokenAmountOut);\n\n        uint spotPriceAfter = _calc_SpotPrice(I.balance, I.denorm, O.balance, O.denorm, _swapFee);\n        require(spotPriceAfter >= spotPriceBefore, ERR_MATH_APPROX);\n        require(spotPriceAfter <= maxPrice, ERR_LIMIT_PRICE);\n        require(spotPriceBefore <= bdiv(tokenAmountIn, tokenAmountOut), ERR_MATH_APPROX);\n\n        _pullUnderlying(tokenIn, msg.sender, tokenAmountIn);\n        _pushUnderlying(tokenOut, msg.sender, tokenAmountOut);\n\n        emit LOG_SWAP(msg.sender, tokenIn, tokenOut, tokenAmountIn, tokenAmountOut);\n\n        return (tokenAmountIn, spotPriceAfter);\n    }\n\n\n    function swap_ExactMarginalPrice(address tokenIn, uint maxAmountIn, address tokenOut, uint minAmountOut, uint marginalPrice)\n        external\n        _logs_\n        _lock_\n        returns (uint tokenAmountIn, uint tokenAmountOut)\n    {\n        require( isBound(tokenIn), ERR_NOT_BOUND);\n        require( isBound(tokenOut), ERR_NOT_BOUND);\n        require( isPublicSwap(), ERR_SWAP_NOT_PUBLIC );\n\n        Record storage I = _records[address(tokenIn)];\n        Record storage O = _records[address(tokenOut)];\n\n        require(tokenAmountOut <= bmul(O.balance, MAX_OUT_RATIO), ERR_MAX_OUT_RATIO);\n\n        uint spotPriceBefore = _calc_SpotPrice(I.balance, I.denorm, O.balance, O.denorm, _swapFee);\n        require(marginalPrice > spotPriceBefore, ERR_BAD_LIMIT_PRICE);\n\n        tokenAmountIn = _calc_InGivenPrice( I.balance, I.denorm, O.balance, O.denorm, _totalWeight, marginalPrice, _swapFee );\n        tokenAmountOut = _calc_OutGivenIn( I.balance, I.denorm, O.balance, O.denorm, tokenAmountIn, _swapFee );\n\n        require( tokenAmountIn <= maxAmountIn, ERR_LIMIT_IN);\n        require( tokenAmountOut >= minAmountOut, ERR_LIMIT_OUT);\n\n        I.balance = badd(I.balance, tokenAmountIn);\n        O.balance = bsub(O.balance, tokenAmountOut);\n\n        uint spotPriceAfter = _calc_SpotPrice(I.balance, I.denorm, O.balance, O.denorm, _swapFee);\n        require(spotPriceAfter >= spotPriceBefore, ERR_MATH_APPROX);\n        require(spotPriceBefore <= bdiv(tokenAmountIn, tokenAmountOut), ERR_MATH_APPROX);\n\n        _pullUnderlying(tokenIn, msg.sender, tokenAmountIn);\n        _pushUnderlying(tokenOut, msg.sender, tokenAmountOut);\n\n        emit LOG_SWAP(msg.sender, tokenIn, tokenOut, tokenAmountIn, tokenAmountOut);\n\n        return (tokenAmountIn, tokenAmountOut);\n    }\n\n    function joinswap_ExternAmountIn(address tokenIn, uint256 tokenAmountIn)\n        external\n        _logs_\n        _lock_\n        returns (uint poolAmountOut)\n    {\n        require( isBound(tokenIn), ERR_NOT_BOUND );\n        require( isPublicSwap(), ERR_SWAP_NOT_PUBLIC );\n\n        Record storage T = _records[tokenIn];\n\n        poolAmountOut = _calc_PoolOutGivenSingleIn(T.balance, T.denorm, _totalSupply, _totalWeight, tokenAmountIn, _swapFee);\n        T.balance = badd(T.balance, tokenAmountIn);\n\n        _mintPoolShare(poolAmountOut);\n        _pushPoolShare(msg.sender, poolAmountOut);\n        _pullUnderlying(tokenIn, msg.sender, tokenAmountIn);\n        \n        emit LOG_JOIN(msg.sender, tokenIn, tokenAmountIn);\n\n        return poolAmountOut;\n    }\n\n    function joinswap_PoolAmountOut(uint poolAmountOut, address tokenIn)\n        external\n        _logs_\n        _lock_\n        returns (uint tokenAmountIn)\n    {\n        require( isBound(tokenIn), ERR_NOT_BOUND );\n        require( isPublicSwap(), ERR_SWAP_NOT_PUBLIC );\n\n        Record storage T = _records[tokenIn];\n\n        tokenAmountIn = _calc_SingleInGivenPoolOut(T.balance, T.denorm, _totalSupply, _totalWeight, poolAmountOut, _swapFee);\n        T.balance = badd(T.balance, tokenAmountIn);\n\n        _mintPoolShare(poolAmountOut);\n        _pushPoolShare(msg.sender, poolAmountOut);\n        _pullUnderlying(tokenIn, msg.sender, tokenAmountIn);\n        \n        emit LOG_JOIN(msg.sender, tokenIn, tokenAmountIn);\n\n        return tokenAmountIn;\n    }\n\n    function exitswap_PoolAmountIn(uint poolAmountIn, address tokenOut)\n        external\n        _logs_\n        _lock_\n        returns (uint tokenAmountOut)\n    {\n        require( isBound(tokenOut), ERR_NOT_BOUND );\n        require( isPublicSwap(), ERR_SWAP_NOT_PUBLIC );\n\n        Record storage T = _records[tokenOut];\n\n        tokenAmountOut = _calc_SingleOutGivenPoolIn(T.balance, T.denorm, _totalSupply, _totalWeight, poolAmountIn, _swapFee);\n        T.balance = bsub(T.balance, tokenAmountOut);\n\n        uint exitFee = bmul(poolAmountIn, EXIT_FEE);\n\n        _pullPoolShare(msg.sender, poolAmountIn);\n        _burnPoolShare(bsub(poolAmountIn, exitFee));\n        _pushPoolShare(_factory, exitFee);\n        _pushUnderlying(tokenOut, msg.sender, tokenAmountOut);\n\n        emit LOG_EXIT(msg.sender, tokenOut, tokenAmountOut);\n\n        return tokenAmountOut;\n    }\n\n    function exitswap_ExternAmountOut(address tokenOut, uint tokenAmountOut)\n        external\n        _logs_\n        _lock_\n        returns (uint poolAmountIn)\n    {\n        require( isBound(tokenOut), ERR_NOT_BOUND );\n        require( isPublicSwap(), ERR_SWAP_NOT_PUBLIC );\n\n        Record storage T = _records[tokenOut];\n\n        poolAmountIn = _calc_PoolInGivenSingleOut(T.balance, T.denorm, _totalSupply, _totalWeight, tokenAmountOut, _swapFee);\n        T.balance = bsub(T.balance, tokenAmountOut);\n\n        uint exitFee = bmul(poolAmountIn, EXIT_FEE);\n\n        _pullPoolShare(msg.sender, poolAmountIn);\n        _burnPoolShare(bsub(poolAmountIn, exitFee));\n        _pushPoolShare(_factory, exitFee);\n        _pushUnderlying(tokenOut, msg.sender, tokenAmountOut);        \n\n        emit LOG_EXIT(msg.sender, tokenOut, tokenAmountOut);\n\n        return poolAmountIn;\n    }\n\n\n    // ==\n    // 'Underlying' token-manipulation functions make external calls but are NOT locked\n    // You must `_lock_` or otherwise ensure reentry-safety\n\n    function _pullUnderlying(address erc20, address from, uint amount)\n      internal\n    {\n        bool xfer = ERC20(erc20).transferFrom(from, address(this), amount);\n        require(xfer, ERR_ERC20_FALSE);\n    }\n\n    function _pushUnderlying(address erc20, address to, uint amount)\n      internal\n    {\n        bool xfer = ERC20(erc20).transfer(to, amount);\n        require(xfer, ERR_ERC20_FALSE);\n    }\n\n    function _pullPoolShare(address from, uint amount)\n      internal {\n        _pull(from, amount);\n    }\n\n    function _pushPoolShare(address to, uint amount)\n      internal {\n        _push(to, amount);\n    }\n\n    function _mintPoolShare(uint amount)\n      internal {\n        _mint(amount);\n    }\n\n    function _burnPoolShare(uint amount)\n      internal {\n        _burn(amount);\n    }\n\n}\n",
  "sourcePath": "/Users/mike/Projects/balancer/balancer-exchange/lib/balancer-core/contracts/BPool.sol",
  "compiler": {
    "name": "solc",
    "version": "0.5.11+commit.c082d0b4.Emscripten.clang"
  },
  "schemaVersion": "3.0.16",
  "updatedAt": "2019-11-19T02:56:52.876Z",
  "devdoc": {
    "methods": {}
  },
  "userdoc": {
    "methods": {}
  }
}