{
    "contractName": "ExchangeProxy",
    "abi": [
        {
            "inputs": [
                {
                    "internalType": "address",
                    "name": "_weth",
                    "type": "address"
                }
            ],
            "payable": false,
            "stateMutability": "nonpayable",
            "type": "constructor"
        },
        {
            "payable": true,
            "stateMutability": "payable",
            "type": "fallback"
        },
        {
            "constant": false,
            "inputs": [
                {
                    "components": [
                        {
                            "internalType": "address",
                            "name": "pool",
                            "type": "address"
                        },
                        {
                            "internalType": "address",
                            "name": "tokenIn",
                            "type": "address"
                        },
                        {
                            "internalType": "address",
                            "name": "tokenOut",
                            "type": "address"
                        },
                        {
                            "internalType": "uint256",
                            "name": "swapAmount",
                            "type": "uint256"
                        },
                        {
                            "internalType": "uint256",
                            "name": "limitReturnAmount",
                            "type": "uint256"
                        },
                        {
                            "internalType": "uint256",
                            "name": "maxPrice",
                            "type": "uint256"
                        }
                    ],
                    "internalType": "struct ExchangeProxy.Swap[][]",
                    "name": "swapSequences",
                    "type": "tuple[][]"
                },
                {
                    "internalType": "contract TokenInterface",
                    "name": "tokenIn",
                    "type": "address"
                },
                {
                    "internalType": "contract TokenInterface",
                    "name": "tokenOut",
                    "type": "address"
                },
                {
                    "internalType": "uint256",
                    "name": "totalAmountIn",
                    "type": "uint256"
                },
                {
                    "internalType": "uint256",
                    "name": "minTotalAmountOut",
                    "type": "uint256"
                }
            ],
            "name": "multihopBatchSwapExactIn",
            "outputs": [
                {
                    "internalType": "uint256",
                    "name": "totalAmountOut",
                    "type": "uint256"
                }
            ],
            "payable": true,
            "stateMutability": "payable",
            "type": "function"
        },
        {
            "constant": false,
            "inputs": [
                {
                    "components": [
                        {
                            "internalType": "address",
                            "name": "pool",
                            "type": "address"
                        },
                        {
                            "internalType": "address",
                            "name": "tokenIn",
                            "type": "address"
                        },
                        {
                            "internalType": "address",
                            "name": "tokenOut",
                            "type": "address"
                        },
                        {
                            "internalType": "uint256",
                            "name": "swapAmount",
                            "type": "uint256"
                        },
                        {
                            "internalType": "uint256",
                            "name": "limitReturnAmount",
                            "type": "uint256"
                        },
                        {
                            "internalType": "uint256",
                            "name": "maxPrice",
                            "type": "uint256"
                        }
                    ],
                    "internalType": "struct ExchangeProxy.Swap[][]",
                    "name": "swapSequences",
                    "type": "tuple[][]"
                },
                {
                    "internalType": "contract TokenInterface",
                    "name": "tokenIn",
                    "type": "address"
                },
                {
                    "internalType": "contract TokenInterface",
                    "name": "tokenOut",
                    "type": "address"
                },
                {
                    "internalType": "uint256",
                    "name": "maxTotalAmountIn",
                    "type": "uint256"
                }
            ],
            "name": "multihopBatchSwapExactOut",
            "outputs": [
                {
                    "internalType": "uint256",
                    "name": "totalAmountIn",
                    "type": "uint256"
                }
            ],
            "payable": true,
            "stateMutability": "payable",
            "type": "function"
        }
    ],
    "bytecode": "0x60806040523480156200001157600080fd5b5060405162001a0d38038062001a0d83398101604081905262000034916200006d565b60008054600160a060020a031916600160a060020a0392909216919091179055620000c2565b80516200006781620000a8565b92915050565b6000602082840312156200008057600080fd5b60006200008e84846200005a565b949350505050565b6000600160a060020a03821662000067565b620000b38162000096565b8114620000bf57600080fd5b50565b61193b80620000d26000396000f3fe60806040526004361061002c5760e060020a600035046386b2ecc4811461002e578063e2b3974614610057575b005b61004161003c3660046113ad565b61006a565b60405161004e91906117cd565b60405180910390f35b610041610065366004611425565b610acf565b60006100768483610df7565b5060005b8551811015610a7957600086828151811061009157fe5b60200260200101515160011415610321576100aa6111b0565b8783815181106100b657fe5b60200260200101516000815181106100ca57fe5b60209081029190910181015190810151815160405160e160020a636eb1769f0281529293509091600090600160a060020a0384169063dd62ed3e9061011590309086906004016116aa565b60206040518083038186803b15801561012d57600080fd5b505afa158015610141573d6000803e3d6000fd5b505050506040513d601f19601f8201168201806040525061016591908101906114d7565b11156101f257825160405160e060020a63095ea7b3028152600160a060020a0384169163095ea7b39161019e9190600090600401611708565b602060405180830381600087803b1580156101b857600080fd5b505af11580156101cc573d6000803e3d6000fd5b505050506040513d601f19601f820116820180604052506101f091908101906114b1565b505b8251608084015160405160e060020a63095ea7b3028152600160a060020a0385169263095ea7b39261022692600401611723565b602060405180830381600087803b15801561024057600080fd5b505af1158015610254573d6000803e3d6000fd5b505050506040513d601f19601f8201168201806040525061027891908101906114b1565b5080600160a060020a0316637c5e9ea484602001518560800151866040015187606001518860a001516040518663ffffffff1660e060020a0281526004016102c4959493929190611731565b6040805180830381600087803b1580156102dd57600080fd5b505af11580156102f1573d6000803e3d6000fd5b505050506040513d601f19601f8201168201806040525061031591908101906114f5565b509350610a6492505050565b600061032b6111b0565b88848151811061033757fe5b602002602001015160018151811061034b57fe5b6020908102919091018101518051918101516040517ff8b2cb4f000000000000000000000000000000000000000000000000000000008152919350600160a060020a0383169163f8d6aed491839163f8b2cb4f916103ab9160040161168e565b60206040518083038186803b1580156103c357600080fd5b505afa1580156103d7573d6000803e3d6000fd5b505050506040513d601f19601f820116820180604052506103fb91908101906114d7565b60208501516040517f948d8ce6000000000000000000000000000000000000000000000000000000008152600160a060020a0386169163948d8ce691610444919060040161168e565b60206040518083038186803b15801561045c57600080fd5b505afa158015610470573d6000803e3d6000fd5b505050506040513d601f19601f8201168201806040525061049491908101906114d7565b60408087015190517ff8b2cb4f000000000000000000000000000000000000000000000000000000008152600160a060020a0387169163f8b2cb4f916104dd919060040161168e565b60206040518083038186803b1580156104f557600080fd5b505afa158015610509573d6000803e3d6000fd5b505050506040513d601f19601f8201168201806040525061052d91908101906114d7565b60408088015190517f948d8ce6000000000000000000000000000000000000000000000000000000008152600160a060020a0388169163948d8ce691610576919060040161168e565b60206040518083038186803b15801561058e57600080fd5b505afa1580156105a2573d6000803e3d6000fd5b505050506040513d601f19601f820116820180604052506105c691908101906114d7565b876060015187600160a060020a031663d4cadf686040518163ffffffff1660e060020a02815260040160206040518083038186803b15801561060757600080fd5b505afa15801561061b573d6000803e3d6000fd5b505050506040513d601f19601f8201168201806040525061063f91908101906114d7565b6040518763ffffffff1660e060020a028152600401610663969594939291906117db565b60206040518083038186803b15801561067b57600080fd5b505afa15801561068f573d6000803e3d6000fd5b505050506040513d601f19601f820116820180604052506106b391908101906114d7565b92506106bd6111b0565b8a86815181106106c957fe5b60200260200101516000815181106106dd57fe5b60209081029190910181015190810151815160405160e160020a636eb1769f028152929350909160001990600160a060020a0384169063dd62ed3e9061072990309086906004016116aa565b60206040518083038186803b15801561074157600080fd5b505afa158015610755573d6000803e3d6000fd5b505050506040513d601f19601f8201168201806040525061077991908101906114d7565b101561080757825160405160e060020a63095ea7b3028152600160a060020a0384169163095ea7b3916107b3919060001990600401611723565b602060405180830381600087803b1580156107cd57600080fd5b505af11580156107e1573d6000803e3d6000fd5b505050506040513d601f19601f8201168201806040525061080591908101906114b1565b505b80600160a060020a0316637c5e9ea48460200151856080015186604001518a8860a001516040518663ffffffff1660e060020a02815260040161084e959493929190611731565b6040805180830381600087803b15801561086757600080fd5b505af115801561087b573d6000803e3d6000fd5b505050506040513d601f19601f8201168201806040525061089f91908101906114f5565b506020860151865160405160e160020a636eb1769f028152929950909160001991600160a060020a0384169163dd62ed3e916108e0913091906004016116aa565b60206040518083038186803b1580156108f857600080fd5b505afa15801561090c573d6000803e3d6000fd5b505050506040513d601f19601f8201168201806040525061093091908101906114d7565b10156109be57855160405160e060020a63095ea7b3028152600160a060020a0383169163095ea7b39161096a919060001990600401611723565b602060405180830381600087803b15801561098457600080fd5b505af1158015610998573d6000803e3d6000fd5b505050506040513d601f19601f820116820180604052506109bc91908101906114b1565b505b84600160a060020a0316637c5e9ea48760200151886080015189604001518a606001518b60a001516040518663ffffffff1660e060020a028152600401610a09959493929190611731565b6040805180830381600087803b158015610a2257600080fd5b505af1158015610a36573d6000803e3d6000fd5b505050506040513d601f19601f82011682018060405250610a5a91908101906114f5565b5050505050505050505b610a6e8184610f43565b92505060010161007a565b5081811115610aa65760405160e560020a62461bcd028152600401610a9d9061178d565b60405180910390fd5b610ab883610ab385610f72565b611027565b50610ac684610ab386610f72565b50949350505050565b6000610adb8584610df7565b5060005b8651811015610db1576000805b888381518110610af857fe5b602002602001015151811015610d9b57610b106111b0565b898481518110610b1c57fe5b60200260200101518281518110610b2f57fe5b602002602001015190506000816020015190508260011415610b5357606082018490525b815160405160e160020a636eb1769f028152600090600160a060020a0384169063dd62ed3e90610b8990309086906004016116aa565b60206040518083038186803b158015610ba157600080fd5b505afa158015610bb5573d6000803e3d6000fd5b505050506040513d601f19601f82011682018060405250610bd991908101906114d7565b1115610c6657825160405160e060020a63095ea7b3028152600160a060020a0384169163095ea7b391610c129190600090600401611708565b602060405180830381600087803b158015610c2c57600080fd5b505af1158015610c40573d6000803e3d6000fd5b505050506040513d601f19601f82011682018060405250610c6491908101906114b1565b505b8251606084015160405160e060020a63095ea7b3028152600160a060020a0385169263095ea7b392610c9a92600401611723565b602060405180830381600087803b158015610cb457600080fd5b505af1158015610cc8573d6000803e3d6000fd5b505050506040513d601f19601f82011682018060405250610cec91908101906114b1565b5080600160a060020a0316638201aa3f84602001518560600151866040015187608001518860a001516040518663ffffffff1660e060020a028152600401610d38959493929190611731565b6040805180830381600087803b158015610d5157600080fd5b505af1158015610d65573d6000803e3d6000fd5b505050506040513d601f19601f82011682018060405250610d8991908101906114f5565b5094505060019092019150610aec9050565b50610da68184610f43565b925050600101610adf565b5081811015610dd55760405160e560020a62461bcd028152600401610a9d9061177d565b610ddf8482611027565b50610ded85610ab387610f72565b5095945050505050565b6000610e028361118b565b15610e835760008054604080517fd0e30db00000000000000000000000000000000000000000000000000000000081529051600160a060020a039092169263d0e30db0923492600480820193929182900301818588803b158015610e6557600080fd5b505af1158015610e79573d6000803e3d6000fd5b5050505050610f3d565b6040517f23b872dd000000000000000000000000000000000000000000000000000000008152600160a060020a038416906323b872dd90610ecc903390309087906004016116c5565b602060405180830381600087803b158015610ee657600080fd5b505af1158015610efa573d6000803e3d6000fd5b505050506040513d601f19601f82011682018060405250610f1e91908101906114b1565b610f3d5760405160e560020a62461bcd028152600401610a9d906117ad565b92915050565b600082820183811015610f6b5760405160e560020a62461bcd028152600401610a9d906117bd565b9392505050565b6000610f7d8261118b565b15610f8a57503031611022565b6040517f70a08231000000000000000000000000000000000000000000000000000000008152600160a060020a038316906370a0823190610fcf90309060040161169c565b60206040518083038186803b158015610fe757600080fd5b505afa158015610ffb573d6000803e3d6000fd5b505050506040513d601f19601f8201168201806040525061101f91908101906114d7565b90505b919050565b60008161103657506001610f3d565b61103f8361118b565b15611144576000546040517f2e1a7d4d000000000000000000000000000000000000000000000000000000008152600160a060020a0390911690632e1a7d4d9061108d9085906004016117cd565b600060405180830381600087803b1580156110a757600080fd5b505af11580156110bb573d6000803e3d6000fd5b50505050600033600160a060020a0316836040516110d890611683565b60006040518083038185875af1925050503d8060008114611115576040519150601f19603f3d011682016040523d82523d6000602084013e61111a565b606091505b505090508061113e5760405160e560020a62461bcd028152600401610a9d9061179d565b50610f3d565b6040517fa9059cbb000000000000000000000000000000000000000000000000000000008152600160a060020a0384169063a9059cbb90610ecc90339086906004016116ed565b600160a060020a03811673eeeeeeeeeeeeeeeeeeeeeeeeeeeeeeeeeeeeeeee14919050565b6040518060c001604052806000600160a060020a031681526020016000600160a060020a031681526020016000600160a060020a031681526020016000815260200160008152602001600081525090565b8035610f3d816118c6565b600082601f83011261121d57600080fd5b813561123061122b8261185c565b611835565b81815260209384019390925082018360005b8381101561126e57813586016112588882611278565b8452506020928301929190910190600101611242565b5050505092915050565b600082601f83011261128957600080fd5b813561129761122b8261185c565b915081818352602084019350602081019050838560c08402820111156112bc57600080fd5b60005b8381101561126e57816112d28882611300565b84525060209092019160c091909101906001016112bf565b8051610f3d816118dd565b8035610f3d816118e6565b600060c0828403121561131257600080fd5b61131c60c0611835565b9050600061132a8484611201565b825250602061133b84848301611201565b602083015250604061134f84828501611201565b604083015250606061136384828501611397565b606083015250608061137784828501611397565b60808301525060a061138b84828501611397565b60a08301525092915050565b8035610f3d816118ef565b8051610f3d816118ef565b600080600080608085870312156113c357600080fd5b843567ffffffffffffffff8111156113da57600080fd5b6113e68782880161120c565b94505060206113f7878288016112f5565b9350506040611408878288016112f5565b925050606061141987828801611397565b91505092959194509250565b600080600080600060a0868803121561143d57600080fd5b853567ffffffffffffffff81111561145457600080fd5b6114608882890161120c565b9550506020611471888289016112f5565b9450506040611482888289016112f5565b935050606061149388828901611397565b92505060806114a488828901611397565b9150509295509295909350565b6000602082840312156114c357600080fd5b60006114cf84846112ea565b949350505050565b6000602082840312156114e957600080fd5b60006114cf84846113a2565b6000806040838503121561150857600080fd5b600061151485856113a2565b9250506020611525858286016113a2565b9150509250929050565b611538816118b0565b82525050565b61153881611886565b611538816118bb565b600061155d600d8361187d565b7f4552525f4c494d49545f4f555400000000000000000000000000000000000000815260200192915050565b6000611596600c8361187d565b7f4552525f4c494d49545f494e0000000000000000000000000000000000000000815260200192915050565b60006115cf600e8361187d565b7f4552525f4554485f4641494c4544000000000000000000000000000000000000815260200192915050565b6000610f3d600083611022565b600061161560138361187d565b7f4552525f5452414e534645525f4641494c454400000000000000000000000000815260200192915050565b600061164e60108361187d565b7f4552525f4144445f4f564552464c4f5700000000000000000000000000000000815260200192915050565b611538816118ad565b6000610f3d826115fb565b60208101610f3d828461153e565b60208101610f3d828461152f565b604081016116b8828561152f565b610f6b602083018461153e565b606081016116d3828661152f565b6116e0602083018561152f565b6114cf604083018461167a565b604081016116fb828561152f565b610f6b602083018461167a565b60408101611716828561153e565b610f6b6020830184611547565b604081016116fb828561153e565b60a0810161173f828861153e565b61174c602083018761167a565b611759604083018661153e565b611766606083018561167a565b611773608083018461167a565b9695505050505050565b60208082528101610f3d81611550565b60208082528101610f3d81611589565b60208082528101610f3d816115c2565b60208082528101610f3d81611608565b60208082528101610f3d81611641565b60208101610f3d828461167a565b60c081016117e9828961167a565b6117f6602083018861167a565b611803604083018761167a565b611810606083018661167a565b61181d608083018561167a565b61182a60a083018461167a565b979650505050505050565b60405181810167ffffffffffffffff8111828210171561185457600080fd5b604052919050565b600067ffffffffffffffff82111561187357600080fd5b5060209081020190565b90815260200190565b6000610f3d826118a1565b151590565b6000610f3d82611886565b600160a060020a031690565b90565b6000610f3d82611896565b6000610f3d826118ad565b6118cf81611886565b81146118da57600080fd5b50565b6118cf81611891565b6118cf81611896565b6118cf816118ad56fea365627a7a72315820d52da847797d4a78ed4832e34baa1df9b2ec4b105ef4df64758506eb03523bec6c6578706572696d656e74616cf564736f6c634300050c0040",
    "source": "// This program is free software: you can redistribute it and/or modify\n// it under the terms of the GNU General Public License as published by\n// the Free Software Foundation, either version 3 of the License, or\n// (at your option) any later version.\n\n// This program is distributed in the hope that it will be useful,\n// but WITHOUT ANY WARRANTY; without even the implied warranty of\n// MERCHANTABILITY or FITNESS FOR A PARTICULAR PURPOSE.  See the\n// GNU General Public License for more details.\n\n// You should have received a copy of the GNU General Public License\n// along with this program.  If not, see <http://www.gnu.org/licenses/>.\n\npragma solidity 0.5.12;\npragma experimental ABIEncoderV2;\n\n\ncontract PoolInterface {\n    function swapExactAmountIn(address, uint, address, uint, uint) external returns (uint, uint);\n    function swapExactAmountOut(address, uint, address, uint, uint) external returns (uint, uint);\n    function calcInGivenOut(uint, uint, uint, uint, uint, uint) public pure returns (uint);\n    function getDenormalizedWeight(address) external view returns (uint);\n    function getBalance(address) external view returns (uint);\n    function getSwapFee() external view returns (uint);\n}\n\ncontract TokenInterface {\n    function balanceOf(address) public view returns (uint);\n    function allowance(address, address) public view returns (uint);\n    function approve(address, uint) public returns (bool);\n    function transfer(address, uint) public returns (bool);\n    function transferFrom(address, address, uint) public returns (bool);\n    function deposit() public payable;\n    function withdraw(uint) public;\n}\n\ncontract ExchangeProxy {\n\n    struct Swap {\n        address pool;\n        address tokenIn;\n        address tokenOut;\n        uint    swapAmount; // tokenInAmount / tokenOutAmount\n        uint    limitReturnAmount; // minAmountOut / maxAmountIn\n        uint    maxPrice;\n    }\n\n    TokenInterface weth;\n    address private constant ETH_ADDRESS = address(0xEeeeeEeeeEeEeeEeEeEeeEEEeeeeEeeeeeeeEEeE);\n\n    constructor(address _weth) public {\n        weth = TokenInterface(_weth);\n    }\n\n    function add(uint a, uint b) internal pure returns (uint) {\n        uint c = a + b;\n        require(c >= a, \"ERR_ADD_OVERFLOW\");\n        return c;\n    }\n\n    function transferFromAll(TokenInterface token, uint256 amount) internal returns(bool) {\n        if (isETH(token)) {\n            weth.deposit.value(msg.value)();\n        } else {\n            require(token.transferFrom(msg.sender, address(this), amount), \"ERR_TRANSFER_FAILED\");\n        }\n    }\n\n    function getBalance(TokenInterface token) internal view returns (uint256) {\n        if (isETH(token)) {\n            return address(this).balance;\n        } else {\n            return token.balanceOf(address(this));\n        }\n    }\n\n    function transferAll(TokenInterface token, uint256 amount) internal returns(bool) {\n        if (amount == 0) {\n            return true;\n        }\n\n        if (isETH(token)) {\n            weth.withdraw(amount);\n            (bool xfer,) = msg.sender.call.value(amount)(\"\");\n            require(xfer, \"ERR_ETH_FAILED\");\n        } else {\n            require(token.transfer(msg.sender, amount), \"ERR_TRANSFER_FAILED\");\n        }\n    }\n\n    function isETH(TokenInterface token) internal pure returns(bool) {\n        return (address(token) == ETH_ADDRESS);\n    }\n\n    function multihopBatchSwapExactIn(\n        Swap[][] memory swapSequences,\n        TokenInterface tokenIn,\n        TokenInterface tokenOut,\n        uint totalAmountIn,\n        uint minTotalAmountOut\n    )\n        public payable\n        returns (uint totalAmountOut)\n    {\n\n        transferFromAll(tokenIn, totalAmountIn);\n\n        for (uint i = 0; i < swapSequences.length; i++) {\n            uint tokenAmountOut;\n            for (uint k = 0; k < swapSequences[i].length; k++) {\n                Swap memory swap = swapSequences[i][k];\n                TokenInterface SwapTokenIn = TokenInterface(swap.tokenIn);\n                if (k == 1) {\n                    // Makes sure that on the second swap the output of the first was used\n                    // so there is not intermediate token leftover\n                    swap.swapAmount = tokenAmountOut;\n                }\n\n                PoolInterface pool = PoolInterface(swap.pool);\n                if (SwapTokenIn.allowance(address(this), swap.pool) > 0) {\n                    SwapTokenIn.approve(swap.pool, 0);\n                }\n                SwapTokenIn.approve(swap.pool, swap.swapAmount);\n                (tokenAmountOut,) = pool.swapExactAmountIn(\n                                            swap.tokenIn,\n                                            swap.swapAmount,\n                                            swap.tokenOut,\n                                            swap.limitReturnAmount,\n                                            swap.maxPrice\n                                        );\n            }\n            // This takes the amountOut of the last swap\n            totalAmountOut = add(tokenAmountOut, totalAmountOut);\n        }\n\n        require(totalAmountOut >= minTotalAmountOut, \"ERR_LIMIT_OUT\");\n\n        transferAll(tokenOut, totalAmountOut);\n        transferAll(tokenIn, getBalance(tokenIn));\n\n    }\n\n    function multihopBatchSwapExactOut(\n        Swap[][] memory swapSequences,\n        TokenInterface tokenIn,\n        TokenInterface tokenOut,\n        uint maxTotalAmountIn\n    )\n        public payable\n        returns (uint totalAmountIn)\n    {\n\n        transferFromAll(tokenIn, maxTotalAmountIn);\n\n        for (uint i = 0; i < swapSequences.length; i++) {\n            uint tokenAmountInFirstSwap;\n            // Specific code for a simple swap and a multihop (2 swaps in sequence)\n            if (swapSequences[i].length == 1) {\n                Swap memory swap = swapSequences[i][0];\n                TokenInterface SwapTokenIn = TokenInterface(swap.tokenIn);\n\n                PoolInterface pool = PoolInterface(swap.pool);\n                if (SwapTokenIn.allowance(address(this), swap.pool) > 0) {\n                    SwapTokenIn.approve(swap.pool, 0);\n                }\n                SwapTokenIn.approve(swap.pool, swap.limitReturnAmount);\n\n                (tokenAmountInFirstSwap,) = pool.swapExactAmountOut(\n                                        swap.tokenIn,\n                                        swap.limitReturnAmount,\n                                        swap.tokenOut,\n                                        swap.swapAmount,\n                                        swap.maxPrice\n                                    );\n            } else {\n                // Consider we are swapping A -> B and B -> C. The goal is to buy a given amount\n                // of token C. But first we need to buy B with A so we can then buy C with B\n                // To get the exact amount of C we then first need to calculate how much B we'll need:\n                uint intermediateTokenAmount; // This would be token B as described above\n                Swap memory secondSwap = swapSequences[i][1];\n                PoolInterface poolSecondSwap = PoolInterface(secondSwap.pool);\n                intermediateTokenAmount = poolSecondSwap.calcInGivenOut(\n                                        poolSecondSwap.getBalance(secondSwap.tokenIn),\n                                        poolSecondSwap.getDenormalizedWeight(secondSwap.tokenIn),\n                                        poolSecondSwap.getBalance(secondSwap.tokenOut),\n                                        poolSecondSwap.getDenormalizedWeight(secondSwap.tokenOut),\n                                        secondSwap.swapAmount,\n                                        poolSecondSwap.getSwapFee()\n                                    );\n\n                //// Buy intermediateTokenAmount of token B with A in the first pool\n                Swap memory firstSwap = swapSequences[i][0];\n                TokenInterface FirstSwapTokenIn = TokenInterface(firstSwap.tokenIn);\n                PoolInterface poolFirstSwap = PoolInterface(firstSwap.pool);\n                if (FirstSwapTokenIn.allowance(address(this), firstSwap.pool) < uint(-1)) {\n                    FirstSwapTokenIn.approve(firstSwap.pool, uint(-1));\n                }\n\n                (tokenAmountInFirstSwap,) = poolFirstSwap.swapExactAmountOut(\n                                        firstSwap.tokenIn,\n                                        firstSwap.limitReturnAmount,\n                                        firstSwap.tokenOut,\n                                        intermediateTokenAmount, // This is the amount of token B we need\n                                        firstSwap.maxPrice\n                                    );\n\n                //// Buy the final amount of token C desired\n                TokenInterface SecondSwapTokenIn = TokenInterface(secondSwap.tokenIn);\n                if (SecondSwapTokenIn.allowance(address(this), secondSwap.pool) < uint(-1)) {\n                    SecondSwapTokenIn.approve(secondSwap.pool, uint(-1));\n                }\n\n                poolSecondSwap.swapExactAmountOut(\n                                        secondSwap.tokenIn,\n                                        secondSwap.limitReturnAmount,\n                                        secondSwap.tokenOut,\n                                        secondSwap.swapAmount,\n                                        secondSwap.maxPrice\n                                    );\n            }\n            totalAmountIn = add(tokenAmountInFirstSwap, totalAmountIn);\n        }\n\n        require(totalAmountIn <= maxTotalAmountIn, \"ERR_LIMIT_IN\");\n\n        transferAll(tokenOut, getBalance(tokenOut));\n        transferAll(tokenIn, getBalance(tokenIn));\n    }\n\n    function() external payable {}\n}\n",
    "sourcePath": "/Users/jg/exchange-proxy/contracts/ExchangeProxy.sol",
    "compiler": {
        "name": "solc",
        "version": "0.5.12+commit.7709ece9.Emscripten.clang"
    },
    "schemaVersion": "3.0.23",
    "updatedAt": "2020-06-19T15:21:28.927Z",
    "networkType": "ethereum",
    "devdoc": {
        "methods": {}
    },
    "userdoc": {
        "methods": {}
    }
}