{
    "contractName": "ExchangeProxy",
    "abi": [
        {
            "constant": false,
            "inputs": [
                {
                    "components": [
                        {
                            "internalType": "address",
                            "name": "pool",
                            "type": "address"
                        },
                        {
                            "internalType": "uint256",
                            "name": "tokenInParam",
                            "type": "uint256"
                        },
                        {
                            "internalType": "uint256",
                            "name": "tokenOutParam",
                            "type": "uint256"
                        },
                        {
                            "internalType": "uint256",
                            "name": "maxPrice",
                            "type": "uint256"
                        }
                    ],
                    "internalType": "struct ExchangeProxy.Swap[]",
                    "name": "swaps",
                    "type": "tuple[]"
                },
                {
                    "internalType": "address",
                    "name": "tokenIn",
                    "type": "address"
                },
                {
                    "internalType": "address",
                    "name": "tokenOut",
                    "type": "address"
                },
                {
                    "internalType": "uint256",
                    "name": "totalAmountIn",
                    "type": "uint256"
                },
                {
                    "internalType": "uint256",
                    "name": "minTotalAmountOut",
                    "type": "uint256"
                }
            ],
            "name": "batchSwapExactIn",
            "outputs": [
                {
                    "internalType": "uint256",
                    "name": "totalAmountOut",
                    "type": "uint256"
                }
            ],
            "payable": false,
            "stateMutability": "nonpayable",
            "type": "function"
        },
        {
            "constant": false,
            "inputs": [
                {
                    "components": [
                        {
                            "internalType": "address",
                            "name": "pool",
                            "type": "address"
                        },
                        {
                            "internalType": "uint256",
                            "name": "tokenInParam",
                            "type": "uint256"
                        },
                        {
                            "internalType": "uint256",
                            "name": "tokenOutParam",
                            "type": "uint256"
                        },
                        {
                            "internalType": "uint256",
                            "name": "maxPrice",
                            "type": "uint256"
                        }
                    ],
                    "internalType": "struct ExchangeProxy.Swap[]",
                    "name": "swaps",
                    "type": "tuple[]"
                },
                {
                    "internalType": "address",
                    "name": "tokenIn",
                    "type": "address"
                },
                {
                    "internalType": "address",
                    "name": "tokenOut",
                    "type": "address"
                },
                {
                    "internalType": "uint256",
                    "name": "totalAmountOut",
                    "type": "uint256"
                },
                {
                    "internalType": "uint256",
                    "name": "maxTotalAmountIn",
                    "type": "uint256"
                }
            ],
            "name": "batchSwapExactOut",
            "outputs": [
                {
                    "internalType": "uint256",
                    "name": "totalAmountIn",
                    "type": "uint256"
                }
            ],
            "payable": false,
            "stateMutability": "nonpayable",
            "type": "function"
        },
        {
            "constant": false,
            "inputs": [],
            "name": "batchEthInSwapExactIn",
            "outputs": [],
            "payable": true,
            "stateMutability": "payable",
            "type": "function"
        },
        {
            "constant": false,
            "inputs": [],
            "name": "batchEthOutSwapExactIn",
            "outputs": [],
            "payable": false,
            "stateMutability": "nonpayable",
            "type": "function"
        },
        {
            "constant": false,
            "inputs": [],
            "name": "batchEthInSwapExactOut",
            "outputs": [],
            "payable": true,
            "stateMutability": "payable",
            "type": "function"
        },
        {
            "constant": false,
            "inputs": [],
            "name": "batchEthOutSwapExactOut",
            "outputs": [],
            "payable": false,
            "stateMutability": "nonpayable",
            "type": "function"
        }
    ],
    "bytecode": "0x608060405234801561001057600080fd5b50610d4a806100206000396000f3fe6080604052600436106100585760e060020a60003504631ae2fd33811461005d57806328e4e312146100745780638cbfbae61461005d578063a6e3a7ba14610074578063e34404231461007c578063f4378240146100b2575b600080fd5b34801561006957600080fd5b506100726100d2565b005b6100726100d2565b34801561008857600080fd5b5061009c610097366004610a0e565b6100d4565b6040516100a99190610c4f565b60405180910390f35b3480156100be57600080fd5b5061009c6100cd366004610a0e565b61055b565b565b6040517f23b872dd00000000000000000000000000000000000000000000000000000000815260009085908590600160a060020a038316906323b872dd9061012490339030908990600401610b80565b602060405180830381600087803b15801561013e57600080fd5b505af1158015610152573d6000803e3d6000fd5b505050506040513d601f19601f820116820180604052506101769190810190610a9a565b5060009250825b88518110156103a15761018e6108c1565b89828151811061019a57fe5b602090810291909101015180516040517fdd62ed3e000000000000000000000000000000000000000000000000000000008152919250908790600160a060020a0387169063dd62ed3e906101f49030908690600401610bca565b602060405180830381600087803b15801561020e57600080fd5b505af1158015610222573d6000803e3d6000fd5b505050506040513d601f19601f820116820180604052506102469190810190610ac0565b10156102ea5781516040517f095ea7b3000000000000000000000000000000000000000000000000000000008152600160a060020a0387169163095ea7b391610296919060001990600401610be5565b602060405180830381600087803b1580156102b057600080fd5b505af11580156102c4573d6000803e3d6000fd5b505050506040513d601f19601f820116820180604052506102e89190810190610a9a565b505b60008082600160a060020a03166362fd79428d86602001518e886040015189606001516040518663ffffffff1660e060020a028152600401610330959493929190610bf3565b6040805180830381600087803b15801561034957600080fd5b505af115801561035d573d6000803e3d6000fd5b505050506040513d601f19601f820116820180604052506103819190810190610ade565b9150915061038f8289610870565b9750506001909301925061017d915050565b506040517fa9059cbb000000000000000000000000000000000000000000000000000000008152600160a060020a0382169063a9059cbb906103e99033908990600401610ba8565b602060405180830381600087803b15801561040357600080fd5b505af1158015610417573d6000803e3d6000fd5b505050506040513d601f19601f8201168201806040525061043b9190810190610a9a565b506040517f70a08231000000000000000000000000000000000000000000000000000000008152600160a060020a0383169063a9059cbb90339083906370a082319061048b903090600401610b72565b602060405180830381600087803b1580156104a557600080fd5b505af11580156104b9573d6000803e3d6000fd5b505050506040513d601f19601f820116820180604052506104dd9190810190610ac0565b6040518363ffffffff1660e060020a0281526004016104fd929190610ba8565b602060405180830381600087803b15801561051757600080fd5b505af115801561052b573d6000803e3d6000fd5b505050506040513d601f19601f8201168201806040525061054f9190810190610a9a565b50505095945050505050565b6040517f23b872dd00000000000000000000000000000000000000000000000000000000815260009085908590600160a060020a038316906323b872dd906105ab90339030908a90600401610b80565b602060405180830381600087803b1580156105c557600080fd5b505af11580156105d9573d6000803e3d6000fd5b505050506040513d601f19601f820116820180604052506105fd9190810190610a9a565b5060009250825b8851811015610828576106156108c1565b89828151811061062157fe5b602090810291909101015180516040517fdd62ed3e000000000000000000000000000000000000000000000000000000008152919250908890600160a060020a0387169063dd62ed3e9061067b9030908690600401610bca565b602060405180830381600087803b15801561069557600080fd5b505af11580156106a9573d6000803e3d6000fd5b505050506040513d601f19601f820116820180604052506106cd9190810190610ac0565b10156107715781516040517f095ea7b3000000000000000000000000000000000000000000000000000000008152600160a060020a0387169163095ea7b39161071d919060001990600401610be5565b602060405180830381600087803b15801561073757600080fd5b505af115801561074b573d6000803e3d6000fd5b505050506040513d601f19601f8201168201806040525061076f9190810190610a9a565b505b60008082600160a060020a031663ce1d477d8d86602001518e886040015189606001516040518663ffffffff1660e060020a0281526004016107b7959493929190610bf3565b6040805180830381600087803b1580156107d057600080fd5b505af11580156107e4573d6000803e3d6000fd5b505050506040513d601f19601f820116820180604052506108089190810190610ade565b915091506108168289610870565b97505060019093019250610604915050565b506040517fa9059cbb000000000000000000000000000000000000000000000000000000008152600160a060020a0382169063a9059cbb906104fd9033908790600401610ba8565b6000828201838110156108b8576040517f08c379a00000000000000000000000000000000000000000000000000000000081526004016108af90610c3f565b60405180910390fd5b90505b92915050565b60405180608001604052806000600160a060020a031681526020016000815260200160008152602001600081525090565b80356108bb81610cde565b600082601f83011261090e57600080fd5b813561092161091c82610c84565b610c5d565b9150818183526020840193506020810190508385608084028201111561094657600080fd5b60005b83811015610974578161095c8882610989565b84525060209092019160809190910190600101610949565b5050505092915050565b80516108bb81610cf5565b60006080828403121561099b57600080fd5b6109a56080610c5d565b905060006109b384846108f2565b82525060206109c4848483016109f8565b60208301525060406109d8848285016109f8565b60408301525060606109ec848285016109f8565b60608301525092915050565b80356108bb81610cfe565b80516108bb81610cfe565b600080600080600060a08688031215610a2657600080fd5b853567ffffffffffffffff811115610a3d57600080fd5b610a49888289016108fd565b9550506020610a5a888289016108f2565b9450506040610a6b888289016108f2565b9350506060610a7c888289016109f8565b9250506080610a8d888289016109f8565b9150509295509295909350565b600060208284031215610aac57600080fd5b6000610ab8848461097e565b949350505050565b600060208284031215610ad257600080fd5b6000610ab88484610a03565b60008060408385031215610af157600080fd5b6000610afd8585610a03565b9250506020610b0e85828601610a03565b9150509250929050565b610b2181610ccd565b82525050565b610b2181610cae565b6000610b3d601083610ca5565b7f4552525f4144445f4f564552464c4f5700000000000000000000000000000000815260200192915050565b610b2181610cca565b602081016108bb8284610b27565b60608101610b8e8286610b18565b610b9b6020830185610b27565b610ab86040830184610b69565b60408101610bb68285610b18565b610bc36020830184610b69565b9392505050565b60408101610bd88285610b27565b610bc36020830184610b27565b60408101610bb68285610b27565b60a08101610c018288610b27565b610c0e6020830187610b69565b610c1b6040830186610b27565b610c286060830185610b69565b610c356080830184610b69565b9695505050505050565b602080825281016108bb81610b30565b602081016108bb8284610b69565b60405181810167ffffffffffffffff81118282101715610c7c57600080fd5b604052919050565b600067ffffffffffffffff821115610c9b57600080fd5b5060209081020190565b90815260200190565b60006108bb82610cbe565b151590565b600160a060020a031690565b90565b60006108bb8260006108bb82610cae565b610ce781610cae565b8114610cf257600080fd5b50565b610ce781610cb9565b610ce781610cca56fea365627a7a72315820242bfc27a15dff1446def7440e56cba58a4a7dec2a70c2183ff34acb17087c226c6578706572696d656e74616cf564736f6c634300050b0040",
    "source": "pragma solidity ^0.5.11;\npragma experimental ABIEncoderV2;\n\n\n// DO NOT USE ON MAINNET\n// This contract is under development and tokens can easily get stuck forever\n\ncontract PoolInterface {\n    function swap_ExactAmountIn(address, uint, address, uint, uint) external returns (uint, uint);\n    function swap_ExactAmountOut(address, uint, address, uint, uint) external returns (uint, uint);\n}\n\ncontract TokenInterface {\n    function balanceOf(address) public returns (uint);\n    function allowance(address, address) public returns (uint);\n    function approve(address, uint) public returns (bool);\n    function transfer(address,uint) public returns (bool);\n    function transferFrom(address, address, uint) public returns (bool);\n    function deposit() public payable;\n    function withdraw(uint) public;\n}\n\ncontract ExchangeProxy {\n\n    struct Swap {\n        address pool;\n        uint    tokenInParam; // tokenInAmount / maxAmountIn / limitAmountIn\n        uint    tokenOutParam; // minAmountOut / tokenAmountOut / limitAmountOut\n        uint    maxPrice;\n    }\n\n    function add(uint a, uint b) internal pure returns (uint) {\n        uint c = a + b;\n        require(c >= a, \"ERR_ADD_OVERFLOW\");\n        return c;\n    }\n\n    // Needs to be public. ABIEncoderV2 does not support external functions\n    // TODO - check totalAmountOut > minTotalAmountOut\n    // TODO - consider if function should revert if not all trades execute\n    function batchSwapExactIn(\n        Swap[] memory swaps,\n        address tokenIn,\n        address tokenOut,\n        uint totalAmountIn,\n        uint minTotalAmountOut\n    )   \n        public\n        returns (uint totalAmountOut)\n    {\n        TokenInterface TI = TokenInterface(tokenIn);\n        TokenInterface TO = TokenInterface(tokenOut);\n        TI.transferFrom(msg.sender, address(this), totalAmountIn);\n        totalAmountOut = 0;\n        for (uint i = 0; i < swaps.length; i++) {\n            Swap memory swap = swaps[i];\n            \n            PoolInterface pool = PoolInterface(swap.pool);\n            if (TI.allowance(address(this), swap.pool) < totalAmountIn) {\n                TI.approve(swap.pool, uint(-1));\n            }\n            (uint tokenAmountOut, uint spotPriceTarget) = pool.swap_ExactAmountIn(tokenIn, swap.tokenInParam, tokenOut, swap.tokenOutParam, swap.maxPrice);\n            totalAmountOut = add(tokenAmountOut, totalAmountOut);\n        }\n        TO.transfer(msg.sender, totalAmountOut);\n        return totalAmountOut;\n    }\n\n    // Needs to be public. ABIEncoderV2 does not support external functions\n    // TODO - consider if function should revert if not all trades execute\n    function batchSwapExactOut(\n        Swap[] memory swaps,\n        address tokenIn,\n        address tokenOut,\n        uint totalAmountOut,\n        uint maxTotalAmountIn  \n    )\n        public\n        returns (uint totalAmountIn)\n    {\n        TokenInterface TI = TokenInterface(tokenIn);\n        TokenInterface TO = TokenInterface(tokenOut);\n        TI.transferFrom(msg.sender, address(this), maxTotalAmountIn);\n        totalAmountIn = 0;\n        for (uint i = 0; i < swaps.length; i++) {\n            Swap memory swap = swaps[i];\n            PoolInterface pool = PoolInterface(swap.pool);\n            if (TI.allowance(address(this), swap.pool) < maxTotalAmountIn) {\n                TI.approve(swap.pool, uint(-1));\n            }\n            (uint tokenAmountIn, uint spotPriceTarget) = pool.swap_ExactAmountOut(tokenIn, swap.tokenInParam, tokenOut, swap.tokenOutParam, swap.maxPrice);\n            totalAmountIn = add(tokenAmountIn, totalAmountIn);\n        }\n        TO.transfer(msg.sender, totalAmountOut);\n        TI.transfer(msg.sender, TI.balanceOf(address(this)));\n        return totalAmountIn;\n    }\n\n    // TODO\n    function batchEthInSwapExactIn () public payable {}\n    function batchEthOutSwapExactIn () public {}\n    function batchEthInSwapExactOut () public payable {}\n    function batchEthOutSwapExactOut () public {}\n}",
    "sourcePath": "/Users/mike/Projects/balancer/balancer-exchange/lib/exchange-proxy/contracts/ExchangeProxy.sol",
    "compiler": {
        "name": "solc",
        "version": "0.5.11+commit.c082d0b4.Emscripten.clang"
    },
    "schemaVersion": "3.0.16",
    "updatedAt": "2019-11-30T15:14:31.638Z",
    "devdoc": {
        "methods": {}
    },
    "userdoc": {
        "methods": {}
    }
}