{
    "contractName": "ExchangeProxy",
    "abi": [
        {
            "inputs": [
                {
                    "internalType": "address",
                    "name": "_weth",
                    "type": "address"
                }
            ],
            "payable": false,
            "stateMutability": "nonpayable",
            "type": "constructor"
        },
        {
            "anonymous": true,
            "inputs": [
                {
                    "indexed": true,
                    "internalType": "bytes4",
                    "name": "sig",
                    "type": "bytes4"
                },
                {
                    "indexed": true,
                    "internalType": "address",
                    "name": "caller",
                    "type": "address"
                },
                {
                    "indexed": false,
                    "internalType": "bytes",
                    "name": "data",
                    "type": "bytes"
                }
            ],
            "name": "LOG_CALL",
            "type": "event"
        },
        {
            "payable": true,
            "stateMutability": "payable",
            "type": "fallback"
        },
        {
            "constant": false,
            "inputs": [
                {
                    "components": [
                        {
                            "internalType": "address",
                            "name": "pool",
                            "type": "address"
                        },
                        {
                            "internalType": "uint256",
                            "name": "tokenInParam",
                            "type": "uint256"
                        },
                        {
                            "internalType": "uint256",
                            "name": "tokenOutParam",
                            "type": "uint256"
                        },
                        {
                            "internalType": "uint256",
                            "name": "maxPrice",
                            "type": "uint256"
                        }
                    ],
                    "internalType": "struct ExchangeProxy.Swap[]",
                    "name": "swaps",
                    "type": "tuple[]"
                },
                {
                    "internalType": "address",
                    "name": "tokenIn",
                    "type": "address"
                },
                {
                    "internalType": "address",
                    "name": "tokenOut",
                    "type": "address"
                },
                {
                    "internalType": "uint256",
                    "name": "totalAmountIn",
                    "type": "uint256"
                },
                {
                    "internalType": "uint256",
                    "name": "minTotalAmountOut",
                    "type": "uint256"
                }
            ],
            "name": "batchSwapExactIn",
            "outputs": [
                {
                    "internalType": "uint256",
                    "name": "totalAmountOut",
                    "type": "uint256"
                }
            ],
            "payable": false,
            "stateMutability": "nonpayable",
            "type": "function"
        },
        {
            "constant": false,
            "inputs": [
                {
                    "components": [
                        {
                            "internalType": "address",
                            "name": "pool",
                            "type": "address"
                        },
                        {
                            "internalType": "uint256",
                            "name": "tokenInParam",
                            "type": "uint256"
                        },
                        {
                            "internalType": "uint256",
                            "name": "tokenOutParam",
                            "type": "uint256"
                        },
                        {
                            "internalType": "uint256",
                            "name": "maxPrice",
                            "type": "uint256"
                        }
                    ],
                    "internalType": "struct ExchangeProxy.Swap[]",
                    "name": "swaps",
                    "type": "tuple[]"
                },
                {
                    "internalType": "address",
                    "name": "tokenIn",
                    "type": "address"
                },
                {
                    "internalType": "address",
                    "name": "tokenOut",
                    "type": "address"
                },
                {
                    "internalType": "uint256",
                    "name": "totalAmountOut",
                    "type": "uint256"
                },
                {
                    "internalType": "uint256",
                    "name": "maxTotalAmountIn",
                    "type": "uint256"
                }
            ],
            "name": "batchSwapExactOut",
            "outputs": [
                {
                    "internalType": "uint256",
                    "name": "totalAmountIn",
                    "type": "uint256"
                }
            ],
            "payable": false,
            "stateMutability": "nonpayable",
            "type": "function"
        },
        {
            "constant": false,
            "inputs": [
                {
                    "components": [
                        {
                            "internalType": "address",
                            "name": "pool",
                            "type": "address"
                        },
                        {
                            "internalType": "uint256",
                            "name": "tokenInParam",
                            "type": "uint256"
                        },
                        {
                            "internalType": "uint256",
                            "name": "tokenOutParam",
                            "type": "uint256"
                        },
                        {
                            "internalType": "uint256",
                            "name": "maxPrice",
                            "type": "uint256"
                        }
                    ],
                    "internalType": "struct ExchangeProxy.Swap[]",
                    "name": "swaps",
                    "type": "tuple[]"
                },
                {
                    "internalType": "address",
                    "name": "tokenOut",
                    "type": "address"
                },
                {
                    "internalType": "uint256",
                    "name": "minTotalAmountOut",
                    "type": "uint256"
                }
            ],
            "name": "batchEthInSwapExactIn",
            "outputs": [
                {
                    "internalType": "uint256",
                    "name": "totalAmountOut",
                    "type": "uint256"
                }
            ],
            "payable": true,
            "stateMutability": "payable",
            "type": "function"
        },
        {
            "constant": false,
            "inputs": [
                {
                    "components": [
                        {
                            "internalType": "address",
                            "name": "pool",
                            "type": "address"
                        },
                        {
                            "internalType": "uint256",
                            "name": "tokenInParam",
                            "type": "uint256"
                        },
                        {
                            "internalType": "uint256",
                            "name": "tokenOutParam",
                            "type": "uint256"
                        },
                        {
                            "internalType": "uint256",
                            "name": "maxPrice",
                            "type": "uint256"
                        }
                    ],
                    "internalType": "struct ExchangeProxy.Swap[]",
                    "name": "swaps",
                    "type": "tuple[]"
                },
                {
                    "internalType": "address",
                    "name": "tokenIn",
                    "type": "address"
                },
                {
                    "internalType": "uint256",
                    "name": "totalAmountIn",
                    "type": "uint256"
                },
                {
                    "internalType": "uint256",
                    "name": "minTotalAmountOut",
                    "type": "uint256"
                }
            ],
            "name": "batchEthOutSwapExactIn",
            "outputs": [
                {
                    "internalType": "uint256",
                    "name": "totalAmountOut",
                    "type": "uint256"
                }
            ],
            "payable": false,
            "stateMutability": "nonpayable",
            "type": "function"
        },
        {
            "constant": false,
            "inputs": [
                {
                    "components": [
                        {
                            "internalType": "address",
                            "name": "pool",
                            "type": "address"
                        },
                        {
                            "internalType": "uint256",
                            "name": "tokenInParam",
                            "type": "uint256"
                        },
                        {
                            "internalType": "uint256",
                            "name": "tokenOutParam",
                            "type": "uint256"
                        },
                        {
                            "internalType": "uint256",
                            "name": "maxPrice",
                            "type": "uint256"
                        }
                    ],
                    "internalType": "struct ExchangeProxy.Swap[]",
                    "name": "swaps",
                    "type": "tuple[]"
                },
                {
                    "internalType": "address",
                    "name": "tokenOut",
                    "type": "address"
                },
                {
                    "internalType": "uint256",
                    "name": "totalAmountOut",
                    "type": "uint256"
                }
            ],
            "name": "batchEthInSwapExactOut",
            "outputs": [
                {
                    "internalType": "uint256",
                    "name": "totalAmountIn",
                    "type": "uint256"
                }
            ],
            "payable": true,
            "stateMutability": "payable",
            "type": "function"
        },
        {
            "constant": false,
            "inputs": [
                {
                    "components": [
                        {
                            "internalType": "address",
                            "name": "pool",
                            "type": "address"
                        },
                        {
                            "internalType": "uint256",
                            "name": "tokenInParam",
                            "type": "uint256"
                        },
                        {
                            "internalType": "uint256",
                            "name": "tokenOutParam",
                            "type": "uint256"
                        },
                        {
                            "internalType": "uint256",
                            "name": "maxPrice",
                            "type": "uint256"
                        }
                    ],
                    "internalType": "struct ExchangeProxy.Swap[]",
                    "name": "swaps",
                    "type": "tuple[]"
                },
                {
                    "internalType": "address",
                    "name": "tokenIn",
                    "type": "address"
                },
                {
                    "internalType": "uint256",
                    "name": "totalAmountOut",
                    "type": "uint256"
                },
                {
                    "internalType": "uint256",
                    "name": "maxTotalAmountIn",
                    "type": "uint256"
                }
            ],
            "name": "batchEthOutSwapExactOut",
            "outputs": [
                {
                    "internalType": "uint256",
                    "name": "totalAmountIn",
                    "type": "uint256"
                }
            ],
            "payable": false,
            "stateMutability": "nonpayable",
            "type": "function"
        }
    ],
    "bytecode": "0x60806040523480156200001157600080fd5b50604051620022e7380380620022e7833981016040819052620000349162000073565b60008054600160a060020a039092166101000261010060a860020a0319909216919091179055620000c8565b80516200006d81620000ae565b92915050565b6000602082840312156200008657600080fd5b600062000094848462000060565b949350505050565b6000600160a060020a0382166200006d565b620000b9816200009c565b8114620000c557600080fd5b50565b61220f80620000d86000396000f3fe6080604052600436106100585760e060020a60003504633ca9184e811461005a5780634e7ffa04146100905780637304a096146100a3578063899194ad146100c3578063e3440423146100d6578063f4378240146100f6575b005b34801561006657600080fd5b5061007a610075366004611d52565b610116565b60405161008791906120f9565b60405180910390f35b61007a61009e366004611cee565b610547565b3480156100af57600080fd5b5061007a6100be366004611d52565b610903565b61007a6100d1366004611cee565b610dc5565b3480156100e257600080fd5b5061007a6100f1366004611c62565b611300565b34801561010257600080fd5b5061007a610111366004611c62565b6117b0565b6040516000903390600160e060020a0319833516906101389084903690612097565b60405180910390a260005460ff161561016f5760405160e560020a62461bcd028152600401610166906120c9565b60405180910390fd5b6000805460ff1916600117905560405160e060020a6323b872dd0281528490600160a060020a038216906323b872dd906101b190339030908990600401611ffa565b602060405180830381600087803b1580156101cb57600080fd5b505af11580156101df573d6000803e3d6000fd5b505050506040513d601f19601f820116820180604052506102039190810190611dca565b5060005b865181101561041157610218611b15565b87828151811061022457fe5b6020908102919091010151805160405160e160020a636eb1769f028152919250908790600160a060020a0386169063dd62ed3e906102689030908690600401611fd8565b602060405180830381600087803b15801561028257600080fd5b505af1158015610296573d6000803e3d6000fd5b505050506040513d601f19601f820116820180604052506102ba9190810190611df0565b101561034857815160405160e060020a63095ea7b3028152600160a060020a0386169163095ea7b3916102f491906000199060040161203d565b602060405180830381600087803b15801561030e57600080fd5b505af1158015610322573d6000803e3d6000fd5b505050506040513d601f19601f820116820180604052506103469190810190611dca565b505b600081600160a060020a0316638201aa3f8a8560200151600060019054906101000a9004600160a060020a0316876040015188606001516040518663ffffffff1660e060020a0281526004016103a295949392919061204b565b6040805180830381600087803b1580156103bb57600080fd5b505af11580156103cf573d6000803e3d6000fd5b505050506040513d601f19601f820116820180604052506103f39190810190611e0e565b5090506104008187611ae4565b955050600190920191506102079050565b50828210156104355760405160e560020a62461bcd028152600401610166906120a9565b6000546040517f2e1a7d4d000000000000000000000000000000000000000000000000000000008152610100909104600160a060020a031690632e1a7d4d906104829085906004016120f9565b600060405180830381600087803b15801561049c57600080fd5b505af11580156104b0573d6000803e3d6000fd5b50505050600033600160a060020a0316836040516104cd90611fbf565b60006040518083038185875af1925050503d806000811461050a576040519150601f19603f3d011682016040523d82523d6000602084013e61050f565b606091505b50509050806105335760405160e560020a62461bcd028152600401610166906120d9565b50506000805460ff19169055949350505050565b6040516000903390600160e060020a0319833516906105699084903690612097565b60405180910390a260005460ff16156105975760405160e560020a62461bcd028152600401610166906120c9565b60008054600160ff1990911617808255604080517fd0e30db000000000000000000000000000000000000000000000000000000000815290518693610100909304600160a060020a03169263d0e30db09234926004808301939282900301818588803b15801561060657600080fd5b505af115801561061a573d6000803e3d6000fd5b50600093505050505b855181101561084957610634611b15565b86828151811061064057fe5b6020908102919091010151805160005460405160e160020a636eb1769f028152929350909134916101009004600160a060020a03169063dd62ed3e9061068c9030908690600401611fd8565b602060405180830381600087803b1580156106a657600080fd5b505af11580156106ba573d6000803e3d6000fd5b505050506040513d601f19601f820116820180604052506106de9190810190611df0565b101561077357600054825160405160e060020a63095ea7b3028152610100909204600160a060020a03169163095ea7b39161071f916000199060040161203d565b602060405180830381600087803b15801561073957600080fd5b505af115801561074d573d6000803e3d6000fd5b505050506040513d601f19601f820116820180604052506107719190810190611dca565b505b600080546020840151604080860151606087015191517f8201aa3f000000000000000000000000000000000000000000000000000000008152600160a060020a0380881695638201aa3f956107da956101009092049092169391928f92919060040161204b565b6040805180830381600087803b1580156107f357600080fd5b505af1158015610807573d6000803e3d6000fd5b505050506040513d601f19601f8201168201806040525061082b9190810190611e0e565b5090506108388187611ae4565b955050600190920191506106239050565b508282101561086d5760405160e560020a62461bcd028152600401610166906120a9565b60405160e060020a63a9059cbb028152600160a060020a0382169063a9059cbb9061089e9033908690600401612022565b602060405180830381600087803b1580156108b857600080fd5b505af11580156108cc573d6000803e3d6000fd5b505050506040513d601f19601f820116820180604052506108f09190810190611dca565b50506000805460ff191690559392505050565b6040516000903390600160e060020a0319833516906109259084903690612097565b60405180910390a260005460ff16156109535760405160e560020a62461bcd028152600401610166906120c9565b6000805460ff1916600117905560405160e060020a6323b872dd0281528490600160a060020a038216906323b872dd9061099590339030908890600401611ffa565b602060405180830381600087803b1580156109af57600080fd5b505af11580156109c3573d6000803e3d6000fd5b505050506040513d601f19601f820116820180604052506109e79190810190611dca565b5060005b8651811015610bf5576109fc611b15565b878281518110610a0857fe5b6020908102919091010151805160405160e160020a636eb1769f028152919250908690600160a060020a0386169063dd62ed3e90610a4c9030908690600401611fd8565b602060405180830381600087803b158015610a6657600080fd5b505af1158015610a7a573d6000803e3d6000fd5b505050506040513d601f19601f82011682018060405250610a9e9190810190611df0565b1015610b2c57815160405160e060020a63095ea7b3028152600160a060020a0386169163095ea7b391610ad891906000199060040161203d565b602060405180830381600087803b158015610af257600080fd5b505af1158015610b06573d6000803e3d6000fd5b505050506040513d601f19601f82011682018060405250610b2a9190810190611dca565b505b600081600160a060020a0316637c5e9ea48a8560200151600060019054906101000a9004600160a060020a0316876040015188606001516040518663ffffffff1660e060020a028152600401610b8695949392919061204b565b6040805180830381600087803b158015610b9f57600080fd5b505af1158015610bb3573d6000803e3d6000fd5b505050506040513d601f19601f82011682018060405250610bd79190810190611e0e565b509050610be48187611ae4565b955050600190920191506109eb9050565b5082821115610c195760405160e560020a62461bcd028152600401610166906120b9565b6040517f70a08231000000000000000000000000000000000000000000000000000000008152600160a060020a0382169063a9059cbb90339083906370a0823190610c68903090600401611fca565b602060405180830381600087803b158015610c8257600080fd5b505af1158015610c96573d6000803e3d6000fd5b505050506040513d601f19601f82011682018060405250610cba9190810190611df0565b6040518363ffffffff1660e060020a028152600401610cda929190612022565b602060405180830381600087803b158015610cf457600080fd5b505af1158015610d08573d6000803e3d6000fd5b505050506040513d601f19601f82011682018060405250610d2c9190810190611dca565b506000546040517f2e1a7d4d000000000000000000000000000000000000000000000000000000008152610100909104600160a060020a031690632e1a7d4d90610d7a9087906004016120f9565b600060405180830381600087803b158015610d9457600080fd5b505af1158015610da8573d6000803e3d6000fd5b50505050600033600160a060020a0316856040516104cd90611fbf565b6040516000903390600160e060020a031983351690610de79084903690612097565b60405180910390a260005460ff1615610e155760405160e560020a62461bcd028152600401610166906120c9565b60008054600160ff1990911617808255604080517fd0e30db000000000000000000000000000000000000000000000000000000000815290518693610100909304600160a060020a03169263d0e30db09234926004808301939282900301818588803b158015610e8457600080fd5b505af1158015610e98573d6000803e3d6000fd5b50600093505050505b85518110156110c757610eb2611b15565b868281518110610ebe57fe5b6020908102919091010151805160005460405160e160020a636eb1769f028152929350909134916101009004600160a060020a03169063dd62ed3e90610f0a9030908690600401611fd8565b602060405180830381600087803b158015610f2457600080fd5b505af1158015610f38573d6000803e3d6000fd5b505050506040513d601f19601f82011682018060405250610f5c9190810190611df0565b1015610ff157600054825160405160e060020a63095ea7b3028152610100909204600160a060020a03169163095ea7b391610f9d916000199060040161203d565b602060405180830381600087803b158015610fb757600080fd5b505af1158015610fcb573d6000803e3d6000fd5b505050506040513d601f19601f82011682018060405250610fef9190810190611dca565b505b600080546020840151604080860151606087015191517f7c5e9ea4000000000000000000000000000000000000000000000000000000008152600160a060020a0380881695637c5e9ea495611058956101009092049092169391928f92919060040161204b565b6040805180830381600087803b15801561107157600080fd5b505af1158015611085573d6000803e3d6000fd5b505050506040513d601f19601f820116820180604052506110a99190810190611e0e565b5090506110b68187611ae4565b95505060019092019150610ea19050565b5060405160e060020a63a9059cbb028152600160a060020a0382169063a9059cbb906110f99033908790600401612022565b602060405180830381600087803b15801561111357600080fd5b505af1158015611127573d6000803e3d6000fd5b505050506040513d601f19601f8201168201806040525061114b9190810190611dca565b50600080546040517f70a08231000000000000000000000000000000000000000000000000000000008152610100909104600160a060020a0316906370a082319061119a903090600401611fca565b602060405180830381600087803b1580156111b457600080fd5b505af11580156111c8573d6000803e3d6000fd5b505050506040513d601f19601f820116820180604052506111ec9190810190611df0565b6000546040517f2e1a7d4d0000000000000000000000000000000000000000000000000000000081529192506101009004600160a060020a031690632e1a7d4d9061123b9084906004016120f9565b600060405180830381600087803b15801561125557600080fd5b505af1158015611269573d6000803e3d6000fd5b50505050600033600160a060020a03168260405161128690611fbf565b60006040518083038185875af1925050503d80600081146112c3576040519150601f19603f3d011682016040523d82523d6000602084013e6112c8565b606091505b50509050806112ec5760405160e560020a62461bcd028152600401610166906120d9565b5050506000805460ff191690559392505050565b6040516000903390600160e060020a0319833516906113229084903690612097565b60405180910390a260005460ff16156113505760405160e560020a62461bcd028152600401610166906120c9565b6000805460ff1916600117905560405160e060020a6323b872dd02815285908590600160a060020a038316906323b872dd9061139490339030908990600401611ffa565b602060405180830381600087803b1580156113ae57600080fd5b505af11580156113c2573d6000803e3d6000fd5b505050506040513d601f19601f820116820180604052506113e69190810190611dca565b5060005b88518110156115df576113fb611b15565b89828151811061140757fe5b6020908102919091010151805160405160e160020a636eb1769f028152919250908790600160a060020a0387169063dd62ed3e9061144b9030908690600401611fd8565b602060405180830381600087803b15801561146557600080fd5b505af1158015611479573d6000803e3d6000fd5b505050506040513d601f19601f8201168201806040525061149d9190810190611df0565b101561152b57815160405160e060020a63095ea7b3028152600160a060020a0387169163095ea7b3916114d791906000199060040161203d565b602060405180830381600087803b1580156114f157600080fd5b505af1158015611505573d6000803e3d6000fd5b505050506040513d601f19601f820116820180604052506115299190810190611dca565b505b600081600160a060020a0316637c5e9ea48c85602001518d876040015188606001516040518663ffffffff1660e060020a02815260040161157095949392919061204b565b6040805180830381600087803b15801561158957600080fd5b505af115801561159d573d6000803e3d6000fd5b505050506040513d601f19601f820116820180604052506115c19190810190611e0e565b5090506115ce8188611ae4565b965050600190920191506113ea9050565b50838311156116035760405160e560020a62461bcd028152600401610166906120b9565b60405160e060020a63a9059cbb028152600160a060020a0382169063a9059cbb906116349033908990600401612022565b602060405180830381600087803b15801561164e57600080fd5b505af1158015611662573d6000803e3d6000fd5b505050506040513d601f19601f820116820180604052506116869190810190611dca565b506040517f70a08231000000000000000000000000000000000000000000000000000000008152600160a060020a0383169063a9059cbb90339083906370a08231906116d6903090600401611fca565b602060405180830381600087803b1580156116f057600080fd5b505af1158015611704573d6000803e3d6000fd5b505050506040513d601f19601f820116820180604052506117289190810190611df0565b6040518363ffffffff1660e060020a028152600401611748929190612022565b602060405180830381600087803b15801561176257600080fd5b505af1158015611776573d6000803e3d6000fd5b505050506040513d601f19601f8201168201806040525061179a9190810190611dca565b5050506000805460ff1916905595945050505050565b6040516000903390600160e060020a0319833516906117d29084903690612097565b60405180910390a260005460ff16156118005760405160e560020a62461bcd028152600401610166906120c9565b6000805460ff1916600117905560405160e060020a6323b872dd02815285908590600160a060020a038316906323b872dd9061184490339030908a90600401611ffa565b602060405180830381600087803b15801561185e57600080fd5b505af1158015611872573d6000803e3d6000fd5b505050506040513d601f19601f820116820180604052506118969190810190611dca565b5060005b8851811015611a8f576118ab611b15565b8982815181106118b757fe5b6020908102919091010151805160405160e160020a636eb1769f028152919250908890600160a060020a0387169063dd62ed3e906118fb9030908690600401611fd8565b602060405180830381600087803b15801561191557600080fd5b505af1158015611929573d6000803e3d6000fd5b505050506040513d601f19601f8201168201806040525061194d9190810190611df0565b10156119db57815160405160e060020a63095ea7b3028152600160a060020a0387169163095ea7b39161198791906000199060040161203d565b602060405180830381600087803b1580156119a157600080fd5b505af11580156119b5573d6000803e3d6000fd5b505050506040513d601f19601f820116820180604052506119d99190810190611dca565b505b600081600160a060020a0316638201aa3f8c85602001518d876040015188606001516040518663ffffffff1660e060020a028152600401611a2095949392919061204b565b6040805180830381600087803b158015611a3957600080fd5b505af1158015611a4d573d6000803e3d6000fd5b505050506040513d601f19601f82011682018060405250611a719190810190611e0e565b509050611a7e8188611ae4565b9650506001909201915061189a9050565b5083831015611ab35760405160e560020a62461bcd028152600401610166906120a9565b60405160e060020a63a9059cbb028152600160a060020a0382169063a9059cbb906117489033908790600401612022565b600082820183811015611b0c5760405160e560020a62461bcd028152600401610166906120e9565b90505b92915050565b60405180608001604052806000600160a060020a031681526020016000815260200160008152602001600081525090565b8035611b0f816121a3565b600082601f830112611b6257600080fd5b8135611b75611b708261212e565b612107565b91508181835260208401935060208101905083856080840282011115611b9a57600080fd5b60005b83811015611bc85781611bb08882611bdd565b84525060209092019160809190910190600101611b9d565b5050505092915050565b8051611b0f816121ba565b600060808284031215611bef57600080fd5b611bf96080612107565b90506000611c078484611b46565b8252506020611c1884848301611c4c565b6020830152506040611c2c84828501611c4c565b6040830152506060611c4084828501611c4c565b60608301525092915050565b8035611b0f816121c3565b8051611b0f816121c3565b600080600080600060a08688031215611c7a57600080fd5b853567ffffffffffffffff811115611c9157600080fd5b611c9d88828901611b51565b9550506020611cae88828901611b46565b9450506040611cbf88828901611b46565b9350506060611cd088828901611c4c565b9250506080611ce188828901611c4c565b9150509295509295909350565b600080600060608486031215611d0357600080fd5b833567ffffffffffffffff811115611d1a57600080fd5b611d2686828701611b51565b9350506020611d3786828701611b46565b9250506040611d4886828701611c4c565b9150509250925092565b60008060008060808587031215611d6857600080fd5b843567ffffffffffffffff811115611d7f57600080fd5b611d8b87828801611b51565b9450506020611d9c87828801611b46565b9350506040611dad87828801611c4c565b9250506060611dbe87828801611c4c565b91505092959194509250565b600060208284031215611ddc57600080fd5b6000611de88484611bd2565b949350505050565b600060208284031215611e0257600080fd5b6000611de88484611c57565b60008060408385031215611e2157600080fd5b6000611e2d8585611c57565b9250506020611e3e85828601611c57565b9150509250929050565b611e518161217c565b82525050565b611e518161215d565b6000611e6c838561214f565b9350611e7983858461218d565b611e8283612199565b9093019392505050565b6000611e99600d8361214f565b7f4552525f4c494d49545f4f555400000000000000000000000000000000000000815260200192915050565b6000611ed2600c8361214f565b7f4552525f4c494d49545f494e0000000000000000000000000000000000000000815260200192915050565b6000611f0b600b8361214f565b7f4552525f5245454e545259000000000000000000000000000000000000000000815260200192915050565b6000611f44600e8361214f565b7f4552525f4554485f4641494c4544000000000000000000000000000000000000815260200192915050565b6000611b0f600083612158565b6000611f8a60108361214f565b7f4552525f4144445f4f564552464c4f5700000000000000000000000000000000815260200192915050565b611e5181612179565b6000611b0f82611f70565b60208101611b0f8284611e48565b60408101611fe68285611e48565b611ff36020830184611e57565b9392505050565b606081016120088286611e48565b6120156020830185611e48565b611de86040830184611fb6565b604081016120308285611e48565b611ff36020830184611fb6565b604081016120308285611e57565b60a081016120598288611e57565b6120666020830187611fb6565b6120736040830186611e57565b6120806060830185611fb6565b61208d6080830184611fb6565b9695505050505050565b60208082528101611de8818486611e60565b60208082528101611b0f81611e8c565b60208082528101611b0f81611ec5565b60208082528101611b0f81611efe565b60208082528101611b0f81611f37565b60208082528101611b0f81611f7d565b60208101611b0f8284611fb6565b60405181810167ffffffffffffffff8111828210171561212657600080fd5b604052919050565b600067ffffffffffffffff82111561214557600080fd5b5060209081020190565b90815260200190565b919050565b6000611b0f8261216d565b151590565b600160a060020a031690565b90565b6000611b0f826000611b0f8261215d565b82818337506000910152565b601f01601f191690565b6121ac8161215d565b81146121b757600080fd5b50565b6121ac81612168565b6121ac8161217956fea365627a7a72315820132132f6436d4f35d5c879bb11eaf65f1b061f23d09719855e7d8e165ffb495e6c6578706572696d656e74616cf564736f6c634300050c0040",
    "source": "// This program is free software: you can redistribute it and/or modify\n// it under the terms of the GNU General Public License as published by\n// the Free Software Foundation, either version 3 of the License, or\n// (at your option) any later version.\n\n// This program is distributed in the hope that it will be useful,\n// but WITHOUT ANY WARRANTY; without even the implied warranty of\n// MERCHANTABILITY or FITNESS FOR A PARTICULAR PURPOSE.  See the\n// GNU General Public License for more details.\n\n// You should have received a copy of the GNU General Public License\n// along with this program.  If not, see <http://www.gnu.org/licenses/>.\n\npragma solidity 0.5.12;\npragma experimental ABIEncoderV2;\n\n\ncontract PoolInterface {\n    function swapExactAmountIn(address, uint, address, uint, uint) external returns (uint, uint);\n    function swapExactAmountOut(address, uint, address, uint, uint) external returns (uint, uint);\n}\n\ncontract TokenInterface {\n    function balanceOf(address) public returns (uint);\n    function allowance(address, address) public returns (uint);\n    function approve(address, uint) public returns (bool);\n    function transfer(address, uint) public returns (bool);\n    function transferFrom(address, address, uint) public returns (bool);\n    function deposit() public payable;\n    function withdraw(uint) public;\n}\n\ncontract ExchangeProxy {\n\n    struct Swap {\n        address pool;\n        uint    tokenInParam; // tokenInAmount / maxAmountIn / limitAmountIn\n        uint    tokenOutParam; // minAmountOut / tokenAmountOut / limitAmountOut\n        uint    maxPrice;\n    }\n\n    event LOG_CALL(\n        bytes4  indexed sig,\n        address indexed caller,\n        bytes           data\n    ) anonymous;\n\n    modifier _logs_() {\n        emit LOG_CALL(msg.sig, msg.sender, msg.data);\n        _;\n    }\n\n    modifier _lock_() {\n        require(!_mutex, \"ERR_REENTRY\");\n        _mutex = true;\n        _;\n        _mutex = false;\n    }\n\n    bool private _mutex;\n    TokenInterface weth;\n\n    constructor(address _weth) public {\n        weth = TokenInterface(_weth);\n    }\n\n    function add(uint a, uint b) internal pure returns (uint) {\n        uint c = a + b;\n        require(c >= a, \"ERR_ADD_OVERFLOW\");\n        return c;\n    }\n\n    function batchSwapExactIn(\n        Swap[] memory swaps,\n        address tokenIn,\n        address tokenOut,\n        uint totalAmountIn,\n        uint minTotalAmountOut\n    )   \n        public\n        _logs_\n        _lock_\n        returns (uint totalAmountOut)\n    {\n        TokenInterface TI = TokenInterface(tokenIn);\n        TokenInterface TO = TokenInterface(tokenOut);\n        TI.transferFrom(msg.sender, address(this), totalAmountIn);\n        for (uint i = 0; i < swaps.length; i++) {\n            Swap memory swap = swaps[i];\n            \n            PoolInterface pool = PoolInterface(swap.pool);\n            if (TI.allowance(address(this), swap.pool) < totalAmountIn) {\n                TI.approve(swap.pool, uint(-1));\n            }\n            (uint tokenAmountOut,) = pool.swapExactAmountIn(\n                                        tokenIn,\n                                        swap.tokenInParam,\n                                        tokenOut,\n                                        swap.tokenOutParam,\n                                        swap.maxPrice\n                                    );\n            totalAmountOut = add(tokenAmountOut, totalAmountOut);\n        }\n        require(totalAmountOut >= minTotalAmountOut, \"ERR_LIMIT_OUT\");\n        TO.transfer(msg.sender, totalAmountOut);\n        return totalAmountOut;\n    }\n\n    function batchSwapExactOut(\n        Swap[] memory swaps,\n        address tokenIn,\n        address tokenOut,\n        uint totalAmountOut,\n        uint maxTotalAmountIn\n    )\n        public\n        _logs_\n        _lock_\n        returns (uint totalAmountIn)\n    {\n        TokenInterface TI = TokenInterface(tokenIn);\n        TokenInterface TO = TokenInterface(tokenOut);\n        TI.transferFrom(msg.sender, address(this), maxTotalAmountIn);\n        for (uint i = 0; i < swaps.length; i++) {\n            Swap memory swap = swaps[i];\n            PoolInterface pool = PoolInterface(swap.pool);\n            if (TI.allowance(address(this), swap.pool) < maxTotalAmountIn) {\n                TI.approve(swap.pool, uint(-1));\n            }\n            (uint tokenAmountIn,) = pool.swapExactAmountOut(\n                                        tokenIn,\n                                        swap.tokenInParam,\n                                        tokenOut,\n                                        swap.tokenOutParam,\n                                        swap.maxPrice\n                                    );\n            totalAmountIn = add(tokenAmountIn, totalAmountIn);\n        }\n        require(totalAmountIn <= maxTotalAmountIn, \"ERR_LIMIT_IN\");\n        TO.transfer(msg.sender, totalAmountOut);\n        TI.transfer(msg.sender, TI.balanceOf(address(this)));\n        return totalAmountIn;\n    }\n\n    function batchEthInSwapExactIn(\n        Swap[] memory swaps,\n        address tokenOut,\n        uint minTotalAmountOut\n    )\n        public payable\n        _logs_\n        _lock_\n        returns (uint totalAmountOut)\n    {\n        TokenInterface TO = TokenInterface(tokenOut);\n        weth.deposit.value(msg.value)();\n        for (uint i = 0; i < swaps.length; i++) {\n            Swap memory swap = swaps[i];\n            PoolInterface pool = PoolInterface(swap.pool);\n            if (weth.allowance(address(this), swap.pool) < msg.value) {\n                weth.approve(swap.pool, uint(-1));\n            }\n            (uint tokenAmountOut,) = pool.swapExactAmountIn(\n                                        address(weth),\n                                        swap.tokenInParam,\n                                        tokenOut,\n                                        swap.tokenOutParam,\n                                        swap.maxPrice\n                                    );\n            totalAmountOut = add(tokenAmountOut, totalAmountOut);\n        }\n        require(totalAmountOut >= minTotalAmountOut, \"ERR_LIMIT_OUT\");\n        TO.transfer(msg.sender, totalAmountOut);\n        return totalAmountOut;\n    }\n\n    function batchEthOutSwapExactIn(\n        Swap[] memory swaps,\n        address tokenIn,\n        uint totalAmountIn,\n        uint minTotalAmountOut\n    )\n        public\n        _logs_\n        _lock_\n        returns (uint totalAmountOut)\n    {\n        TokenInterface TI = TokenInterface(tokenIn);\n        TI.transferFrom(msg.sender, address(this), totalAmountIn);\n        for (uint i = 0; i < swaps.length; i++) {\n            Swap memory swap = swaps[i];\n            PoolInterface pool = PoolInterface(swap.pool);\n            if (TI.allowance(address(this), swap.pool) < totalAmountIn) {\n                TI.approve(swap.pool, uint(-1));\n            }\n            (uint tokenAmountOut,) = pool.swapExactAmountIn(\n                                        tokenIn,\n                                        swap.tokenInParam,\n                                        address(weth),\n                                        swap.tokenOutParam,\n                                        swap.maxPrice\n                                    );\n\n            totalAmountOut = add(tokenAmountOut, totalAmountOut);\n        }\n        require(totalAmountOut >= minTotalAmountOut, \"ERR_LIMIT_OUT\");\n        weth.withdraw(totalAmountOut);\n        (bool xfer,) = msg.sender.call.value(totalAmountOut)(\"\");\n        require(xfer, \"ERR_ETH_FAILED\");\n        return totalAmountOut;\n    }\n\n    function batchEthInSwapExactOut(\n        Swap[] memory swaps,\n        address tokenOut,\n        uint totalAmountOut\n    )\n        public payable\n        _logs_\n        _lock_\n        returns (uint totalAmountIn)\n    {\n        TokenInterface TO = TokenInterface(tokenOut);\n        weth.deposit.value(msg.value)();\n        for (uint i = 0; i < swaps.length; i++) {\n            Swap memory swap = swaps[i];\n            PoolInterface pool = PoolInterface(swap.pool);\n            if (weth.allowance(address(this), swap.pool) < msg.value) {\n                weth.approve(swap.pool, uint(-1));\n            }\n            (uint tokenAmountIn,) = pool.swapExactAmountOut(\n                                        address(weth),\n                                        swap.tokenInParam,\n                                        tokenOut,\n                                        swap.tokenOutParam,\n                                        swap.maxPrice\n                                    );\n\n            totalAmountIn = add(tokenAmountIn, totalAmountIn);\n        }\n        TO.transfer(msg.sender, totalAmountOut);\n        uint wethBalance = weth.balanceOf(address(this));\n        weth.withdraw(wethBalance);\n        (bool xfer,) = msg.sender.call.value(wethBalance)(\"\");\n        require(xfer, \"ERR_ETH_FAILED\");\n        return totalAmountIn;\n    }\n\n    function batchEthOutSwapExactOut(\n        Swap[] memory swaps,\n        address tokenIn,\n        uint totalAmountOut,\n        uint maxTotalAmountIn\n    )\n        public\n        _logs_\n        _lock_\n        returns (uint totalAmountIn)\n    {\n        TokenInterface TI = TokenInterface(tokenIn);\n        TI.transferFrom(msg.sender, address(this), maxTotalAmountIn);\n        for (uint i = 0; i < swaps.length; i++) {\n            Swap memory swap = swaps[i];\n            PoolInterface pool = PoolInterface(swap.pool);\n            if (TI.allowance(address(this), swap.pool) < maxTotalAmountIn) {\n                TI.approve(swap.pool, uint(-1));\n            }\n            (uint tokenAmountIn,) = pool.swapExactAmountOut(\n                                        tokenIn,\n                                        swap.tokenInParam,\n                                        address(weth),\n                                        swap.tokenOutParam,\n                                        swap.maxPrice\n                                    );\n\n            totalAmountIn = add(tokenAmountIn, totalAmountIn);\n        }\n        require(totalAmountIn <= maxTotalAmountIn, \"ERR_LIMIT_IN\");\n        TI.transfer(msg.sender, TI.balanceOf(address(this)));\n        weth.withdraw(totalAmountOut);\n        (bool xfer,) = msg.sender.call.value(totalAmountOut)(\"\");\n        require(xfer, \"ERR_ETH_FAILED\");\n        return totalAmountIn;\n    }\n\n    function() external payable {}\n}",
    "sourcePath": "/Users/thomas/code/exchange-proxy/contracts/ExchangeProxy.sol",
    "compiler": {
        "name": "solc",
        "version": "0.5.12+commit.7709ece9.Emscripten.clang"
    },
    "schemaVersion": "3.0.11",
    "updatedAt": "2020-01-22T17:50:35.193Z",
    "devdoc": {
        "methods": {}
    },
    "userdoc": {
        "methods": {}
    }
}